:100000000C94D91B0C94F61B0C94F61B0C94F61B49
:100010000C94F61B0C94F61B0C94F61B0C94F61B1C
:100020000C94F61B0C94F61B0C94F61B0C94F61B0C
:100030000C94F61B0C948A1D0C94F61B0C94F61B66
:100040000C94F61B0C94F61B0C94F61B0C94F61BEC
:100050000C94F61B0C94F61B0C94F61B0C94F61BDC
:100060000C94F61B0C94F61B0C94F61B0C94F61BCC
:100070000C94F61B0C94F61B0C94F61B6E616E0030
:10008000696E66008B1A8B1A8B1A8B1A8B1A8B1A55
:100090008B1A8B1A8B1A8B1A8B1A8B1A2DFF2DFF2A
:1000A0002DFF2DFF2DFF2DFF8B1A8B1A8B1A2DFF85
:1000B0002DFF2DFF8B1A8B1A2DFF2DFF2DFF8B1A75
:1000C0008B1A2DFF2DFF2DFF2DFF2DFF2DFF2DFF57
:1000D0002DFF8B1A8B1A2DFF2DFF2DFF8B1A8B1ADC
:1000E0002DFF2DFF2DFF8B1A8B1A2DFF2DFF2DFFBE
:1000F0008B1A8B1A2DFF2DFF2DFF8B1A8B1A2DFFBC
:100100002DFF2DFF8B1A8B1A2DFF2DFF2DFF8B1A24
:100110008B1A2DFF2DFF2DFF8B1A8B1A2DFF2DFF14
:100120002DFF8B1A8B1A8B1A2DFF2DFF2DFF2DFF04
:100130002DFF2DFF8B1A8B1A8B1A8B1A8B1A8B1A89
:100140008B1A8B1A00000000000000008B1A8B1A1B
:100150008B1A8B1A2DFF2DFF8B1A8B1A8B1A8B1A69
:100160008B1A2DFF2DFF8B1A2DFF2DFF8B1A2DFFC4
:100170002DFF8B1A8B1A2DFF2DFF8B1A2DFF2DFFB4
:100180008B1A2DFF2DFF8B1A8B1A8B1A2DFF8B1AB2
:100190002DFF2DFF8B1A2DFF8B1A8B1A8B1A8B1AA2
:1001A0002DFF2DFF2DFF2DFF2DFF2DFF8B1A8B1AFD
:1001B0002DFF2DFF8B1A2DFF2DFF2DFF2DFF8B1AED
:1001C0002DFF2DFF2DFF2DFF8B1A2DFF2DFF2DFF56
:1001D0002DFF8B1A2DFF2DFF8B1A2DFF8B1A2DFF54
:1001E0002DFF2DFF2DFF8B1A2DFF8B1A8B1A2DFF44
:1001F0002DFF2DFF2DFF2DFF2DFF2DFF2DFF8B1A26
:100200008B1A8B1A2DFF2DFF2DFF2DFF00000000F4
:10021000000000008B1A8B1A8B1A8B1A2DFF2DFFF2
:100220002DFF8B1A8B1A8B1A8B1A8B1A8B1A8B1A1F
:100230002DFF2DFF2DFF8B1A8B1A8B1A8B1A8B1A01
:100240008B1A2DFF2DFF2DFF2DFF8B1A8B1A8B1A6A
:100250008B1A8B1A8B1A2DFF2DFF2DFF8B1A8B1AE1
:100260008B1A8B1A8B1A8B1A2DFF2DFF2DFF2DFF4A
:100270002DFF8B1A8B1A8B1A8B1A8B1A8B1A2DFF48
:100280002DFF2DFF2DFF8B1A8B1A8B1A8B1A8B1AB1
:100290008B1A8B1A2DFF2DFF8B1A8B1A8B1A8B1A28
:1002A0008B1A8B1A8B1A2DFF2DFF8B1A8B1A8B1A18
:1002B0008B1A8B1A8B1A8B1A8B1A2DFF8B1A8B1A8F
:1002C0008B1A8B1A8B1A8B1A8B1A8B1A8B1A2DFF7F
:1002D0008B1A8B1A00000000000000008B1A8B1A8A
:1002E0008B1A8B1A8B1A8B1A8B1A8B1A8B1A8B1AE6
:1002F0008B1A8B1A8B1A8B1A8B1A8B1A8B1A8B1AD6
:100300008B1A8B1A8B1A8B1A8B1A8B1A8B1A8B1AC5
:100310008B1A8B1A8B1A8B1A8B1A8B1A8B1AFEF765
:10032000FEF7FEF7FEF7FEF7FEF7FEF7FEF7FEF725
:10033000FEF7FEF7FEF7FEF7FEF78B1A8B1A8B1A05
:100340008B1A8B1A8B1A8B1A8B1A8B1A8B1A8B1A85
:100350008B1A8B1A8B1A8B1A8B1A8B1A8B1A8B1A75
:100360008B1A8B1A8B1A8B1A8B1A8B1A8B1A8B1A65
:100370008B1A8B1A8B1A8B1A8B1A8B1A8B1A8B1A55
:100380008B1A8B1A8B1A8B1A8B1A8B1A8B1A8B1A45
:100390008B1A8B1A8B1A8B1A8B1A8B1A8B1A8B1A35
:1003A0008B1A8B1A8B1A8B1A8B1A8B1A8B1A8B1A25
:1003B0008B1A8B1A8B1A8B1A8B1A8B1AFEF7FEF775
:1003C000FEF7FEF7FEF7FEF7FEF7FEF7FEF7FEF785
:1003D000FEF7FEF7FEF7FEF7FEF7FEF78B1A8B1A15
:1003E0008B1A8B1A8B1A8B1A8B1A8B1A8B1A8B1AE5
:1003F0008B1A8B1A8B1A8B1A8B1A8B1A8B1A8B1AD5
:100400008B1A8B1A8B1A8B1A8B1A8B1A8B1A8B1AC4
:100410008B1A8B1A8B1A8B1A8B1A8B1A8B1A8B1AB4
:100420008B1A8B1A8B1A8B1A8B1A8B1A8B1A8B1AA4
:100430008B1A8B1A8B1A8B1A8B1A8B1A8B1A8B1A94
:100440008B1A8B1A8B1A8B1A8B1A8B1A8B1A8B1A84
:100450008B1A8B1A8B1A8B1A8B1A8B1AFEF7FEF7D4
:10046000FEF7FEF7FEF7FEF7FEF7FEF7FEF7FEF7E4
:10047000FEF7FEF7FEF7FEF7FEF7FEF78B1A8B1A74
:100480008B1A8B1A8B1A8B1A8B1A8B1A8B1A8B1A44
:100490008B1A8B1A8B1A8B1A8B1A8B1A8B1A8B1A34
:1004A0008B1A8B1A8B1A8B1A8B1A8B1A8B1A8B1A24
:1004B0008B1A8B1A8B1A8B1A8B1A8B1A8B1A8B1A14
:1004C0008B1A8B1A8B1A8B1A8B1A8B1A8B1A8B1A04
:1004D0008B1A8B1A8B1A8B1A8B1A8B1A8B1A8B1AF4
:1004E0008B1A8B1A8B1A8B1A8B1AFEF7FEF7FEF7F4
:1004F000FEF7FEF7FEF7FEF7FEF7FEF7FEF7FEF754
:10050000FEF7FEF7FEF7FEF7FEF7FEF7FEF7FEF743
:10051000FEF7FEF7FEF7FEF7FEF7FEF7FEF7FEF733
:10052000FEF7FEF7FEF7FEF7FEF7FEF7FEF78B1A73
:100530008B1A8B1A8B1A8B1A8B1A8B1A8B1A8B1A93
:100540008B1A8B1A8B1A8B1A8B1A8B1A8B1A8B1A83
:100550008B1A8B1A8B1A8B1A8B1A8B1A8B1A8B1A73
:100560008B1A8B1A8B1A8B1A8B1A8B1A8B1A8B1A63
:100570008B1A8B1A8B1A8B1A8B1A8B1A8B1A8B1A53
:100580008B1A8B1A8B1AFEF7DFFFFEF7FEF7FEF7CA
:10059000FEF7FEF7FEF7FEF7FEF7FEF7FEF7FEF7B3
:1005A000FEF7FEF7FEF7FEF7FEF7FEF7FEF7FEF7A3
:1005B000FEF7FEF7FEF7FEF7FEF7FEF7FEF7FEF793
:1005C000FEF7FEF7FEF7FEF7FEF7FEF7FEF7DFFF9A
:1005D000FEF78B1A8B1A8B1A8B1A8B1A8B1A8B1AA3
:1005E0008B1A8B1A8B1A8B1A8B1A8B1A8B1A8B1AE3
:1005F0008B1A8B1A8B1A8B1A8B1A8B1A8B1A8B1AD3
:100600008B1A8B1A8B1A8B1A8B1A8B1A8B1A8B1AC2
:100610008B1A8B1A8B1A8B1A8B1A8B1A8B1A8B1AB2
:100620008B1A8B1ADFFFFEF7FEF7FEF7FEF7FEF7D9
:10063000FEF7FEF7FEF7FEF7FEF7FEF7FEF7FEF712
:10064000FEF7FEF7FEF7FEF7FEF7FEF7FEF7FEF702
:10065000FEF7FEF7FEF7FEF7FEF7FEF7FEF7FEF7F2
:10066000FEF7FEF7FEF7FEF7FEF7FEF7FEF7FEF7E2
:10067000FEF7DFFF8B1A8B1A8B1A8B1A8B1A8B1AC9
:100680008B1A8B1A8B1A8B1A8B1A8B1A8B1A8B1A42
:100690008B1A8B1A8B1A8B1A8B1A8B1A8B1A8B1A32
:1006A0008B1A8B1A8B1A8B1A8B1A8B1A8B1A8B1A22
:1006B0008B1A8B1A8B1A8B1A8B1A8B1A8B1A8B1A12
:1006C0008B1AFEF7FEF7FEF7FEF7FEF7FEF7FEF7D2
:1006D000FEF7FEF7FEF7FEF7FEF7FEF7FEF7FEF772
:1006E000FEF7FEF7FEF7FEF7FEF7FEF7FEF7FEF762
:1006F000FEF7FEF7FEF7FEF7FEF7FEF7FEF7FEF752
:10070000FEF7FEF7FEF7FEF7FEF7FEF7FEF7FEF741
:10071000FEF7FEF7FEF78B1A8B1A8B1A8B1A8B1AC1
:100720008B1A8B1A8B1A8B1A8B1A8B1A8B1A8B1AA1
:100730008B1A8B1A8B1A8B1A8B1A8B1A8B1A8B1A91
:100740008B1A8B1A8B1A8B1A8B1A8B1A8B1A8B1A81
:100750008B1A8B1A8B1A8B1A8B1A8B1A8B1A8B1A71
:10076000FEF7FEF7FEF7FEF7FEF7FEF7FEF7FEF7E1
:10077000FEF7FEF7FEF7FEF7FEF7FEF7FEF7FEF7D1
:10078000FEF7FEF7FEF7FEF7FEF7FEF7FEF7FEF7C1
:10079000FEF7FEF7FEF7FEF7FEF7FEF7FEF7FEF7B1
:1007A000FEF7FEF7FEF7FEF7FEF7FEF7FEF7FEF7A1
:1007B000FEF7FEF7FEF7FEF78B1A8B1A8B1A8B1AD1
:1007C0008B1A8B1A8B1A8B1A8B1A8B1A8B1A8B1A01
:1007D0008B1A8B1A8B1A8B1A8B1A8B1A8B1A8B1AF1
:1007E0008B1A8B1A8B1A8B1A8B1A8B1A8B1A8B1AE1
:1007F0008B1A8B1A8B1A8B1A8B1A8B1A8B1A8B1AD1
:10080000DFFFFEF7FEF7FEF7FEF7FEF7FEF7FEF757
:10081000FEF7FEF7FEF7FEF7FEF7FEF7FEF7FEF730
:10082000FEF7FEF7FEF7FEF7FEF7FEF7FEF7FEF720
:10083000FEF7FEF7FEF7FEF7FEF7FEF7FEF7FEF710
:10084000FEF7FEF7FEF7FEF7FEF7FEF7FEF7FEF700
:10085000FEF7FEF7FEF7DFFF8B1A8B1A8B1A8B1A47
:100860008B1A8B1A8B1A8B1A8B1A8B1A8B1A8B1A60
:100870008B1A8B1A8B1A8B1A8B1A8B1A8B1A8B1A50
:100880008B1A8B1A8B1A8B1A8B1A8B1A8B1A8B1A40
:100890008B1A8B1A8B1A8B1A8B1A8B1A8B1A8B1A30
:1008A000FEF7FEF7FEF7FEF7FEF7FEF7FEF78B1AF0
:1008B0008B1A8B1A8B1A8B1A8B1A8B1A8B1A8B1A10
:1008C0008B1A8B1A8B1A8B1A8B1A8B1A8B1A8B1A00
:1008D0008B1A8B1A8B1A8B1A8B1A8B1A8B1A8B1AF0
:1008E0008B1A8B1A8B1A8B1A8B1AFEF7FEF7FEF7F0
:1008F000FEF7FEF7FEF7FEF78B1A8B1A8B1A8B1A90
:100900008B1A8B1A8B1A8B1A8B1A8B1A8B1A8B1ABF
:100910008B1A8B1A8B1A8B1A8B1A8B1A8B1A8B1AAF
:100920008B1A8B1A8B1A8B1A8B1A8B1A8B1A8B1A9F
:100930008B1A8B1A8B1A8B1A8B1A8B1A8B1A8B1A8F
:10094000FEF7FEF7FEF7FEF7FEF7DFFF8B1A8B1AB6
:100950008B1A8B1A8B1A8B1A8B1A8B1A8B1A8B1A6F
:100960008B1A8B1A8B1A8B1A8B1A8B1A8B1A8B1A5F
:100970008B1A8B1A8B1A8B1A8B1A8B1A8B1A8B1A4F
:100980008B1A8B1A8B1A8B1A8B1A8B1AFEF7FEF79F
:10099000FEF7FEF7FEF7FEF78B1A8B1A8B1A8B1AEF
:1009A0008B1A8B1A8B1A8B1A8B1A8B1A8B1A8B1A1F
:1009B0008B1A8B1A8B1A8B1A8B1A8B1A8B1A8B1A0F
:1009C0008B1A8B1A8B1A8B1A8B1A8B1A8B1A8B1AFF
:1009D0008B1A8B1A8B1A8B1A8B1A8B1A8B1A8B1AEF
:1009E000FEF7FEF7FEF7FEF7FEF78B1A8B1A8B1A4F
:1009F0008B1A8B1A8B1A8B1A8B1A8B1A8B1A8B1ACF
:100A00008B1A8B1A8B1A8B1A8B1A8B1A8B1A8B1ABE
:100A10008B1A8B1A8B1A8B1A8B1A8B1A8B1A8B1AAE
:100A20008B1A8B1A8B1A8B1A8B1A8B1A8B1AFEF74E
:100A3000FEF7FEF7FEF7FEF78B1A8B1A8B1A8B1A4E
:100A40008B1A8B1A8B1A8B1A8B1A8B1A8B1A8B1A7E
:100A50008B1A8B1A8B1A8B1A8B1A8B1A8B1A8B1A6E
:100A60008B1A8B1A8B1A8B1A8B1A8B1A8B1A8B1A5E
:100A70008B1A8B1A8B1A8B1A8B1A8B1A8B1A8B1A4E
:100A8000FEF7FEF7FEF7FEF7FEF78B1A8B1A8B1AAE
:100A90008B1A8B1A8B1A8B1A8B1A8B1A8B1A8B1A2E
:100AA0008B1A8B1A8B1A8B1A8B1A8B1A8B1A8B1A1E
:100AB0008B1A8B1A8B1A8B1A8B1A8B1A8B1A8B1A0E
:100AC0008B1A8B1A8B1A8B1A8B1A8B1A8B1AFEF7AE
:100AD000FEF7FEF7FEF7FEF78B1A8B1A8B1A8B1AAE
:100AE0008B1A8B1A8B1A8B1A8B1A8B1A8B1A8B1ADE
:100AF0008B1A8B1A8B1A8B1A8B1A8B1A8B1A8B1ACE
:100B00008B1A8B1A8B1A8B1A8B1A8B1A8B1A8B1ABD
:100B10008B1A8B1A8B1A8B1A8B1A8B1A8B1A8B1AAD
:100B2000FEF7FEF7FEF7FEF7FEF78B1A8B1A8B1A0D
:100B30008B1A8B1A8B1A8B1A8B1A8B1A8B1A8B1A8D
:100B40008B1A8B1A8B1A8B1A8B1A8B1A8B1A8B1A7D
:100B50008B1A8B1A8B1A8B1A8B1A8B1A8B1A8B1A6D
:100B60008B1A8B1A8B1A8B1A8B1A8B1A8B1AFEF70D
:100B7000FEF7FEF7FEF7FEF78B1A8B1A8B1A8B1A0D
:100B80008B1A8B1A8B1A8B1A8B1A8B1A8B1A8B1A3D
:100B90008B1A8B1A8B1A8B1A8B1A8B1A8B1A8B1A2D
:100BA0008B1A8B1A8B1A8B1A8B1A8B1A8B1A8B1A1D
:100BB0008B1A8B1A8B1A8B1A8B1A8B1A8B1A8B1A0D
:100BC000FEF7FEF7FEF7FEF7FEF78B1A8B1A8B1A6D
:100BD0008B1A8B1A8B1A8B1A8B1A8B1A8B1A8B1AED
:100BE0008B1A8B1A8B1A8B1A8B1A8B1A8B1A8B1ADD
:100BF0008B1A8B1A8B1A8B1A8B1A8B1A8B1A8B1ACD
:100C00008B1A8B1A8B1A8B1A8B1A8B1A8B1AFEF76C
:100C1000FEF7FEF7FEF7FEF78B1A8B1A8B1A8B1A6C
:100C20008B1A8B1A8B1A8B1A8B1A8B1A8B1A8B1A9C
:100C30008B1A8B1A8B1A8B1A8B1A8B1A8B1A8B1A8C
:100C40008B1A8B1A8B1A8B1A8B1A8B1A8B1A8B1A7C
:100C50008B1A8B1A8B1A8B1A8B1A8B1A8B1A8B1A6C
:100C6000FEF7FEF7FEF7FEF7FEF78B1A8B1A8B1ACC
:100C70008B1A8B1A8B1A8B1A8B1A8B1A8B1A8B1A4C
:100C80008B1A8B1A8B1A8B1A8B1A8B1A8B1A8B1A3C
:100C90008B1A8B1A8B1A8B1A8B1A8B1A8B1A8B1A2C
:100CA0008B1A8B1A8B1A8B1A8B1A8B1A8B1AFEF7CC
:100CB000FEF7FEF7FEF7FEF78B1A8B1A8B1A8B1ACC
:100CC0008B1A8B1A8B1A8B1A8B1A8B1A8B1A8B1AFC
:100CD0008B1A8B1A8B1A8B1A8B1A8B1A8B1A8B1AEC
:100CE0008B1A8B1A8B1A8B1A8B1A8B1A8B1A8B1ADC
:100CF0008B1A8B1A8B1A8B1A8B1A8B1A8B1A8B1ACC
:100D0000FEF7FEF7FEF7FEF7FEF78B1A8B1A8B1A2B
:100D10008B1A8B1A8B1A8B1A8B1A8B1A8B1A8B1AAB
:100D20008B1A8B1A8B1A8B1A8B1A8B1A8B1A8B1A9B
:100D30008B1A8B1A8B1A8B1A8B1A8B1A8B1A8B1A8B
:100D40008B1A8B1A8B1A8B1A8B1A8B1A8B1AFEF72B
:100D5000FEF7FEF7FEF7FEF78B1A8B1A8B1A8B1A2B
:100D60008B1A8B1A8B1A8B1A8B1A8B1A8B1A8B1A5B
:100D70008B1A8B1A8B1A8B1A8B1A8B1A8B1A8B1A4B
:100D80008B1A8B1A8B1A8B1A8B1A8B1A8B1A8B1A3B
:100D90008B1A8B1A8B1A8B1A8B1A8B1A8B1A8B1A2B
:100DA000FEF7FEF7FEF7FEF7FEF78B1A8B1A8B1A8B
:100DB0008B1A8B1A8B1A8B1A8B1A8B1A8B1A8B1A0B
:100DC0008B1A8B1A8B1A8B1A8B1A8B1A8B1A8B1AFB
:100DD0008B1A8B1A8B1A8B1A8B1A8B1A8B1A8B1AEB
:100DE0008B1A8B1A8B1A8B1A8B1A8B1A8B1AFEF78B
:100DF000FEF7FEF7FEF7FEF78B1A8B1A8B1A8B1A8B
:100E00008B1A8B1A8B1A8B1A8B1A8B1A8B1A8B1ABA
:100E10008B1A8B1A8B1A8B1A8B1A8B1A8B1A8B1AAA
:100E20008B1A8B1A8B1A8B1A8B1A8B1A8B1A8B1A9A
:100E30008B1A8B1A8B1A8B1A8B1A8B1A8B1A8B1A8A
:100E4000FEF7FEF7FEF7FEF7FEF78B1A8B1A8B1AEA
:100E50008B1A8B1A8B1A8B1A8B1A8B1A8B1A8B1A6A
:100E60008B1A8B1A8B1A8B1A8B1A8B1A8B1A8B1A5A
:100E70008B1A8B1A8B1A8B1A8B1A8B1A8B1A8B1A4A
:100E80008B1A8B1A8B1A8B1A8B1A8B1A8B1AFEF7EA
:100E9000FEF7FEF7FEF7FEF78B1A8B1A8B1A8B1AEA
:100EA0008B1A8B1A8B1A8B1A8B1A8B1A8B1A8B1A1A
:100EB0008B1A8B1A8B1A8B1A8B1A8B1A8B1A8B1A0A
:100EC0008B1A8B1A8B1A8B1A8B1A8B1A8B1A8B1AFA
:100ED0008B1A8B1A8B1A8B1A8B1A8B1A8B1A8B1AEA
:100EE000FEF7FEF7FEF7FEF7FEF78B1A8B1A8B1A4A
:100EF0008B1A8B1A8B1A8B1A8B1A8B1A8B1A8B1ACA
:100F00008B1A8B1A8B1A8B1A8B1A8B1A8B1A8B1AB9
:100F10008B1A8B1A8B1A8B1A8B1A8B1A8B1A8B1AA9
:100F20008B1A8B1A8B1A8B1A8B1A8B1A8B1AFEF749
:100F3000FEF7FEF7FEF7FEF78B1A8B1A8B1A8B1A49
:100F40008B1A8B1A8B1A8B1A8B1A8B1A8B1A8B1A79
:100F50008B1A8B1A8B1A8B1A8B1A8B1A8B1A8B1A69
:100F60008B1A8B1A8B1A8B1A8B1A8B1A8B1A8B1A59
:100F70008B1A8B1A8B1A8B1A8B1A8B1A8B1A8B1A49
:100F8000FEF7FEF7FEF7FEF7FEF78B1A8B1A8B1AA9
:100F90008B1A8B1A8B1A8B1A8B1A8B1A8B1A8B1A29
:100FA0008B1A8B1A8B1A8B1A8B1A8B1A8B1A8B1A19
:100FB0008B1A8B1A8B1A8B1A8B1A8B1A8B1A8B1A09
:100FC0008B1A8B1A8B1A8B1A8B1A8B1A8B1AFEF7A9
:100FD000FEF7FEF7FEF7FEF78B1A8B1A8B1A8B1AA9
:100FE0008B1A8B1A8B1A8B1A8B1A8B1A8B1A8B1AD9
:100FF0008B1A8B1A8B1A8B1A8B1A8B1A8B1A8B1AC9
:101000008B1A8B1A8B1A8B1A8B1A8B1A8B1A8B1AB8
:101010008B1A8B1A8B1A8B1A8B1A8B1A8B1A8B1AA8
:10102000FEF7FEF7FEF7FEF7FEF78B1A8B1A8B1A08
:101030008B1A8B1A8B1A8B1A8B1A8B1A8B1A8B1A88
:101040008B1A8B1A8B1A8B1A8B1A8B1A8B1A8B1A78
:101050008B1A8B1A8B1A8B1A8B1A8B1A8B1A8B1A68
:101060008B1A8B1A8B1A8B1A8B1A8B1A8B1AFEF708
:10107000FEF7FEF7FEF7FEF78B1A8B1A8B1A8B1A08
:101080008B1A8B1A8B1A8B1A8B1A8B1A8B1A8B1A38
:101090008B1A8B1A8B1A8B1A8B1A8B1A8B1A8B1A28
:1010A0008B1A8B1A8B1A8B1A8B1A8B1A8B1A8B1A18
:1010B0008B1A8B1A8B1A8B1A8B1A8B1A8B1A8B1A08
:1010C000FEF7FEF7FEF7FEF7FEF78B1A8B1A8B1A68
:1010D0008B1A8B1A8B1A8B1A8B1A8B1A8B1A8B1AE8
:1010E0008B1A8B1A8B1A8B1A8B1A8B1A8B1A8B1AD8
:1010F0008B1A8B1A8B1A8B1A8B1A8B1A8B1A8B1AC8
:101100008B1A8B1A8B1A8B1A8B1A8B1A8B1AFEF767
:10111000FEF7FEF7FEF7FEF78B1A8B1A8B1A8B1A67
:101120008B1A8B1A8B1A8B1A8B1A8B1A8B1A8B1A97
:101130008B1A8B1A8B1A8B1A8B1A8B1A8B1A8B1A87
:101140008B1A8B1A8B1A8B1A8B1A8B1A8B1A8B1A77
:101150008B1A8B1A8B1A8B1A8B1A8B1A8B1A8B1A67
:10116000FEF7FEF7FEF7FEF7FEF78B1A8B1A8B1AC7
:101170008B1A8B1A8B1A8B1A8B1A8B1A8B1A8B1A47
:101180008B1A8B1A8B1A8B1A8B1A8B1A8B1A8B1A37
:101190008B1A8B1A8B1A8B1A8B1A8B1A8B1A8B1A27
:1011A0008B1A8B1A8B1A8B1A8B1A8B1A8B1AFEF7C7
:1011B000FEF7FEF7FEF7FEF78B1A8B1A8B1A8B1AC7
:1011C0008B1A8B1A8B1A8B1A8B1A8B1A8B1A8B1AF7
:1011D0008B1A8B1A8B1A8B1A8B1A8B1A8B1A8B1AE7
:1011E0008B1A8B1A8B1A8B1A8B1A8B1A8B1A8B1AD7
:1011F0008B1A8B1A8B1A8B1A8B1A8B1A8B1A8B1AC7
:10120000FEF7FEF7FEF7FEF7FEF78B1A8B1A8B1A26
:101210008B1A8B1A8B1A8B1A8B1A8B1A8B1A8B1AA6
:101220008B1A8B1A8B1A8B1A8B1A8B1A8B1A8B1A96
:101230008B1A8B1A8B1A8B1A8B1A8B1A8B1A8B1A86
:101240008B1A8B1A8B1A8B1A8B1A8B1A8B1AFEF726
:10125000FEF7FEF7FEF7FEF78B1A8B1A8B1A8B1A26
:101260008B1A8B1A8B1A8B1A8B1A8B1A8B1A8B1A56
:101270008B1A8B1A8B1A8B1A8B1A8B1A8B1A8B1A46
:101280008B1A8B1A8B1A8B1A8B1A8B1A8B1A8B1A36
:101290008B1A8B1A8B1A8B1A8B1A8B1A8B1A8B1A26
:1012A000FEF7FEF7FEF7FEF7FEF78B1A8B1A8B1A86
:1012B0008B1A8B1A8B1A8B1A8B1A8B1A8B1A8B1A06
:1012C0008B1A8B1A8B1A8B1A8B1A8B1A8B1A8B1AF6
:1012D0008B1A8B1A8B1A8B1A8B1A8B1A8B1A8B1AE6
:1012E0008B1A8B1A8B1A8B1A8B1A8B1A8B1AFEF786
:1012F000FEF7FEF7FEF7FEF78B1A8B1A8B1A8B1A86
:101300008B1A8B1A8B1A8B1A8B1A8B1A8B1A8B1AB5
:101310008B1A8B1A8B1A8B1A8B1A8B1A8B1A8B1AA5
:101320008B1A8B1A8B1A8B1A8B1A8B1A8B1A8B1A95
:101330008B1A8B1A8B1A8B1A8B1A8B1A8B1A8B1A85
:10134000FEF7FEF7FEF7FEF7FEF78B1A8B1A8B1AE5
:101350008B1A8B1A8B1A8B1A8B1A8B1A8B1A8B1A65
:101360008B1A8B1A8B1A8B1A8B1A8B1A8B1A8B1A55
:101370008B1A8B1A8B1A8B1A8B1A8B1A8B1A8B1A45
:101380008B1A8B1A8B1A8B1A8B1A8B1A8B1AFEF7E5
:10139000FEF7FEF7FEF7FEF78B1A8B1A8B1A8B1AE5
:1013A0008B1A8B1A8B1A8B1A8B1A8B1A8B1A8B1A15
:1013B0008B1A8B1A8B1A8B1A8B1A8B1A8B1A8B1A05
:1013C0008B1A8B1A8B1A8B1A8B1A8B1A8B1A8B1AF5
:1013D0008B1A8B1A8B1A8B1A8B1A8B1A8B1A8B1AE5
:1013E000FEF7FEF7FEF7FEF7FEF78B1A8B1A8B1A45
:1013F0008B1A8B1A8B1A8B1A8B1A8B1A8B1A8B1AC5
:101400008B1A8B1A8B1A8B1A8B1A8B1A8B1A8B1AB4
:101410008B1A8B1A8B1A8B1A8B1A8B1A8B1A8B1AA4
:101420008B1A8B1A8B1A8B1A8B1A8B1A8B1AFEF744
:10143000FEF7FEF7FEF7FEF78B1A8B1A8B1A8B1A44
:101440008B1A8B1A8B1A8B1A8B1A8B1A8B1A8B1A74
:101450008B1A8B1A8B1A8B1A8B1A8B1A8B1A8B1A64
:101460008B1A8B1A8B1A8B1A8B1A8B1A8B1A8B1A54
:101470008B1A8B1A8B1A8B1A8B1A8B1A8B1A8B1A44
:10148000FEF7FEF7FEF7FEF7FEF78B1A8B1A8B1AA4
:101490008B1A8B1A8B1A8B1A8B1A8B1A8B1A8B1A24
:1014A0008B1A8B1A8B1A8B1A8B1A8B1A8B1A8B1A14
:1014B0008B1A8B1A8B1A8B1A8B1A8B1A8B1A8B1A04
:1014C0008B1A8B1A8B1A8B1A8B1A8B1A8B1AFEF7A4
:1014D000FEF7FEF7FEF7FEF78B1A8B1A8B1A8B1AA4
:1014E0008B1A8B1A8B1A8B1A8B1A8B1A8B1A8B1AD4
:1014F0008B1A8B1A8B1A8B1A8B1A8B1A8B1A8B1AC4
:101500008B1A8B1A8B1A8B1A8B1A8B1A8B1A8B1AB3
:101510008B1A8B1A8B1A8B1A8B1A8B1A8B1A8B1AA3
:10152000FEF7FEF7FEF7FEF7FEF78B1A8B1A8B1A03
:101530008B1A8B1A8B1A8B1A8B1A8B1A8B1A8B1A83
:101540008B1A8B1A8B1A8B1A8B1A8B1A8B1A8B1A73
:101550008B1A8B1A8B1A8B1A8B1A8B1A8B1A8B1A63
:101560008B1A8B1A8B1A8B1A8B1A8B1A8B1AFEF703
:10157000FEF7FEF7FEF7FEF78B1A8B1A8B1A8B1A03
:101580008B1A8B1A8B1A8B1A8B1A8B1A8B1A8B1A33
:101590008B1A8B1A8B1A8B1A8B1A8B1A8B1A8B1A23
:1015A0008B1A8B1A8B1A8B1A8B1A8B1A8B1A8B1A13
:1015B0008B1A8B1A8B1A8B1A8B1A8B1A8B1A8B1A03
:1015C000FEF7FEF7FEF7FEF7FEF78B1A8B1A8B1A63
:1015D0008B1A8B1A8B1A8B1A8B1A8B1A8B1A8B1AE3
:1015E0008B1A8B1A8B1A8B1A8B1A8B1A8B1A8B1AD3
:1015F0008B1A8B1A8B1A8B1A8B1A8B1A8B1A8B1AC3
:101600008B1A8B1A8B1A8B1A8B1A8B1A8B1AFEF762
:10161000FEF7FEF7FEF7FEF78B1A8B1A8B1A8B1A62
:101620008B1A8B1A8B1A8B1A8B1A8B1A8B1A8B1A92
:101630008B1A8B1A8B1A8B1A8B1A8B1A8B1A8B1A82
:101640008B1A8B1A8B1A8B1A8B1A8B1A8B1A8B1A72
:101650008B1A8B1A8B1A8B1A8B1A8B1A8B1A8B1A62
:10166000FEF7FEF7FEF7FEF7FEF78B1A8B1A8B1AC2
:101670008B1A8B1A8B1A8B1A8B1A8B1A8B1A8B1A42
:101680008B1A8B1A8B1A8B1A8B1A8B1A8B1A8B1A32
:101690008B1A8B1A8B1A8B1A8B1A8B1A8B1A8B1A22
:1016A0008B1A8B1A8B1A8B1A8B1A8B1A8B1AFEF7C2
:1016B000FEF7FEF7FEF7FEF78B1A8B1A8B1A8B1AC2
:1016C0008B1A8B1A8B1A8B1A8B1A8B1A8B1A8B1AF2
:1016D0008B1A8B1A8B1A8B1A8B1A8B1A8B1A8B1AE2
:1016E0008B1A8B1A8B1A8B1A8B1A8B1A8B1A8B1AD2
:1016F0008B1A8B1A8B1A8B1A8B1A8B1A8B1A8B1AC2
:10170000FEF7FEF7FEF7FEF7FEF78B1A8B1A8B1A21
:101710008B1A8B1A8B1A8B1A8B1A8B1A8B1A8B1AA1
:101720008B1A8B1A8B1A8B1A8B1A8B1A8B1A8B1A91
:101730008B1A8B1A8B1A8B1A8B1A8B1A8B1A8B1A81
:101740008B1A8B1A8B1A8B1A8B1A8B1A8B1AFEF721
:10175000FEF7FEF7FEF7FEF78B1A8B1A8B1A8B1A21
:101760008B1A8B1A8B1A8B1A8B1A8B1A8B1A8B1A51
:101770008B1A8B1A8B1A8B1A8B1A8B1A8B1A8B1A41
:101780008B1A8B1A8B1A8B1A8B1A8B1A8B1A8B1A31
:101790008B1A8B1A8B1A8B1A8B1A8B1A8B1A8B1A21
:1017A000FEF7FEF7FEF7FEF7FEF78B1A8B1A8B1A81
:1017B0008B1A8B1A8B1A8B1A8B1A8B1A8B1A8B1A01
:1017C0008B1A8B1A8B1A8B1A8B1A8B1A8B1A8B1AF1
:1017D0008B1A8B1A8B1A8B1A8B1A8B1A8B1A8B1AE1
:1017E0008B1A8B1A8B1A8B1A8B1A8B1A8B1AFEF781
:1017F000FEF7FEF7FEF7FEF78B1A8B1A8B1A8B1A81
:101800008B1A8B1A8B1A8B1A8B1A8B1A8B1A8B1AB0
:101810008B1A8B1A8B1A8B1A8B1A8B1A8B1A8B1AA0
:101820008B1A8B1A8B1A8B1A8B1A8B1A8B1A8B1A90
:101830008B1A8B1A8B1A8B1A8B1A8B1A8B1A8B1A80
:10184000FEF7FEF7FEF7FEF7FEF78B1A8B1A8B1AE0
:101850008B1A8B1A8B1A8B1A8B1A8B1A8B1A8B1A60
:101860008B1A8B1A8B1A8B1A8B1A8B1A8B1A8B1A50
:101870008B1A8B1A8B1A8B1A8B1A8B1A8B1A8B1A40
:101880008B1A8B1A8B1A8B1A8B1A8B1A8B1AFEF7E0
:10189000FEF7FEF7FEF7FEF78B1A8B1A8B1A8B1AE0
:1018A0008B1A8B1A8B1A8B1A8B1A8B1A8B1A8B1A10
:1018B0008B1A8B1A8B1A8B1A8B1A8B1A8B1A8B1A00
:1018C0008B1A8B1A8B1A8B1A8B1A8B1A8B1A8B1AF0
:1018D0008B1A8B1A8B1A8B1A8B1A8B1A8B1A8B1AE0
:1018E000FEF7FEF7FEF7FEF7FEF78B1A8B1A8B1A40
:1018F0008B1A8B1A8B1A8B1A8B1A8B1A8B1A8B1AC0
:101900008B1A8B1A8B1A8B1A8B1A8B1A8B1A8B1AAF
:101910008B1A8B1A8B1A8B1A8B1A8B1A8B1A8B1A9F
:101920008B1A8B1A8B1A8B1A8B1A8B1A8B1AFEF73F
:10193000FEF7FEF7FEF7FEF78B1A8B1A8B1A8B1A3F
:101940008B1A8B1A8B1A8B1A8B1A8B1A8B1A8B1A6F
:101950008B1A8B1A8B1A8B1A8B1A8B1A8B1A8B1A5F
:101960008B1A8B1A8B1A8B1A8B1A8B1A8B1A8B1A4F
:101970008B1A8B1A8B1A8B1A8B1A8B1A8B1A8B1A3F
:10198000FEF7FEF7FEF7FEF7FEF78B1A8B1A8B1A9F
:101990008B1A8B1A8B1A8B1A8B1A8B1A8B1A8B1A1F
:1019A0008B1A8B1A8B1A8B1A8B1A8B1A8B1A8B1A0F
:1019B0008B1A8B1A8B1A8B1A8B1A8B1A8B1A8B1AFF
:1019C0008B1A8B1A8B1A8B1A8B1A8B1A8B1AFEF79F
:1019D000FEF7FEF7FEF7FEF78B1A8B1A8B1A8B1A9F
:1019E0008B1A8B1A8B1A8B1A8B1A8B1A8B1A8B1ACF
:1019F0008B1A8B1A8B1A8B1A8B1A8B1A8B1A8B1ABF
:101A00008B1A8B1A8B1A8B1A8B1A8B1A8B1A8B1AAE
:101A10008B1A8B1A8B1A8B1A8B1A8B1A8B1A8B1A9E
:101A2000FEF7FEF7FEF7FEF7FEF78B1A8B1A8B1AFE
:101A30008B1A8B1A8B1A8B1A8B1A8B1A8B1A8B1A7E
:101A40008B1A8B1A8B1A8B1A8B1A8B1A8B1A8B1A6E
:101A50008B1A8B1A8B1A8B1A8B1A8B1A8B1A8B1A5E
:101A60008B1A8B1A8B1A8B1A8B1A8B1A8B1AFEF7FE
:101A7000FEF7FEF7FEF7FEF78B1A8B1A8B1A8B1AFE
:101A80008B1A8B1A8B1A8B1A8B1A8B1A8B1A8B1A2E
:101A90008B1A8B1A8B1A8B1A8B1A8B1A8B1A8B1A1E
:101AA0008B1A8B1A8B1A8B1A8B1A8B1A8B1A8B1A0E
:101AB0008B1A8B1A8B1A8B1A8B1A8B1A8B1A8B1AFE
:101AC000FEF7FEF7FEF7FEF7FEF78B1A8B1A8B1A5E
:101AD0008B1A8B1A8B1A8B1A8B1A8B1A8B1A8B1ADE
:101AE0008B1A8B1A8B1A8B1A8B1A8B1A8B1A8B1ACE
:101AF0008B1A8B1A8B1A8B1A8B1A8B1A8B1A8B1ABE
:101B00008B1A8B1A8B1A8B1A8B1A8B1A8B1AFEF75D
:101B1000FEF7FEF7FEF7FEF78B1A8B1A8B1A8B1A5D
:101B20008B1A8B1A8B1A8B1A8B1A8B1A8B1A8B1A8D
:101B30008B1A8B1A8B1A8B1A8B1A8B1A8B1A8B1A7D
:101B40008B1A8B1A8B1A8B1A8B1A8B1A8B1A8B1A6D
:101B50008B1A8B1A8B1A8B1A8B1A8B1A8B1A8B1A5D
:101B6000FEF7FEF7FEF7FEF7FEF78B1A8B1A8B1ABD
:101B70008B1A8B1A8B1A8B1A8B1A8B1A8B1A8B1A3D
:101B80008B1A8B1A8B1A8B1A8B1A8B1A8B1A8B1A2D
:101B90008B1A8B1A8B1A8B1A8B1A8B1A8B1A8B1A1D
:101BA0008B1A8B1A8B1A8B1A8B1A8B1A8B1AFEF7BD
:101BB000FEF7FEF7FEF7FEF78B1A8B1A8B1A8B1ABD
:101BC0008B1A8B1A8B1A8B1A8B1A8B1A8B1A8B1AED
:101BD0008B1A8B1A8B1A8B1A8B1A8B1A8B1A8B1ADD
:101BE0008B1A8B1A8B1A8B1A8B1A8B1A8B1A8B1ACD
:101BF0008B1A8B1A8B1A8B1A8B1A8B1A8B1A8B1ABD
:101C0000FEF7FEF7FEF7FEF7FEF78B1A8B1A8B1A1C
:101C10008B1A8B1A8B1A8B1A8B1A8B1A8B1A8B1A9C
:101C20008B1A8B1A8B1A8B1A8B1A8B1A8B1A8B1A8C
:101C30008B1A8B1A8B1A8B1A8B1A8B1A8B1A8B1A7C
:101C40008B1A8B1A8B1A8B1A8B1A8B1A8B1AFEF71C
:101C5000FEF7FEF7FEF7FEF78B1A8B1A8B1A8B1A1C
:101C60008B1A8B1A8B1A8B1A8B1A8B1A8B1A8B1A4C
:101C70008B1A8B1A8B1A8B1A8B1A8B1A8B1A8B1A3C
:101C80008B1A8B1A8B1A8B1A8B1A8B1A8B1A8B1A2C
:101C90008B1A8B1A8B1A8B1A8B1A8B1A8B1A8B1A1C
:101CA000FEF7FEF7FEF7FEF7FEF78B1A8B1A8B1A7C
:101CB0008B1A8B1A8B1A8B1A8B1A8B1A8B1A8B1AFC
:101CC0008B1A8B1A8B1A8B1A8B1A8B1A8B1A8B1AEC
:101CD0008B1A8B1A8B1A8B1A8B1A8B1A8B1A8B1ADC
:101CE0008B1A8B1A8B1A8B1A8B1A8B1A8B1AFEF77C
:101CF000FEF7FEF7FEF7FEF78B1A8B1A8B1A8B1A7C
:101D00008B1A8B1A8B1A8B1A8B1A8B1A8B1A8B1AAB
:101D10008B1A8B1A8B1A8B1A8B1A8B1A8B1A8B1A9B
:101D20008B1A8B1A8B1A8B1A8B1A8B1A8B1A8B1A8B
:101D30008B1A8B1A8B1A8B1A8B1A8B1A8B1A8B1A7B
:101D4000FEF7FEF7FEF7FEF7FEF78B1A8B1A8B1ADB
:101D50008B1A8B1A8B1A8B1A8B1A8B1A8B1A8B1A5B
:101D60008B1A8B1A8B1A8B1A8B1A8B1A8B1A8B1A4B
:101D70008B1A8B1A8B1A8B1A8B1A8B1A8B1A8B1A3B
:101D80008B1A8B1A8B1A8B1A8B1A8B1A8B1AFEF7DB
:101D9000FEF7FEF7FEF7FEF78B1A8B1A8B1A8B1ADB
:101DA0008B1A8B1A8B1A8B1A8B1A8B1A8B1A8B1A0B
:101DB0008B1A8B1A8B1A8B1A8B1A8B1A8B1A8B1AFB
:101DC0008B1A8B1A8B1A8B1A8B1A8B1A8B1A8B1AEB
:101DD0008B1A8B1A8B1A8B1A8B1A8B1A8B1A8B1ADB
:101DE000FEF7FEF7FEF7FEF7FEF78B1A8B1A8B1A3B
:101DF0008B1A8B1A8B1A8B1A8B1A8B1A8B1A8B1ABB
:101E00008B1A8B1A8B1A8B1A8B1A8B1A8B1A8B1AAA
:101E10008B1A8B1A8B1A8B1A8B1A8B1A8B1A8B1A9A
:101E20008B1A8B1A8B1A8B1A8B1A8B1A8B1AFEF73A
:101E3000FEF7FEF7FEF7FEF78B1A8B1A8B1A8B1A3A
:101E40008B1A8B1A8B1A8B1A8B1A8B1A8B1A8B1A6A
:101E50008B1A8B1A8B1A8B1A8B1A8B1A8B1A8B1A5A
:101E60008B1A8B1A8B1A8B1A8B1A8B1A8B1A8B1A4A
:101E70008B1A8B1A8B1A8B1A8B1A8B1A8B1A8B1A3A
:101E8000FEF7FEF7FEF7FEF7FEF78B1A8B1A8B1A9A
:101E90008B1A8B1A8B1A8B1A8B1A8B1A8B1A8B1A1A
:101EA0008B1A8B1A8B1A8B1A8B1A8B1A8B1A8B1A0A
:101EB0008B1A8B1A8B1A8B1A8B1A8B1A8B1A8B1AFA
:101EC0008B1A8B1A8B1A8B1A8B1A8B1A8B1AFEF79A
:101ED000FEF7FEF7FEF7FEF78B1A8B1A8B1A8B1A9A
:101EE0008B1A8B1A8B1A8B1A8B1A8B1A8B1A8B1ACA
:101EF0008B1A8B1A8B1A8B1A8B1A8B1A8B1A8B1ABA
:101F00008B1A8B1A8B1A8B1A8B1A8B1A8B1A8B1AA9
:101F10008B1A8B1A8B1A8B1A8B1A8B1A8B1A8B1A99
:101F2000FEF7FEF7FEF7FEF7FEF78B1A8B1A8B1AF9
:101F30008B1A8B1A8B1A8B1A8B1A8B1A8B1A8B1A79
:101F40008B1A8B1A8B1A8B1A8B1A8B1A8B1A8B1A69
:101F50008B1A8B1A8B1A8B1A8B1A8B1A8B1A8B1A59
:101F60008B1A8B1A8B1A8B1A8B1A8B1A8B1AFEF7F9
:101F7000FEF7FEF7FEF7FEF78B1A8B1A8B1A8B1AF9
:101F80008B1A8B1A8B1A8B1A8B1A8B1A8B1A8B1A29
:101F90008B1A8B1A8B1A8B1A8B1A8B1A8B1A8B1A19
:101FA0008B1A8B1A8B1A8B1A8B1A8B1A8B1A8B1A09
:101FB0008B1A8B1A8B1A8B1A8B1A8B1A8B1A8B1AF9
:101FC000FEF7FEF7FEF7FEF7FEF78B1A8B1A8B1A59
:101FD0008B1A8B1A8B1A8B1A8B1A8B1A8B1A8B1AD9
:101FE0008B1A8B1A8B1A8B1A8B1A8B1A8B1A8B1AC9
:101FF0008B1A8B1A8B1A8B1A8B1A8B1A8B1A8B1AB9
:102000008B1A8B1A8B1A8B1A8B1A8B1A8B1AFEF758
:10201000FEF7FEF7FEF7FEF78B1A8B1A8B1A8B1A58
:102020008B1A8B1A8B1A8B1A8B1A8B1A8B1A8B1A88
:102030008B1A8B1A8B1A8B1A8B1A8B1A8B1A8B1A78
:102040008B1A8B1A8B1A8B1A8B1A8B1A8B1A8B1A68
:102050008B1A8B1A8B1A8B1A8B1A8B1A8B1A8B1A58
:10206000FEF7FEF7FEF7FEF7FEF78B1A8B1A8B1AB8
:102070008B1A8B1A8B1A8B1A8B1A8B1A8B1A8B1A38
:102080008B1A8B1A8B1A8B1A8B1A8B1A8B1A8B1A28
:102090008B1A8B1A8B1A8B1A8B1A8B1A8B1A8B1A18
:1020A0008B1A8B1A8B1A8B1A8B1A8B1A8B1AFEF7B8
:1020B000FEF7FEF7FEF7FEF78B1A8B1A8B1A8B1AB8
:1020C0008B1A8B1A8B1A8B1A8B1A8B1A8B1A8B1AE8
:1020D0008B1A8B1A8B1A8B1A8B1A8B1A8B1A8B1AD8
:1020E0008B1A8B1A8B1A8B1A8B1A8B1A8B1A8B1AC8
:1020F0008B1A8B1A8B1A8B1A8B1A8B1A8B1A8B1AB8
:10210000FEF7FEF7FEF7FEF7FEF78B1A8B1A8B1A17
:102110008B1A8B1A8B1A8B1A8B1A8B1A8B1A8B1A97
:102120008B1A8B1A8B1A8B1A8B1A8B1A8B1A8B1A87
:102130008B1A8B1A8B1A8B1A8B1A8B1A8B1A8B1A77
:102140008B1A8B1A8B1A8B1A8B1A8B1A8B1AFEF717
:10215000FEF7FEF7FEF7FEF78B1A8B1A8B1A8B1A17
:102160008B1A8B1A8B1A8B1A8B1A8B1A8B1A8B1A47
:102170008B1A8B1A8B1A8B1A8B1A8B1A8B1A8B1A37
:102180008B1A8B1A8B1A8B1A8B1A8B1A8B1A8B1A27
:102190008B1A8B1A8B1A8B1A8B1A8B1A8B1A8B1A17
:1021A000FEF7FEF7FEF7FEF7FEF78B1A8B1A8B1A77
:1021B0008B1A8B1A8B1A8B1A8B1A8B1A8B1A8B1AF7
:1021C0008B1A8B1A8B1A8B1A8B1A8B1A8B1A8B1AE7
:1021D0008B1A8B1A8B1A8B1A8B1A8B1A8B1A8B1AD7
:1021E0008B1A8B1A8B1A8B1A8B1A8B1A8B1AFEF777
:1021F000FEF7FEF7FEF7FEF78B1A8B1A8B1A8B1A77
:102200008B1A8B1A8B1A8B1A8B1A8B1A8B1A8B1AA6
:102210008B1A8B1A8B1A8B1A8B1A8B1A8B1A8B1A96
:102220008B1A8B1A8B1A8B1A8B1A8B1A8B1A8B1A86
:102230008B1A8B1A8B1A8B1A8B1A8B1A8B1A8B1A76
:10224000FEF7FEF7FEF7FEF7FEF78B1A8B1A8B1AD6
:102250008B1A8B1A8B1A8B1A8B1A8B1A8B1A8B1A56
:102260008B1A8B1A8B1A8B1A8B1A8B1A8B1A8B1A46
:102270008B1A8B1A8B1A8B1A8B1A8B1A8B1A8B1A36
:102280008B1A8B1A8B1A8B1A8B1A8B1A8B1AFEF7D6
:10229000FEF7FEF7FEF7FEF78B1A8B1A8B1A8B1AD6
:1022A0008B1A8B1A8B1A8B1A8B1A8B1A8B1A8B1A06
:1022B0008B1A8B1A8B1A8B1A8B1A8B1A8B1A8B1AF6
:1022C0008B1A8B1A8B1A8B1A8B1A8B1A8B1A8B1AE6
:1022D0008B1A8B1A8B1A8B1A8B1A8B1A8B1A8B1AD6
:1022E000FEF7FEF7FEF7FEF7FEF78B1A8B1A8B1A36
:1022F0008B1A8B1A8B1A8B1A8B1A8B1A8B1A8B1AB6
:102300008B1A8B1A8B1A8B1A8B1A8B1A8B1A8B1AA5
:102310008B1A8B1A8B1A8B1A8B1A8B1A8B1A8B1A95
:102320008B1A8B1A8B1A8B1A8B1A8B1A8B1AFEF735
:10233000FEF7FEF7FEF7FEF78B1A8B1A8B1A8B1A35
:102340008B1A8B1A8B1A8B1A8B1A8B1A8B1A8B1A65
:102350008B1A8B1A8B1A8B1A8B1A8B1A8B1A8B1A55
:102360008B1A8B1A8B1A8B1A8B1A8B1A8B1A8B1A45
:102370008B1A8B1A8B1A8B1A8B1A8B1A8B1A8B1A35
:10238000FEF7FEF7FEF7FEF7FEF78B1A8B1A8B1A95
:102390008B1A8B1A8B1A8B1A8B1A8B1A8B1A8B1A15
:1023A0008B1A8B1A8B1A8B1A8B1A8B1A8B1A8B1A05
:1023B0008B1A8B1A8B1A8B1A8B1A8B1A8B1A8B1AF5
:1023C0008B1A8B1A8B1A8B1A8B1A8B1A8B1AFEF795
:1023D000FEF7FEF7FEF7FEF78B1A8B1A8B1A8B1A95
:1023E0008B1A8B1A8B1A8B1A8B1A8B1A8B1A8B1AC5
:1023F0008B1A8B1A8B1A8B1A8B1A8B1A8B1A8B1AB5
:102400008B1A8B1A8B1A8B1A8B1A8B1A8B1A8B1AA4
:102410008B1A8B1A8B1A8B1A8B1A8B1A8B1A8B1A94
:10242000FEF7FEF7FEF7FEF7FEF78B1A8B1A8B1AF4
:102430008B1A8B1A8B1A8B1A8B1A8B1A8B1A8B1A74
:102440008B1A8B1A8B1A8B1A8B1A8B1A8B1A8B1A64
:102450008B1A8B1A8B1A8B1A8B1A8B1A8B1A8B1A54
:102460008B1A8B1A8B1A8B1A8B1A8B1A8B1AFEF7F4
:10247000FEF7FEF7FEF7FEF78B1A8B1A8B1A8B1AF4
:102480008B1A8B1A8B1A8B1A8B1A8B1A8B1A8B1A24
:102490008B1A8B1A8B1A8B1A8B1A8B1A8B1A8B1A14
:1024A0008B1A8B1A8B1A8B1A8B1A8B1A8B1A8B1A04
:1024B0008B1A8B1A8B1A8B1A8B1A8B1A8B1A8B1AF4
:1024C000FEF7FEF7FEF7FEF7FEF78B1A8B1A8B1A54
:1024D0008B1A8B1A8B1A8B1A8B1A8B1A8B1A8B1AD4
:1024E0008B1A8B1A8B1A8B1A8B1A8B1A8B1A8B1AC4
:1024F0008B1A8B1A8B1A8B1A8B1A8B1A8B1A8B1AB4
:102500008B1A8B1A8B1A8B1A8B1A8B1A8B1AFEF753
:10251000FEF7FEF7FEF7FEF78B1A8B1A8B1A8B1A53
:102520008B1A8B1A8B1A8B1A8B1A8B1A8B1A8B1A83
:102530008B1A8B1A8B1A8B1A8B1A8B1A8B1A8B1A73
:102540008B1A8B1A8B1A8B1A8B1A8B1A8B1A8B1A63
:102550008B1A8B1A8B1A8B1A8B1A8B1A8B1A8B1A53
:10256000FEF7FEF7FEF7FEF7FEF78B1A8B1A8B1AB3
:102570008B1A8B1A8B1A8B1A8B1A8B1A8B1A8B1A33
:102580008B1A8B1A8B1A8B1A8B1A8B1A8B1A8B1A23
:102590008B1A8B1A8B1A8B1A8B1A8B1A8B1A8B1A13
:1025A0008B1A8B1A8B1A8B1A8B1A8B1A8B1AFEF7B3
:1025B000FEF7FEF7FEF7FEF78B1A8B1A8B1A8B1AB3
:1025C0008B1A8B1A8B1A8B1A8B1A8B1A8B1A8B1AE3
:1025D0008B1A8B1A8B1A8B1A8B1A8B1A8B1A8B1AD3
:1025E0008B1A8B1A8B1A8B1A8B1A8B1A8B1A8B1AC3
:1025F0008B1A8B1A8B1A8B1A8B1A8B1A8B1A8B1AB3
:10260000FEF7FEF7FEF7FEF7FEF78B1A8B1A8B1A12
:102610008B1A8B1A8B1A8B1A8B1A8B1A8B1A8B1A92
:102620008B1A8B1A8B1A8B1A8B1A8B1A8B1A8B1A82
:102630008B1A8B1A8B1A8B1A8B1A8B1A8B1A8B1A72
:102640008B1A8B1A8B1A8B1A8B1A8B1A8B1AFEF712
:10265000FEF7FEF7FEF7FEF78B1A8B1A8B1A8B1A12
:102660008B1A8B1A8B1A8B1A8B1A8B1A8B1A8B1A42
:102670008B1A8B1A8B1A8B1A8B1A8B1A8B1A8B1A32
:102680008B1A8B1A8B1A8B1A8B1A8B1A8B1A8B1A22
:102690008B1A8B1A8B1A8B1A8B1A8B1A8B1A8B1A12
:1026A000FEF7FEF7FEF7FEF7FEF78B1A8B1A8B1A72
:1026B0008B1A8B1A8B1A8B1A8B1A8B1A8B1A8B1AF2
:1026C0008B1A8B1A8B1A8B1A8B1A8B1A8B1A8B1AE2
:1026D0008B1A8B1A8B1A8B1A8B1A8B1A8B1A8B1AD2
:1026E0008B1A8B1A8B1A8B1A8B1A8B1A8B1AFEF772
:1026F000FEF7FEF7FEF7FEF78B1A8B1A8B1A8B1A72
:102700008B1A8B1A8B1A8B1A8B1A8B1A8B1A8B1AA1
:102710008B1A8B1A8B1A8B1A8B1A8B1A8B1A8B1A91
:102720008B1A8B1A8B1A8B1A8B1A8B1A8B1A8B1A81
:102730008B1A8B1A8B1A8B1A8B1A8B1A8B1A8B1A71
:10274000FEF7FEF7FEF7FEF7FEF78B1A8B1A8B1AD1
:102750008B1A8B1A8B1A8B1A8B1A8B1A8B1A8B1A51
:102760008B1A8B1A8B1A8B1A8B1A8B1A8B1A8B1A41
:102770008B1A8B1A8B1A8B1A8B1A8B1A8B1A8B1A31
:102780008B1A8B1A8B1A8B1A8B1A8B1A8B1AFEF7D1
:10279000FEF7FEF7FEF7FEF78B1A8B1A8B1A8B1AD1
:1027A0008B1A8B1A8B1A8B1A8B1A8B1A8B1A8B1A01
:1027B0008B1A8B1A8B1A8B1A8B1A8B1A8B1A8B1AF1
:1027C0008B1A8B1A8B1A8B1A8B1A8B1A8B1A8B1AE1
:1027D0008B1A8B1A8B1A8B1A8B1A8B1A8B1A8B1AD1
:1027E000FEF7FEF7FEF7FEF7FEF78B1A8B1A8B1A31
:1027F0008B1A8B1A8B1A8B1A8B1A8B1A8B1A8B1AB1
:102800008B1A8B1A8B1A8B1A8B1A8B1A8B1A8B1AA0
:102810008B1A8B1A8B1A8B1A8B1A8B1A8B1A8B1A90
:102820008B1A8B1A8B1A8B1A8B1A8B1A8B1AFEF730
:10283000FEF7FEF7FEF7FEF78B1A8B1A8B1A8B1A30
:102840008B1A8B1A8B1A8B1A8B1A8B1A8B1A8B1A60
:102850008B1A8B1A8B1A8B1A8B1A8B1A8B1A8B1A50
:102860008B1A8B1A8B1A8B1A8B1A8B1A8B1A8B1A40
:102870008B1A8B1A8B1A8B1A8B1A8B1A8B1A8B1A30
:10288000FEF7FEF7FEF7FEF7FEF78B1A8B1A8B1A90
:102890008B1A8B1A8B1A8B1A8B1A8B1A8B1A8B1A10
:1028A0008B1A8B1A8B1A8B1A8B1A8B1A8B1A8B1A00
:1028B0008B1A8B1A8B1A8B1A8B1A8B1A8B1A8B1AF0
:1028C0008B1A8B1A8B1A8B1A8B1A8B1A8B1AFEF790
:1028D000FEF7FEF7FEF7FEF78B1A8B1A8B1A8B1A90
:1028E0008B1A8B1A8B1A8B1A8B1A8B1A8B1A8B1AC0
:1028F0008B1A8B1A8B1A8B1A8B1A8B1A8B1A8B1AB0
:102900008B1A8B1A8B1A8B1A8B1A8B1A8B1A8B1A9F
:102910008B1A8B1A8B1A8B1A8B1A8B1A8B1A8B1A8F
:10292000FEF7FEF7FEF7FEF7FEF78B1A8B1A8B1AEF
:102930008B1A8B1A8B1A8B1A8B1A8B1A8B1A8B1A6F
:102940008B1A8B1A8B1A8B1A8B1A8B1A8B1A8B1A5F
:102950008B1A8B1A8B1A8B1A8B1A8B1A8B1A8B1A4F
:102960008B1A8B1A8B1A8B1A8B1A8B1A8B1AFEF7EF
:10297000FEF7FEF7FEF7FEF78B1A8B1A8B1A8B1AEF
:102980008B1A8B1A8B1A8B1A8B1A8B1A8B1A8B1A1F
:102990008B1A8B1A8B1A8B1A8B1A8B1A8B1A8B1A0F
:1029A0008B1A8B1A8B1A8B1A8B1A8B1A8B1A8B1AFF
:1029B0008B1A8B1A8B1A8B1A8B1A8B1A8B1A8B1AEF
:1029C000FEF7FEF7FEF7FEF7FEF78B1A8B1A8B1A4F
:1029D0008B1A8B1A8B1A8B1A8B1A8B1A8B1A8B1ACF
:1029E0008B1A8B1A8B1A8B1A8B1A8B1A8B1A8B1ABF
:1029F0008B1A8B1A8B1A8B1A8B1A8B1A8B1A8B1AAF
:102A00008B1A8B1A8B1A8B1A8B1A8B1A8B1AFEF74E
:102A1000FEF7FEF7FEF7FEF78B1A8B1A8B1A8B1A4E
:102A20008B1A8B1A8B1A8B1A8B1A8B1A8B1A8B1A7E
:102A30008B1A8B1A8B1A8B1A8B1A8B1A8B1A8B1A6E
:102A40008B1A8B1A8B1A8B1A8B1A8B1A8B1A8B1A5E
:102A50008B1A8B1A8B1A8B1A8B1A8B1A8B1A8B1A4E
:102A6000FEF7FEF7FEF7FEF7FEF78B1A8B1A8B1AAE
:102A70008B1A8B1A8B1A8B1A8B1A8B1A8B1A8B1A2E
:102A80008B1A8B1A8B1A8B1A8B1A8B1A8B1A8B1A1E
:102A90008B1A8B1A8B1A8B1A8B1A8B1A8B1A8B1A0E
:102AA0008B1A8B1A8B1A8B1A8B1A8B1A8B1AFEF7AE
:102AB000FEF7FEF7FEF7FEF78B1A8B1A8B1A8B1AAE
:102AC0008B1A8B1A8B1A8B1A8B1A8B1A8B1A8B1ADE
:102AD0008B1A8B1A8B1A8B1A8B1A8B1A8B1A8B1ACE
:102AE0008B1A8B1A8B1A8B1A8B1A8B1A8B1A8B1ABE
:102AF0008B1A8B1A8B1A8B1A8B1A8B1A8B1A8B1AAE
:102B0000FEF7FEF7FEF7FEF7FEF78B1A8B1A8B1A0D
:102B10008B1A8B1A8B1A8B1A8B1A8B1A8B1A8B1A8D
:102B20008B1A8B1A8B1A8B1A8B1A8B1A8B1A8B1A7D
:102B30008B1A8B1A8B1A8B1A8B1A8B1A8B1A8B1A6D
:102B40008B1A8B1A8B1A8B1A8B1A8B1A8B1AFEF70D
:102B5000FEF7FEF7FEF7FEF78B1A8B1A8B1A8B1A0D
:102B60008B1A8B1A8B1A8B1A8B1A8B1A8B1A8B1A3D
:102B70008B1A8B1A8B1A8B1A8B1A8B1A8B1A8B1A2D
:102B80008B1A8B1A8B1A8B1A8B1A8B1A8B1A8B1A1D
:102B90008B1A8B1A8B1A8B1A8B1A8B1A8B1A8B1A0D
:102BA000FEF7FEF7FEF7FEF7FEF78B1A8B1A8B1A6D
:102BB0008B1A8B1A8B1A8B1A8B1A8B1A8B1A8B1AED
:102BC0008B1A8B1A8B1A8B1A8B1A8B1A8B1A8B1ADD
:102BD0008B1A8B1A8B1A8B1A8B1A8B1A8B1A8B1ACD
:102BE0008B1A8B1A8B1A8B1A8B1A8B1A8B1AFEF76D
:102BF000FEF7FEF7FEF7FEF78B1A8B1A8B1A8B1A6D
:102C00008B1A8B1A8B1A8B1A8B1A8B1A8B1A8B1A9C
:102C10008B1A8B1A8B1A8B1A8B1A8B1A8B1A8B1A8C
:102C20008B1A8B1A8B1A8B1A8B1A8B1A8B1A8B1A7C
:102C30008B1A8B1A8B1A8B1A8B1A8B1A8B1A8B1A6C
:102C4000FEF7FEF7FEF7FEF7FEF78B1A8B1A8B1ACC
:102C50008B1A8B1A8B1A8B1A8B1A8B1A8B1A8B1A4C
:102C60008B1A8B1A8B1A8B1A8B1A8B1A8B1A8B1A3C
:102C70008B1A8B1A8B1A8B1A8B1A8B1A8B1A8B1A2C
:102C80008B1A8B1A8B1A8B1A8B1A8B1A8B1AFEF7CC
:102C9000FEF7FEF7FEF7FEF78B1A8B1A8B1A8B1ACC
:102CA0008B1A8B1A8B1A8B1A8B1A8B1A8B1A8B1AFC
:102CB0008B1A8B1A8B1A8B1A8B1A8B1A8B1A8B1AEC
:102CC0008B1A8B1A8B1A8B1A8B1A8B1A8B1A8B1ADC
:102CD0008B1A8B1A8B1A8B1A8B1A8B1A8B1A8B1ACC
:102CE000FEF7FEF7FEF7FEF7FEF78B1A8B1A8B1A2C
:102CF0008B1A8B1A8B1A8B1A8B1A8B1A8B1A8B1AAC
:102D00008B1A8B1A8B1A8B1A8B1A8B1A8B1A8B1A9B
:102D10008B1A8B1A8B1A8B1A8B1A8B1A8B1A8B1A8B
:102D20008B1A8B1A8B1A8B1A8B1A8B1A8B1AFEF72B
:102D3000FEF7FEF7FEF7FEF78B1A8B1A8B1A8B1A2B
:102D40008B1A8B1A8B1A8B1A8B1A8B1A8B1A8B1A5B
:102D50008B1A8B1A8B1A8B1A8B1A8B1A8B1A8B1A4B
:102D60008B1A8B1A8B1A8B1A8B1A8B1A8B1A8B1A3B
:102D70008B1A8B1A8B1A8B1A8B1A8B1A8B1A8B1A2B
:102D8000FEF7FEF7FEF7FEF7FEF78B1A8B1A8B1A8B
:102D90008B1A8B1A8B1A8B1A8B1A8B1A8B1A8B1A0B
:102DA0008B1A8B1A8B1A8B1A8B1A8B1A8B1A8B1AFB
:102DB0008B1A8B1A8B1A8B1A8B1A8B1A8B1A8B1AEB
:102DC0008B1A8B1A8B1A8B1A8B1A8B1A8B1AFEF78B
:102DD000FEF7FEF7FEF7FEF78B1A8B1A8B1A8B1A8B
:102DE0008B1A8B1A8B1A8B1A8B1A8B1A8B1A8B1ABB
:102DF0008B1A8B1A8B1A8B1A8B1A8B1A8B1A8B1AAB
:102E00008B1A8B1A8B1A8B1A8B1A8B1A8B1A8B1A9A
:102E10008B1A8B1A8B1A8B1A8B1A8B1A8B1A8B1A8A
:102E2000FEF7FEF7FEF7FEF7FEF78B1A8B1A8B1AEA
:102E30008B1A8B1A8B1A8B1A8B1A8B1A8B1A8B1A6A
:102E40008B1A8B1A8B1A8B1A8B1A8B1A8B1A8B1A5A
:102E50008B1A8B1A8B1A8B1A8B1A8B1A8B1A8B1A4A
:102E60008B1A8B1A8B1A8B1A8B1A8B1A8B1AFEF7EA
:102E7000FEF7FEF7FEF7FEF78B1A8B1A8B1A8B1AEA
:102E80008B1A8B1A8B1A8B1A8B1A8B1A8B1A8B1A1A
:102E90008B1A8B1A8B1A8B1A8B1A8B1A8B1A8B1A0A
:102EA0008B1A8B1A8B1A8B1A8B1A8B1A8B1A8B1AFA
:102EB0008B1A8B1A8B1A8B1A8B1A8B1A8B1A8B1AEA
:102EC000FEF7FEF7FEF7FEF7FEF78B1A8B1A8B1A4A
:102ED0008B1A8B1A8B1A8B1A8B1A8B1A8B1A8B1ACA
:102EE0008B1A8B1A8B1A8B1A8B1A8B1A8B1A8B1ABA
:102EF0008B1A8B1A8B1A8B1A8B1A8B1A8B1A8B1AAA
:102F00008B1A8B1A8B1A8B1A8B1A8B1A8B1AFEF749
:102F1000FEF7FEF7FEF7FEF78B1A8B1A8B1A8B1A49
:102F20008B1A8B1A8B1A8B1A8B1A8B1A8B1A8B1A79
:102F30008B1A8B1A8B1A8B1A8B1A8B1A8B1A8B1A69
:102F40008B1A8B1A8B1A8B1A8B1A8B1A8B1A8B1A59
:102F50008B1A8B1A8B1A8B1A8B1A8B1A8B1A8B1A49
:102F6000FEF7FEF7FEF7FEF7FEF78B1A8B1A8B1AA9
:102F70008B1A8B1A8B1A8B1A8B1A8B1A8B1A8B1A29
:102F80008B1A8B1A8B1A8B1A8B1A8B1A8B1A8B1A19
:102F90008B1A8B1A8B1A8B1A8B1A8B1A8B1A8B1A09
:102FA0008B1A8B1A8B1A8B1A8B1A8B1A8B1AFEF7A9
:102FB000FEF7FEF7FEF7FEF78B1A8B1A8B1A8B1AA9
:102FC0008B1A8B1A8B1A8B1A8B1A8B1A8B1A8B1AD9
:102FD0008B1A8B1A8B1A8B1A8B1A8B1A8B1A8B1AC9
:102FE0008B1A8B1A8B1A8B1A8B1A8B1A8B1A8B1AB9
:102FF0008B1A8B1A8B1A8B1A8B1A8B1A8B1A8B1AA9
:10300000FEF7FEF7FEF7FEF7FEF78B1A8B1A8B1A08
:103010008B1A8B1A8B1A8B1A8B1A8B1A8B1A8B1A88
:103020008B1A8B1A8B1A8B1A8B1A8B1A8B1A8B1A78
:103030008B1A8B1A8B1A8B1A8B1A8B1A8B1A8B1A68
:103040008B1A8B1A8B1A8B1A8B1A8B1A8B1AFEF708
:10305000FEF7FEF7FEF7FEF78B1A8B1A8B1A8B1A08
:103060008B1A8B1A8B1A8B1A8B1A8B1A8B1A8B1A38
:103070008B1A8B1A8B1A8B1A8B1A8B1A8B1A8B1A28
:103080008B1A8B1A8B1A8B1A8B1A8B1A8B1A8B1A18
:103090008B1A8B1A8B1A8B1A8B1A8B1A8B1A8B1A08
:1030A000FEF7FEF7FEF7FEF7FEF7FEF78B1A8B1A18
:1030B0008B1A8B1A8B1A8B1A8B1A8B1A8B1A8B1AE8
:1030C0008B1A8B1A8B1A8B1A8B1A8B1A8B1A8B1AD8
:1030D0008B1A8B1A8B1A8B1A8B1A8B1A8B1A8B1AC8
:1030E0008B1A8B1A8B1A8B1A8B1A8B1AFEF7FEF718
:1030F000FEF7FEF7FEF7FEF78B1A8B1A8B1A8B1A68
:103100008B1A8B1A8B1A8B1A8B1A8B1A8B1A8B1A97
:103110008B1A8B1A8B1A8B1A8B1A8B1A8B1A8B1A87
:103120008B1A8B1A8B1A8B1A8B1A8B1A8B1A8B1A77
:103130008B1A8B1A8B1A8B1A8B1A8B1A8B1A8B1A67
:10314000FEF7FEF7FEF7FEF7FEF7FEF7FEF78B1A27
:103150008B1A8B1A8B1A8B1A8B1A8B1A8B1A8B1A47
:103160008B1A8B1A8B1A8B1A8B1A8B1A8B1A8B1A37
:103170008B1A8B1A8B1A8B1A8B1A8B1A8B1A8B1A27
:103180008B1A8B1A8B1A8B1A8B1AFEF7FEF7FEF727
:10319000FEF7FEF7FEF7FEF78B1A8B1A8B1A8B1AC7
:1031A0008B1A8B1A8B1A8B1A8B1A8B1A8B1A8B1AF7
:1031B0008B1A8B1A8B1A8B1A8B1A8B1A8B1A8B1AE7
:1031C0008B1A8B1A8B1A8B1A8B1A8B1A8B1A8B1AD7
:1031D0008B1A8B1A8B1A8B1A8B1A8B1A8B1A8B1AC7
:1031E000DFFFFEF7FEF7FEF7FEF7FEF7FEF7FEF74E
:1031F000FEF7FEF7FEF7FEF7FEF7FEF7FEF7FEF727
:10320000FEF7FEF7FEF7FEF7FEF7FEF7FEF7FEF716
:10321000FEF7FEF7FEF7FEF7FEF7FEF7FEF7FEF706
:10322000FEF7FEF7FEF7FEF7FEF7FEF7FEF7FEF7F6
:10323000FEF7FEF7FEF7FEF78B1A8B1A8B1A8B1A26
:103240008B1A8B1A8B1A8B1A8B1A8B1A8B1A8B1A56
:103250008B1A8B1A8B1A8B1A8B1A8B1A8B1A8B1A46
:103260008B1A8B1A8B1A8B1A8B1A8B1A8B1A8B1A36
:103270008B1A8B1A8B1A8B1A8B1A8B1A8B1A8B1A26
:10328000FEF7FEF7FEF7FEF7FEF7FEF7FEF7FEF796
:10329000FEF7FEF7FEF7FEF7FEF7FEF7FEF7FEF786
:1032A000FEF7FEF7FEF7FEF7FEF7FEF7FEF7FEF776
:1032B000FEF7FEF7FEF7FEF7FEF7FEF7FEF7FEF766
:1032C000FEF7FEF7FEF7FEF7FEF7FEF7FEF7FEF756
:1032D000FEF7FEF7FEF7FEF78B1A8B1A8B1A8B1A86
:1032E0008B1A8B1A8B1A8B1A8B1A8B1A8B1A8B1AB6
:1032F0008B1A8B1A8B1A8B1A8B1A8B1A8B1A8B1AA6
:103300008B1A8B1A8B1A8B1A8B1A8B1A8B1A8B1A95
:103310008B1A8B1A8B1A8B1A8B1A8B1A8B1A8B1A85
:103320008B1AFEF7FEF7FEF7FEF7FEF7FEF7FEF745
:10333000FEF7FEF7FEF7FEF7FEF7FEF7FEF7FEF7E5
:10334000FEF7FEF7FEF7FEF7FEF7FEF7FEF7FEF7D5
:10335000FEF7FEF7FEF7FEF7FEF7FEF7FEF7FEF7C5
:10336000FEF7FEF7FEF7FEF7FEF7FEF7FEF7FEF7B5
:10337000FEF7FEF7FEF78B1A8B1A8B1A8B1A8B1A35
:103380008B1A8B1A8B1A8B1A8B1A8B1A8B1A8B1A15
:103390008B1A8B1A8B1A8B1A8B1A8B1A8B1A8B1A05
:1033A0008B1A8B1A8B1A8B1A8B1A8B1A8B1A8B1AF5
:1033B0008B1A8B1A8B1A8B1A8B1A8B1A8B1A8B1AE5
:1033C0008B1A8B1AFEF7FEF7FEF7FEF7FEF7FEF7F5
:1033D000FEF7FEF7FEF7FEF7FEF7FEF7FEF7FEF745
:1033E000FEF7FEF7FEF7FEF7FEF7FEF7FEF7FEF735
:1033F000FEF7FEF7FEF7FEF7FEF7FEF7FEF7FEF725
:10340000FEF7FEF7FEF7FEF7FEF7FEF7FEF7FEF714
:10341000FEF7FEF78B1A8B1A8B1A8B1A8B1A8B1AE4
:103420008B1A8B1A8B1A8B1A8B1A8B1A8B1A8B1A74
:103430008B1A8B1A8B1A8B1A8B1A8B1A8B1A8B1A64
:103440008B1A8B1A8B1A8B1A8B1A8B1A8B1A8B1A54
:103450008B1A8B1A8B1A8B1A8B1A8B1A8B1A8B1A44
:103460008B1A8B1A8B1AFEF7DFFFFEF7FEF7FEF7BB
:10347000FEF7FEF7FEF7FEF7FEF7FEF7FEF7FEF7A4
:10348000FEF7FEF7FEF7FEF7FEF7FEF7FEF7FEF794
:10349000FEF7FEF7FEF7FEF7FEF7FEF7FEF7FEF784
:1034A000FEF7FEF7FEF7FEF7FEF7FEF7FEF7FEF774
:1034B000FEF78B1A8B1A8B1A8B1A8B1A8B1A8B1A94
:1034C0008B1A8B1A8B1A8B1A8B1A8B1A8B1A8B1AD4
:1034D0008B1A8B1A8B1A8B1A8B1A8B1A000000000E
:1034E0000000005F00000003000300143E143E14BF
:1034F000242A7F2A12433308666136495522500038
:1035000005030000001C2241000041221C00140899
:103510003E081408083E080800503000000808085B
:103520000808006060000020100804023E51494570
:103530003E0004027F00426151494622414949361A
:103540001814127F1027454545393E494949320133
:10355000017109073649494936264949493E00362D
:1035600036000000563600000814224100141414DE
:103570001414004122140802015109063E41595514
:103580005E7E0909097E7F494949363E4141412213
:103590007F4141413E7F494949417F090909013E37
:1035A0004141493A7F0808087F00417F410030408F
:1035B00040403F7F081422417F404040407F020C42
:1035C000027F7F0204087F3E4141413E7F09090995
:1035D000061E2121215E7F090909762649494932C3
:1035E00001017F01013F4040403F1F2040201F7FDD
:1035F0002010207F41221C224107087008076151DA
:10360000494543007F4100000204081020000041AA
:103610007F000402010204404040404000010204D7
:103620000020545454787F4444443838444444443B
:10363000384444447F385454541804047E05050823
:103640005454543C7F0804047800447D40002040DA
:10365000443D007F1028440000417F40007C0478F6
:1036600004787C0804047838444444387C141414E6
:1036700008081414147C007C080404485454542092
:1036800004043F44443C4040207C1C2040201C3C1F
:103690004030403C44281028440C5050503C446476
:1036A000544C44000836414100007F00004141363F
:1036B0000800020102040200407A10F35A00A072CE
:1036C0004E18090010A5D4E80000E876481700005D
:1036D000E40B54020000CA9A3B000000E1F505002B
:1036E0000080969800000040420F000000A0860174
:1036F000000000102700000000E803000000006444
:1037000000000000000A00000000000100000000AE
:10371000002C76D888DC674F0823DFC1DFAE59E183
:10372000B1B796E5E3E453C63AE651997696E8E6F2
:10373000C28426EB898C9B62ED407C6FFCEFBC9CC5
:103740009F40F2BAA56FA5F490055A2AF75C936BD7
:103750006CF9676DC11BFCE0E40D47FEF520E6B592
:1037600000D0ED902E0300943577050080841E086C
:103770000000204E0A000000C80C333333330F988A
:103780006E12831141EF8D2114893BE65516CFFE51
:10379000E6DB18D1844B381BF77C1D901DA4BBE4DD
:1037A00024203284725E228100C9F124ECA1E53D1F
:1037B000270011241FBECFEFD0E1DEBFCDBF14E044
:1037C000A0E0B1E0EAE7F1E802C005900D92AC3963
:1037D000B107D9F714E0ACE9B4E001C01D92A23CF6
:1037E000B107E1F70E94852E0C94BB400C940000B9
:1037F0002C982AE228B92B982B9A2C9A98B92B98B6
:103800002B9A88B92B982B9A98B92B982B9A88B910
:103810002B982B9A2C988BE288B92B982B9A2C9A60
:1038200078B92B982B9A68B92B982B9A78B92B9842
:103830002B9A68B92B982B9A2C988CE288B92B98E4
:103840002B9A2C9A58B92B982B9A48B92B982B9ACB
:1038500008952F923F924F925F926F927F928F9234
:103860009F92AF92BF92CF92DF92EF92FF920F930F
:103870001F93DF93CF93CDB7DEB72C970FB6F89495
:10388000DEBF0FBECDBF29833A834B835C836D833C
:103890007E838F839887E980FA80CD80DE80AF8039
:1038A000B8848B809C80C701B601A8010E94F81BD8
:1038B00027010894411C511CC201B601A8010E94B5
:1038C000F81B22E0622E712C6E0C7F1CC301B60126
:1038D000A8010E94F81BC60101969C878B87C7012F
:1038E0006B857C85A8010E94F81BC60102969A8709
:1038F0008987C70169857A85A8010E94F81BC701DD
:10390000B501A8010E94F81BC201B501A8010E94DF
:10391000F81BC301B501A8010E94F81B150108940A
:1039200021083108C701B101A8010E94F81B9EEFD0
:10393000492E9FEF592E4A0C5B1CC701B201A8010A
:103940000E94F81BC401B601A8010E94F81B3401B3
:10395000089461087108C301B601A8010E94F81B10
:103960008EEFE82E8FEFF82EE80CF91CC701B60198
:10397000A8010E94F81BC4016B857C85A8010E94E8
:10398000F81BC40169857A85A8010E94F81BC4014F
:10399000B501A8010E94F81BC301B501A8010E944E
:1039A000F81BC701B501A8010E94F81BC401B101B1
:1039B000A8010E94F81BC401B201A8010E94F81BD3
:1039C0002C960FB6F894DEBF0FBECDBFCF91DF911E
:1039D0001F910F91FF90EF90DF90CF90BF90AF902D
:1039E0009F908F907F906F905F904F903F902F901F
:1039F0000895AF92BF92CF92DF92EF92FF920F9312
:103A00001F937C0180E090E00E94DF3823E333E3E2
:103A100043E550E40E94273620E030EC4FE754E4C1
:103A20000E9421375B016C0100E010E0C801B70182
:103A30000E94DF3823E333E343E550E40E94273656
:103A400020E030EC4FE754E40E9421379B01AC01A9
:103A5000C601B5010E94FA359B01AC012093BE045A
:103A60003093BF044093C0045093C1041F910F9141
:103A7000FF90EF90DF90CF90BF90AF900895A0E0BF
:103A8000B0E0BC01CD010E94DF3828EB3EE145E308
:103A900050E40E94273620E030EC4FE754E40E94C7
:103AA00021372091B8043091B9044091BA04509163
:103AB000BB040E942736089581B181B908958AB167
:103AC00080678AB9089580B190E09695879596951C
:103AD00087958170907090939D0480939C0480B131
:103AE00090E043E0969587954A95E1F78170907054
:103AF00090939F0480939E0480B190E034E096956B
:103B000087953A95E1F7817090709093A104809326
:103B1000A00408951F920F920FB60F9211248F9355
:103B20009F938091A4049091A504019751F48091F2
:103B3000AE049091AF0401969093AF048093AE04CD
:103B40000FC08091A2049091A304019749F4809141
:103B5000B0049091B10401969093B1048093B004A5
:103B60009F918F910F900FBE0F901F901895579AAD
:103B7000E0EBF0E0808181608083808180688083D9
:103B8000E1EBF0E08081856080830895E0E8F0E07B
:103B90008081806C8083E1E8F0E0808185608083B3
:103BA000E8E8F0E080819181826E96619183808364
:103BB0000895EF92FF920F931F937B018C0120E0F9
:103BC00030E048EC51E40E9427360E945134609363
:103BD000B300C801B7012DEC3CEC4CE45EE30E945D
:103BE00027366093B8047093B9048093BA04909315
:103BF000BB041F910F91FF90EF9008958091AE0448
:103C00009091AF04CC9771F48091BC049091BD0465
:103C100001969093BD048093BC041092AF0410925F
:103C2000AE0408958091B0049091B104CC9769F4EA
:103C30008091BC049091BD0401979093BD04809342
:103C4000BC041092B1041092B0040895EF92FF9258
:103C50000F931F93CF93DF93C0919C04D0919D0449
:103C6000CC0FDD1F80919E0490919F04C80FD91F37
:103C7000CC0FDD1F8091A0049091A104C80FD91F23
:103C8000C330D10509F4A0C6C430D10550F4C13009
:103C9000D10511F40C947527229708F0F0C70C9405
:103CA0005228C530D10509F43DC4C530D10508F40A
:103CB00062C5C630D10509F4C2C2279711F00C9431
:103CC000D5286091BE047091BF048091C00490918A
:103CD000C10420E030E040E251E40E9427367B013D
:103CE0008C010E948B38EB01643171058CF46C30CF
:103CF00071050CF001C16A3071050CF037C16230FA
:103D000071050CF09CC16130710509F051C215C2FA
:103D10006832710544F42091BC043091BD046E31C9
:103D20007105A4F46CC0653671050CF041C21092A7
:103D3000B30080E090E0A0E0B0E08093B8049093FE
:103D4000B904A093BA04B093BB04CCC0232BE9F010
:103D5000C801B70120E030E040EF51E40E94CD37C8
:103D6000882399F481E090E09093A3048093A204C7
:103D70001092A5041092A4045E985D9A1092B3006C
:103D800080E090E0A0E0B0E024C168E270E06C1B4D
:103D90007D0B882777FD8095982F0E942D3820E095
:103DA00030E040E05FE30E9427367B018C0120E099
:103DB00030E048EC51E40E9427360E945134609371
:103DC000B300C801B7012DEC3CEC4CE45EE30E946B
:103DD00027366093B8047093B9048093BA04909323
:103DE000BB048BB180678BB981E08093B50480936D
:103DF000B6048093B7045E985D980C94D528232B65
:103E000009F444C06EE170E06C1B7D0B882777FDE0
:103E10008095982F0E942D3820E030E040E05FE34D
:103E20000E9427367B018C0120E030E048EC51E411
:103E30000E9427360E9451346093B300C801B70135
:103E40002DEC3CEC4CE45EE30E9427366093B80412
:103E50007093B9048093BA049093BB0481E090E01E
:103E60009093A3048093A2041092A5041092A4043A
:103E70005E985D9A8BB180678BB981E08093B504C1
:103E80008093B6048093B7040C94D52868E270E060
:103E90006C1B7D0B882777FD8095982F0E942D380D
:103EA00020E030E040E05FE30E9427367B018C0198
:103EB00020E030E048EC51E40E9427360E94513463
:103EC0006093B300C801B7012DEC3CEC4CE45EE319
:103ED0000E9427366093B8047093B9048093BA04A3
:103EE0009093BB048BB180678BB981E08093B5045C
:103EF0008093B6040C9446288091BC049091BD0434
:103F0000892B09F07FCF60E270E06C1B7D0B882766
:103F100077FD8095982F0E942D3820E030E040E01A
:103F20005FE30E9427367B018C0120E030E048EC03
:103F300051E40E9427360E9451346093B300C801B7
:103F4000B7012DEC3CEC4CE45EE30E942736609315
:103F5000B8047093B9048093BA049093BB048BB1F6
:103F600080638BB981E08093B50483C68091BC04E3
:103F70009091BD04892BB1F16EE170E06C1B7D0B5B
:103F8000882777FD8095982F0E942D3820E030E01B
:103F900040E05FE30E94273620E030E048EC51E447
:103FA0000E9427360E9451346093B30081E090E074
:103FB0009093A3048093A2041092A5041092A404E9
:103FC0005E985D9A8DEE8093B30083E393E3A3EF55
:103FD000BFE38093B8049093B904A093BA04B0935C
:103FE000BB0448CF64E170E06C1B7D0B882777FD34
:103FF0008095982F0E942D3820E030E040E05FE36C
:104000000E9427367B018C0120E030E048EC51E42F
:104010000E9427360E9451346093B300C801B70153
:104020002DEC3CEC4CE45EE30E9427366093B80430
:104030007093B9048093BA049093BB0475C08091C7
:10404000BC049091BD04892B09F445C06CE170E07B
:104050006C1B7D0B882777FD8095982F0E942D384B
:1040600020E030E040E05FE30E9427367B018C01D6
:1040700020E030E048EC51E40E9427360E945134A1
:104080006093B300C801B7012DEC3CEC4CE45EE357
:104090000E9427366093B8047093B9048093BA04E1
:1040A0009093BB0481E090E09093A3048093A204DA
:1040B0001092A5041092A4045E985D9A8BB180635F
:1040C0008BB981E08093B5048093B6045E9810921A
:1040D000B7040C94D52864E170E06C1B7D0B882735
:1040E00077FD8095982F0E942D3820E030E040E049
:1040F0005FE30E94273620E030E048EC51E40E9464
:1041000027360E9451346093B30089E88093B3004E
:104110008DEC9CECACE8BFE38093B8049093B904B9
:10412000A093BA04B093BB048BB180658BB981E0D6
:104130008093B5048093B704F1C18091BC04909141
:10414000BD04892B91F0D093A304C093A2041092D4
:10415000A5041092A4045E985D9A80E78093B30052
:1041600087E696E6A6E6BFE33CC08DEE8093B300FB
:1041700083E393E3A3EFBFE38093B8049093B90480
:10418000A093BA04B093BB041092A5041092A404A7
:104190001092A3041092A2048BB180658BB981E0C8
:1041A0008093B5048093B7045D981092B60423CE33
:1041B0008091BC049091BD04892BE1F081E090E0F6
:1041C0009093A3048093A2041092A5041092A404D7
:1041D0005E985D9A8DE78093B30080E090E0A0E860
:1041E000BFE38093B8049093B904A093BA04B0934A
:1041F000BB0419C08AEF8093B30080E090E0A0E098
:10420000B0E48093B8049093B904A093BA04B09337
:10421000BB041092A5041092A4041092A30410925F
:10422000A2045E985D988BB180658BB981E0809324
:10423000B5048093B7045D981092B604B6C75E9833
:104240001092B7046091BE047091BF048091C004C5
:104250009091C10420E030E040E251E40E94273612
:104260000E948B389B01603271058CF467317105B7
:104270000CF066C06C3071050CF05CC062307105EA
:104280000CF091C06130710509F010C1F1C06532C8
:104290007105CCF1693271050CF008C16AE270E079
:1042A000621B730B882777FD8095982F0E942D380D
:1042B00020E030E040E05FE30E9427367B018C0184
:1042C00020E030E048EC51E40E9427360E9451344F
:1042D0006093B300C801B7012DEC3CEC4CE45EE305
:1042E0000E9427366093B8047093B9048093BA048F
:1042F0009093BB048BB180638BB981E08093B5044C
:104300008093B604AFC21092B30080E090E0A0E0CA
:10431000B0E08093B8049093B904A093BA04B0932A
:10432000BB048BB180638BB981E08093B50480932B
:10433000B60447C38091BC049091BD04892BC9F594
:1043400060E270E0621B730B882777FD8095982FE1
:104350000E942D3820E030E040E05FE30E942736E5
:104360007B018C0120E030E048EC51E40E942736CC
:104370000E9451346093B300C801B7012DEC3CECAE
:104380004CE45EE30E9427366093B8047093B9044E
:104390008093BA049093BB048BB180638BB981E0A6
:1043A0008093B50426C58091BC049091BD04892BEF
:1043B000E9F166E170E0621B730B882777FD809559
:1043C000982F0E942D3820E030E040E05FE30E940B
:1043D00027367B018C0120E030E048EC51E40E945C
:1043E00027360E9451346093B300C801B7012DEC09
:1043F0003CEC4CE45EE30E9427366093B804709373
:10440000B9048093BA049093BB0481E090E0909348
:10441000A3048093A2045E985D9A8BB180638BB9EC
:1044200081E08093B5048093B604BBC66CE070E075
:10443000621B730B882777FD8095982F0E942D387B
:1044400020E030E040E05FE30E94273620E030E0EB
:1044500048EC51E40E9427360E9451346093B30027
:104460008CE08093B3008DEC9CECACECBDE34AC0D7
:104470008091BC049091BD04892B81F081E090E093
:104480009093A3048093A2045E985D9A8CE080933D
:10449000B3008DEC9CECACECBDE31DC089E88093CF
:1044A000B3008DEC9CECACE8BFE32CC08091BC0465
:1044B0009091BD04892BF9F081E090E09093A304E2
:1044C0008093A2045E985D9A89E18093B3008DEC9D
:1044D0009CECACE4BEE38093B8049093B904A09341
:1044E000BA04B093BB045C9A81E08093B5045D98F4
:1044F0001092B60456C686E98093B3008AE999E91A
:10450000A9E9BFE38093B8049093B904A093BA04D7
:10451000B093BB045C9A81E08093B5045D981092DF
:10452000B604B6C55D981092B6046091BE04709151
:10453000BF048091C0049091C10420E030E040E2CB
:1045400051E40E9427360E948B389B016931710526
:104550006CF4643171050CF060C0613071050CF4CD
:10456000D6C06B3071050CF45FC0A4C06E3171050C
:10457000CCF0653671050CF0CAC01092B30080E033
:1045800090E0A0E0B0E08093B8049093B904A093C9
:10459000BA04B093BB048BB180658BB981E0809382
:1045A000B50486C26EE170E0621B730B882777FD4D
:1045B0008095982F0E942D3820E030E040E05FE3A6
:1045C0000E9427367B018C0120E030E048EC51E46A
:1045D0000E9427360E9451346093B300C801B7018E
:1045E0002DEC3CEC4CE45EE30E9427366093B8046B
:1045F0007093B9048093BA049093BB0481E090E077
:104600009093A5048093A4048BB180658BB981E05D
:104610008093B5048093B704B1C31092B30080E0D7
:1046200090E0A0E0B0E098C08091BC049091BD04FF
:10463000892B09F43FC06AE070E0621B730B882786
:1046400077FD8095982F0E942D3820E030E040E0E3
:104650005FE30E9427367B018C0120E030E048ECCC
:1046600051E40E9427360E9451346093B300C80180
:10467000B7012DEC3CEC4CE45EE30E9427366093DE
:10468000B8047093B9048093BA049093BB0481E09A
:1046900090E09093A3048093A2041092A50410923A
:1046A000A4045E985D9A8BB180658BB981E080939C
:1046B000B504E8CB64E170E0621B730B882777FDDB
:1046C0008095982F0E942D3820E030E040E05FE395
:1046D0000E9427367B018C0120E030E048EC51E459
:1046E0000E9427360E9451346093B300C801B7017D
:1046F0002DEC3CEC4CE45EE30E9427366093B8045A
:104700007093B9048093BA049093BB042DC0809138
:10471000BC049091BD04892BC1F05E985D9A8DE731
:104720008093B30080E090E0A0E8BFE38093B804FA
:104730009093B904A093BA04B093BB048BB1806585
:104740008BB981E08093B50480C28AEF8093B30077
:1047500080E090E0A0E0B0E48093B8049093B904C6
:10476000A093BA04B093BB048BB180658BB981E090
:104770008093B5048BC48BB18BB91092B6041092A0
:10478000B7046091BE047091BF048091C004909101
:10479000C10420E030E040E251E40E9427360E944C
:1047A0008B389B01613171056CF46C3071050CF034
:1047B0005CC0613071050CF4D5C0633071050CF438
:1047C00088C05AC066317105ECF0653671050CF091
:1047D000C9C01092B30080E090E0A0E0B0E0809308
:1047E000B8049093B904A093BA04B093BB045C9A44
:1047F00081E08093B50481E090E09093A5048093DC
:10480000A404BCC266E170E0621B730B882777FDCD
:104810008095982F0E942D3820E030E040E05FE343
:104820000E9427367B018C0120E030E048EC51E407
:104830000E9427360E9451346093B300C801B7012B
:104840002DEC3CEC4CE45EE30E9427366093B80408
:104850007093B9048093BA049093BB045C9A81E08E
:104860008093B5045E9A5D984CC21092B30080E0CC
:1048700090E0A0E0B0E069C06CE070E0621B730BF8
:10488000882777FD8095982F0E942D3820E030E012
:1048900040E05FE30E9427367B018C0120E030E09E
:1048A00048EC51E40E9427360E9451346093B300D3
:1048B000C801B7012DEC3CEC4CE45EE30E942736C6
:1048C0006093B8047093B9048093BA049093BB04C6
:1048D00044C08091BC049091BD04892B79F162E0C1
:1048E00070E0621B730B882777FD8095982F0E94DC
:1048F0002D3820E030E040E05FE30E9427367B0166
:104900008C0120E030E048EC51E40E9427360E9400
:1049100051346093B300C801B7012DEC3CEC4CE47A
:104920005EE30E9427366093B8047093B9048093C5
:10493000BA049093BB045E985D9A2BC08DE7809378
:10494000B30080E090E0A0E8BFE38093B8049093C8
:10495000B904A093BA04B093BB045C9A81E080933D
:10496000B50496C38091BC049091BD04892BB1F02D
:104970005E985D9A89E18093B3008DEC9CECACE489
:10498000BEE38093B8049093B904A093BA04B093A3
:10499000BB045C9A81E08093B5048CC286E9809365
:1049A000B3008AE999E9A9E9BFE38093B804909339
:1049B000B904A093BA04B093BB045C9A81E08093DD
:1049C000B5045E985D981FC15C981092B504609123
:1049D000BE047091BF048091C0049091C10420E096
:1049E00030E040E251E40E9427360E948B38CB0130
:1049F0006C3171058CF4633171050CF06DC0613060
:104A000071050CF405C12091BC043091BD046830DF
:104A100071050CF492C05EC06632710524F46132F7
:104A20007105A4F448C0653671050CF0F1C0109210
:104A3000B30080E090E0A0E0B0E08093B8049093F1
:104A4000B904A093BA04B093BB042CC066E270E032
:104A5000681B790B882777FD8095982F0E942D3849
:104A600020E030E040E05FE30E9427367B018C01CC
:104A700020E030E048EC51E40E9427360E94513497
:104A80006093B300C801B7012DEC3CEC4CE45EE34D
:104A90000E9427366093B8047093B9048093BA04D7
:104AA0009093BB048BB180668BB981E08093B60490
:104AB0008093B704A0CE1092B30080E090E0A0E015
:104AC000B0E08093B8049093B904A093BA04B09373
:104AD000BB042EC0232B99F56CE170E0681B790BA9
:104AE000882777FD8095982F0E942D3820E030E0B0
:104AF00040E05FE30E9427367B018C0120E030E03C
:104B000048EC51E40E9427360E9451346093B30070
:104B1000C801B7012DEC3CEC4CE45EE30E94273663
:104B20006093B8047093B9048093BA049093BB0463
:104B30008BB180668BB981E0DBC9232B79F162E10F
:104B400070E0681B790B882777FD8095982F0E946D
:104B50002D3820E030E040E05FE30E9427367B0103
:104B60008C0120E030E048EC51E40E9427360E949E
:104B700051346093B300C801B7012DEC3CEC4CE418
:104B80005EE30E9427366093B8047093B904809363
:104B9000BA049093BB045E985D9A51C064E170E0E2
:104BA000681B790B882777FD8095982F0E942D38F8
:104BB00020E030E040E05FE30E9427367B018C017B
:104BC00020E030E048EC51E40E9427360E94513446
:104BD0006093B300C801B7012DEC3CEC4CE45EE3FC
:104BE0000E9427366093B8047093B9048093BA0486
:104BF0009093BB045E985D985D9A81E08093B604C3
:104C00005E981092B7041092A5041092A404FBC100
:104C10008091BC049091BD04892BD1F05E985D9A7F
:104C200081EE8093B30087E696E6A6EEBFE380931D
:104C3000B8049093B904A093BA04B093BB048BB1A9
:104C400080668BB981E08093B6048093B70432C14B
:104C50008AEF8093B30080E090E0A0E0B0E480931E
:104C6000B8049093B904A093BA04B093BB045D9ABE
:104C700081E08093B6045E981092B70409C28BB1AC
:104C80008BB91092B5041092B7046091BE04709174
:104C9000BF048091C0049091C10420E030E040E264
:104CA00051E40E9427360E948B389B0169317105BF
:104CB0006CF4643171050CF067C0613071050CF45F
:104CC000DEC06B3071050CF497C065C06E317105A4
:104CD000FCF0653671050CF0D2C05E9A5D981092BA
:104CE000B30080E090E0A0E0B0E08093B80490933F
:104CF000B904A093BA04B093BB045D9A81E0809399
:104D0000B60481E090E09093A5048093A4047BC155
:104D10006EE170E0621B730B882777FD8095982FFA
:104D20000E942D3820E030E040E05FE30E9427360B
:104D30007B018C0120E030E048EC51E40E942736F2
:104D40000E9451346093B300C801B7012DEC3CECD4
:104D50004CE45EE30E9427366093B8047093B90474
:104D60008093BA049093BB0481E090E09093A504F3
:104D70008093A4045D9A81E08093B6041092A3040A
:104D80001092A2045E9A38C81092B30080E090E0BE
:104D9000A0E0B0E0A1C064E170E0621B730B882763
:104DA00077FD8095982F0E942D3820E030E040E07C
:104DB0005FE30E9427367B018C0120E030E048EC65
:104DC00051E40E9427360E9451346093B300C80119
:104DD000B7012DEC3CEC4CE45EE30E942736609377
:104DE000B8047093B9048093BA049093BB045D9A9D
:104DF00081E08093B6044CC18091BC049091BD04C5
:104E0000892B49F26AE070E0621B730B882777FDFB
:104E10008095982F0E942D3820E030E040E05FE33D
:104E20000E9427367B018C0120E030E048EC51E401
:104E30000E9427360E9451346093B300C801B70125
:104E40002DEC3CEC4CE45EE30E9427366093B80402
:104E50007093B9048093BA049093BB045E985D9AF2
:104E60001092A5041092A40481E090E09093A30412
:104E70008093A2045D9A81E08093B60496C18091EC
:104E8000BC049091BD04892B01F15E985D9A8DE779
:104E90008093B30080E090E0A0E8BFE38093B80483
:104EA0009093B904A093BA04B093BB045D9A81E0D7
:104EB0008093B6041092A5041092A40481E090E0BF
:104EC0009093A3048093A20470C18AEF8093B300EF
:104ED00080E090E0A0E0B0E48093B8049093B9043F
:104EE000A093BA04B093BB0482CF8BB18BB910925C
:104EF000B5041092B6046091BE047091BF04809115
:104F0000C0049091C10420E030E040E251E40E94EE
:104F100027360E948B38CB016D3071054CF4683018
:104F200071050CF058C0613071050CF071C09DC066
:104F300062317105CCF0653671050CF096C01092A7
:104F4000B30080E090E0A0E0B0E08093B8049093DC
:104F5000B904A093BA04B093BB045E9A5D985E9ABC
:104F600081E08093B7044BC062E170E0681B790B6D
:104F7000882777FD8095982F0E942D3820E030E01B
:104F800040E05FE30E9427367B018C0120E030E0A7
:104F900048EC51E40E9427360E9451346093B300DC
:104FA000C801B7012DEC3CEC4CE45EE30E942736CF
:104FB0006093B8047093B9048093BA049093BB04CF
:104FC0005E9A5D98D093A504C093A4045E9A81E094
:104FD0008093B70418C01092B30080E090E0A0E086
:104FE000B0E08093B8049093B904A093BA04B0934E
:104FF000BB045E9A81E08093B7045E9A5D98D0937B
:10500000A504C093A4041092A3041092A204CDC0DE
:1050100068E070E0681B790B882777FD8095982FF2
:105020000E942D3820E030E040E05FE30E94273608
:105030007B018C0120E030E048EC51E40E942736EF
:105040000E9451346093B300C801B7012DEC3CECD1
:105050004CE45EE30E9427366093B8047093B90471
:105060008093BA049093BB040FC084E68093B3008E
:105070008DEC9CECACE4BFE38093B8049093B9044E
:10508000A093BA04B093BB045E9A81E08093B70406
:105090001092A5041092A4041092A3041092A204EA
:1050A0000C94FB1E8BB18BB91092B5041092B60410
:1050B0001092B7041092A3041092A2045D9860911C
:1050C000BE047091BF048091C0049091C10420E09F
:1050D00030E040E251E40E9427360E948B38CB0139
:1050E000653071050CF44EC06A3071059CF0653670
:1050F00071050CF047C01092B30080E090E0A0E092
:10510000B0E08093B8049093B904A093BA04B0932C
:10511000BB0430C06AE070E0681B790B882777FD1C
:105120008095982F0E942D3820E030E040E05FE32A
:105130000E9427367B018C0120E030E048EC51E4EE
:105140000E9427360E9451346093B300C801B70112
:105150002DEC3CEC4CE45EE30E9427366093B804EF
:105160007093B9048093BA049093BB041092A30483
:105170001092A20481E090E09093A5048093A4048F
:105180005E9A13C01092B30080E090E0A0E0B0E01F
:105190008093B8049093B904A093BA04B093BB046D
:1051A0005E981092A5041092A404DF91CF911F91F4
:1051B0000F91FF90EF900895EAE7F0E0808180681A
:1051C000808390818081876080838081892B808328
:1051D000089580937C00089580917A008064809384
:1051E0007A0080917A0086FDFCCF20917800309182
:1051F0007900C901089570935A036093590350933D
:105200005C0340935B030E94E43208956F927F92A7
:105210008F929F92AF92BF92CF92DF92EF92FF92C6
:105220000F931F93DF93CF93CDB7DEB7C856D0400F
:105230000FB6F894DEBF0FBECDBF0E94F73280E0FC
:1052400090E00E946E300E94D731DE011196EBE4AF
:10525000F3E088E001900D928150E1F7DE0159966C
:10526000E3E3F3E088E101900D928150E1F7DE0184
:10527000D196EBE1F3E088E101900D928150E1F7E6
:10528000DE01A75BBF4FEBEFF2E080E201900D92F1
:105290008150E1F700916E0210916F0229813A81ED
:1052A0004B815C816D817E818F8198850E94F23077
:1052B000AA24BB244E010894811C911C650153E073
:1052C000CC0CDD1C5A95E1F7C80CD91C48E1E42E42
:1052D000F12CEC0CFD1C00916C0210916D02F6019A
:1052E000208DF701318142815381648175818681EE
:1052F00097810E94F2300091700210917102F601C4
:10530000208DF701318142815381648175818681CD
:1053100097810E94291C0894A11CB11CF3E0AF16D0
:10532000B10461F6009172021091730229A93AA9A1
:105330004BA95CA96DA97EA98FA998AD0E94F230F6
:10534000009172021091730229AD3AAD4BAD5CAD84
:105350006DAD7EAD8FADFE01E05CFF4F90810E9490
:10536000F2300091720210917302FE01EF5BFF4F69
:105370002081FE01EE5BFF4F3081FE01ED5BFF4FB0
:105380004081FE01EC5BFF4F5081FE01EB5BFF4F64
:105390006081FE01EA5BFF4F7081FE01E95BFF4F18
:1053A0008081FE01E85BFF4F90810E94F230809186
:1053B0006C0290916D029093600380935F0334E8D8
:1053C000E32E30E0F32E00E010E0F701C590D4901A
:1053D000C8016AE070E00E94D43E9C01215F3F4F0B
:1053E000C8016AE070E00E94D43E615F7F4FC9014E
:1053F000A6010E94F81B0F5F1F4F82E090E0E80EAD
:10540000F91E0436110509F7FE01E75BFF4F009115
:105410006C0210916D02208131814281538164813F
:105420007581868197810E94F23024E1E22E22E08C
:10543000F22E00E010E0F701C590D490C8016AE0B8
:1054400070E00E94D43E9C01215F3F4FC8016AE09A
:1054500070E00E94D43E65577F4FC901A6010E94AB
:10546000F81B0F5F1F4F82E090E0E80EF91E043634
:10547000110509F7FE01E75BFF4F00916C021091E7
:105480006D022085318542855385648575858685C5
:1054900097850E94F2309CE4E92E91E0F92E00E01D
:1054A00010E0F701C590D490C8016AE070E00E9456
:1054B000D43E9C01215F3F4FC8016AE070E00E942A
:1054C000D43E62527F4FC901A6010E94F81B0F5FB4
:1054D0001F4F82E090E0E80EF91E0436110509F72F
:1054E00089E4E82EF12CEC0EFD1E0091740210915F
:1054F0007502F70120893189428953896489758948
:10550000868997890E94F23000916C0210916D0299
:10551000F701208D318D428D538D648D758D868D73
:10552000978D0E94F2300CEDE02E02E0F02E00E0AC
:1055300010E0F701C590D490C80160E570E00E94CA
:10554000D43E9C0123573F4FC80160E570E00E94A4
:10555000D43E6E5D7F4FC901A6010E94F81B0F5F0C
:105560001F4F82E090E0E80EF91E99E10030190724
:1055700001F70DE110E010935A030093590387E3FC
:1055800090E090935C0380935B0380E091E00E9445
:10559000E43210935A030093590386E490E0909309
:1055A0005C0380935B0384E191E00E94E4321093FA
:1055B0005A030093590385E590E090935C03809330
:1055C0005B0385E291E00E94E43210935A0300935A
:1055D000590384E690E090935C0380935B0386E339
:1055E00091E00E94E43281E490E090935A0380932A
:1055F000590383E290E090935C0380935B038FE315
:1056000091E00E94E43210935A030093590380EA18
:1056100090E090935C0380935B0386E491E00E94AA
:10562000E43210935A03009359038FEA90E0909369
:105630005C0380935B0383E691E00E94E432109365
:105640005A03009359038EEB90E090935C03809390
:105650005B0380E891E00E94E43210935A030093C8
:1056600059038FEF90E090935C0380935B038DE987
:1056700091E00E94E43210935A03009359038EE0A4
:1056800091E090935C0380935B038EEA91E00E942B
:10569000E43210935A03009359038DE191E0909303
:1056A0005C0380935B038FEB91E00E94E432809176
:1056B00072029091730290935E0380935D0387E87A
:1056C00090E090935A03809359038DEE90E090936D
:1056D0005C0380935B0380ED91E00E94E4320EE175
:1056E00010E010935A030093590381E190E09093E6
:1056F0005C0380935B038CED91E00E94E432109395
:105700005A03009359038DE890E090935C038093D3
:105710005B038DEF91E00E94E43210935A030093F3
:10572000590380EE90E090935C0380935B038EE1DD
:1057300092E00E94E4328FEF9FEF90935E0380939C
:105740005D031EEFE12EF12CB6E8CB2ED12CA1EAA1
:10575000AA2EB12CFEEA6F2E712CE9EC8E2E912C24
:10576000C70109962C2DDA86C9864A2DBC86AB86E0
:105770006E2DFE86ED86988B8F877A8A698A9C8A41
:105780008B8AFE8AED8A988F8F8B0091720210911E
:1057900073023A855C857E8598890E94F23000917B
:1057A00072021091730229893A894B895C896D894B
:1057B0007E898F89988D0E94F230EFE0F0E0EE0E46
:1057C000FF1EFBE2EF16F1E0FF0651F6C859DF4F6E
:1057D0000FB6F894DEBF0FBECDBFCF91DF911F9102
:1057E0000F91FF90EF90DF90CF90BF90AF909F9080
:1057F0008F907F906F900895AF92BF92CF92DF927B
:10580000EF92FF920F931F93DF93CF93CDB7DEB745
:105810002A970FB6F894DEBF0FBECDBF7B018C0177
:105820006A0159010E948B38CB018D599F4F873CEB
:10583000910518F020E030E002C022E030E080E086
:1058400090E0675F7F4F6331710510F481E090E075
:10585000820F931F8230910531F09E012F5F3F4FE1
:10586000039749F516C08DB79EB708970FB6F89401
:105870009EBF0FBE8DBFEDB7FEB73196CE0101962C
:10588000ADB7BEB712969C938E9311978FE392E0BB
:1058900023C0ADB7BEB718970FB6F894BEBF0FBE02
:1058A000ADBFEDB7FEB7319612963C932E9311978C
:1058B00085E492E011C0ADB7BEB718970FB6F89463
:1058C000BEBF0FBEADBFEDB7FEB7319612963C938B
:1058D0002E9311978CE492E093838283E482F58285
:1058E000068317830E9439408DB79EB708960FB67E
:1058F000F8949EBF0FBE8DBFD0925A03C092590339
:10590000B0925C03A0925B03CE0101960E94E43248
:105910002A960FB6F894DEBF0FBECDBFCF91DF91B0
:105920001F910F91FF90EF90DF90CF90BF90AF90BD
:105930000895CF92DF92EF92FF920F931F93DF9320
:10594000CF93CDB7DEB72A970FB6F894DEBF0FBE60
:10595000CDBF7B016A0100D000D000D0EDB7FEB70B
:1059600031968E010F5F1F4FADB7BEB712961C93D5
:105970000E93119721E532E033832283958384834C
:105980000E943940F0925A03E0925903D0925C038E
:10599000C0925B038DB79EB706960FB6F8949EBF74
:1059A0000FBE8DBFC8010E94E4322A960FB6F8944C
:1059B000DEBF0FBECDBFCF91DF911F910F91FF9042
:1059C000EF90DF90CF9008952F923F924F925F9289
:1059D0006F927F928F929F92AF92BF92CF92DF92FF
:1059E000EF92FF920F931F93DF93CF93CDB7DEB764
:1059F000CD54D0400FB6F894DEBF0FBECDBF3C01F2
:105A000027967FAF6EAF279728964FAF28972A9695
:105A10003FAF2EAF2A972C961FAF0EAF2C972E9626
:105A2000FFAEEEAE2E971601DE015D96E3EDF2E0DD
:105A300088E201900D928150E1F7DE011196E7ECCA
:105A4000F2E08CE001900D928150E1F7C30164E136
:105A500070E00E94D43E6B0185E090E0861B970BBE
:105A60004B845C84B4E0EB2EF12C5701A81AB90AE0
:105A70004E010894811C911C25C0F701A3E0EE0F94
:105A8000FF1FAA95E1F7E80DF91DDF015C96248D53
:105A900011963C91119712964C91129713965C9126
:105AA000139714966C91149715967C9115971696EA
:105AB0008C91169717969C9182010E94F23008945F
:105AC000E108F108EA14FB04C1F6AA24BB244E0144
:105AD0000894811C911CFFEFEF2EFFE7FF2EEC0CCA
