:100000000C9431220C9446220C9446220C944622E5
:100010000C9446220C9446220C9446220C944622C0
:100020000C9446220C9446220C9446220C944622B0
:100030000C9446220C9446220C9446220C944622A0
:100040000C9446220C9446220C9446220C94462290
:100050000C9446220C9446220C9446220C94462280
:100060000C9446220C9446220C9446220C94462270
:100070000C9446220C9446220C9446226E616E002B
:10008000696E6600A629A629A629A629A629A62959
:10009000B1042C13B1042C13B104B1042C13B1041A
:1000A0002C13B104A629A629A629A629A629A62982
:1000B000A629A629A629A629A629A629A629A629C8
:1000C000A629A629B1042C13A629A629A629A62962
:1000D000A629A629A629A6292C13B104A629A62952
:1000E000A629A629A629A629A629A629A629A62998
:1000F000A629A629A629A629B1042C13A629A62932
:10010000A629A629A629A629A629A629A629A62977
:100110002C13B104A629A629A629A629A629A62911
:10012000A629A629A629A629A629A629B1042C1301
:10013000A629A629A629A629A629A629A629A62947
:10014000A629A629A629A6292C13B104A629A629E1
:10015000A629A629A629A629A629A629A629A62927
:10016000B1042C13A629A629A629A629A629A629C1
:10017000A629A629A629A629A629A629A629A62907
:100180002C13B104A629A629A629A629A629A629A1
:10019000A629A629B1042C13A629A629A629A62991
:1001A000A629A629A629A629A629A629A629A629D7
:1001B000A629A629A629A6292C13B104A629A62971
:1001C000A629A629A629A629B1042C13A629A62961
:1001D000A629A629A629A629A629A629A629A629A7
:1001E000A629A629A629A629A629A629A629A62997
:1001F0002C13B1042C13B1042C13B1042C13A62915
:10020000B1042C13A629A629A629A629A629A62920
:10021000A629A629A629A629A629A629A629A62966
:10022000A629A6292C13B104A629A629A629A62900
:10023000A629A629A629A629B1042C13A629A629F0
:10024000A629A629A629A629A629A629A629A62936
:10025000A629A629A629A6292C13B104A629A629D0
:10026000A629A629A629A629A629A629A629A62916
:10027000B1042C13A629A629A629A629A629A629B0
:10028000A629A629A629A629A629A6292C13B104A0
:10029000A629A629A629A629A629A629A629A629E6
:1002A000A629A629A629A629B1042C13A629A62980
:1002B000A629A629A629A629A629A629A629A629C6
:1002C0002C13B104A629A629A629A629A629A62960
:1002D000A629A629A629A629A629A629A629A629A6
:1002E000B1042C13A629A629A629A629A629A62940
:1002F000A629A6292C13B104A629A629A629A62930
:10030000A629A6290000000000000000FFFFFFFF53
:10031000FFFFFFFFFFFFFFFFFFFFFFFFFFFFFFFFED
:10032000FFFFFFFFFFFFFFFFDFFFFFFFFFFFFFFFFD
:10033000FFFFFFFFDFFFFFFFFFFFFFFFDFFFFFFF0D
:10034000FFFF9EF7FFFFFFFFDFFFFFFFFFFFFFFF46
:10035000FFFFFFFFFFFFFFFFFFFFFFFFFFFFFFFFAD
:10036000FFFFFFFFFFFFFFFFFFFFFFFFDFFFDFFFDD
:10037000DFFFBEF7FFFFFFFFFFFFFFFFBEF7FFFF3F
:10038000BEF79EF7FFFFFFFFDFFFDFFFFFFFDFFF8F
:10039000FFFFFFFFFFFFDFFFFFFFDFFFFFFFFFFFAD
:1003A000FFFFFFFFFFFFFFFFFFFFFFFFFFFFFFFF5D
:1003B000FFFFFFFFFFFFFFFFFFFFFFFFFFFFFFFF4D
:1003C000FFFFFFFFFFFFFFFFFFFFFFFFFFFFFFFF3D
:1003D000FFFFFFFFFFFFDFFFFFFFFFFFFFFFFFFF4D
:1003E000FFFFFFFFBEF7FFFFFFFFFFFFFFFFFFFF66
:1003F000FFFFFFFFFFFFFFFFFFFFFFFFFFFFFFFF0D
:10040000FFFFFFFFFFFFFFFFFFFFFFFF55ADB294B0
:1004100014A5F39CD39CB294B294D39CF39CB29455
:10042000D39CD39C14A59AD6DFFFDFFFFFFFFFFF0D
:10043000FFFF7DEFFFFFFFFFFFFFFFFFFFFFFFFF5E
:10044000FFFFFFFFFFFFFFFFFFFFFFFFFFFFFFFFBC
:10045000FFFFFFFFFFFFFFFFFFFFDFFF04210000A3
:1004600041080000410882104108000020004108B6
:100470004108610800000000452930849EF7BEF75E
:10048000FFFFFFFFFFFFFFFFBEF7FFFFFFFFFFFFC5
:10049000FFFFFFFFFFFFFFFFFFFFFFFFFFFFFFFF6C
:1004A000FFFFFFFFFFFFFFFFFFFFDFFFE318CF7B33
:1004B0009EF79EF75DEF3CE75DEF7DEF5DEF7DEF33
:1004C0003CE73CE73CE7D7BDAA5200002421FBDE15
:1004D000FFFF9EF7FFFFFFFFFFFFBEF7FFFFFFFFDE
:1004E000FFFFFFFFFFFFFFFFFFFFFFFFFFFFFFFF1C
:1004F000FFFFFFFFFFFFFFFFFFFFDFFF8210EF7B2C
:10050000FFFFBEF7FFFFFFFFFFFFFFFFFFFFDFFF64
:10051000FFFFFFFFDFFFFFFFFFFFDBDE65290000BE
:1005200038C6DFFFFFFFBEF7FFFFDFFFFFFFFFFF64
:10053000FFFFFFFFFFFFFFFFFFFFFFFFFFFFFFFFCB
:10054000FFFFFFFFFFFFFFFFDFFFDFFF8210EF7BFB
:10055000FFFFDFFFFFFFFFFFBEF7FFFFFFFFFFFF14
:10056000DFFFDFFFFFFFFFFFBEF7FFFF9EF7C7398B
:10057000E3187DEFFFFFDFFFFFFFFFFFFFFFFFFF40
:10058000FFFFFFFFFFFFFFFFFFFFFFFFFFFFFFFF7B
:10059000FFFFFFFFFFFFFFFFFFFFDFFFC318EF7B42
:1005A000FFFFDFFFFFFFFFFFFFFFDFFFFFFFDFFFBB
:1005B000FFFFFFFFFFFFFFFFFFFFDFFFFFFFDBDEB0
:1005C00082102C63FFFFFFFFFFFFFFFFFFFFFFFF16
:1005D000FFFFFFFFFFFFFFFFFFFFFFFFFFFFFFFF2B
:1005E000FFFFFFFFFFFFFFFFFFFFDFFFA210CF7B3B
:1005F000FFFF9EF7DFFFBEF7FFFFFFFFBEF7FFFF26
:10060000FFFFBEF7FFFFFFFFDFFFFFFFDFFFFFFF83
:10061000AE7341089EF7FFFF9EF7FFFFFFFFFFFF4E
:10062000FFFFFFFFFFFFFFFFFFFFFFFFFFFFFFFFDA
:10063000FFFFFFFFFFFFFFFFFFFFDFFFA210EF7BCA
:10064000FFFFFFFFFFFFFFFFFFFFDFFFFFFFFFFFDA
:10065000FFFFDFFFFFFFFFFFFFFFDFFFBEF7FFFF33
:10066000DBDE000096B5FFFFFFFFFFFFFFFFFFFF90
:10067000FFFFFFFFFFFFFFFFFFFFFFFFFFFFFFFF8A
:10068000FFFFFFFFFFFFFFFFFFFFDFFFA210CF7B9A
:10069000DFFFBEF7FFFFBEF7FFFFFFFFFFFF9EF785
:1006A000FFFFFFFF7DEFFFFFBEF7FFFFFFFFFFFF35
:1006B000DFFFE3186D6BDFFFFFFFDFFFFFFFFFFFD3
:1006C000FFFFFFFFFFFFFFFFFFFFFFFFFFFFFFFF3A
:1006D000FFFFFFFFFFFFFFFFFFFFDFFFA210108400
:1006E000FFFFBEF7FFFFDFFFFFFFFFFFFFFFBEF7CC
:1006F000FFFFFFFFFFFFDFFFFFFFFFFFFFFFDFFF4A
:10070000FFFF24210C63FFFFFFFFFFFFFFFFFFFF41
:10071000FFFFFFFFFFFFFFFFFFFFFFFFFFFFFFFFE9
:10072000FFFFFFFFFFFFFFFFFFFFDFFFA210EF7BD9
:1007300096B5D39C75ADB6B5718C59CEDFFF14A5B7
:10074000BEF759CE18C6BEF7D7BDDBDEFFFFBEF73A
:10075000FFFF6108AE73FFFFDFFFFFFFFFFFFFFF3B
:10076000FFFFFFFFFFFFFFFFFFFFFFFFFFFFFFFF99
:10077000FFFFFFFFFFFFFFFFFFFFDFFFA2106D6B1B
:100780006D6B0000AA52A631A21034A575AD2000F1
:10079000D39C3084200034A50000B294FFFFBEF744
:1007A000FBDE200014A5DFFFFFFFFFFFFFFFFFFFC1
:1007B000FFFFFFFFFFFFFFFFFFFFFFFFFFFFFFFF49
:1007C000FFFFFFFFFFFFFFFFFFFFDFFFA210518CC6
:1007D0005DEF24217DEFA631452938C64D6BA2106F
:1007E000EB5A518C000061080000F39CFFFFFFFFF3
:1007F000518C0000DBDEFFFFBEF7FFFFFFFFFFFFB6
:10080000FFFFFFFFFFFFFFFFFFFFFFFFFFFFFFFFF8
:10081000FFFFFFFFFFFFFFFFFFFFFFFFA21010849E
:100820009EF7A210FBDEC739C318EF7B4529652967
:100830004529694A694AF39C08423084FFFF1CE756
:100840006108EB5AFFFFFFFFFFFFFFFFFFFFFFFF06
:10085000FFFFFFFFFFFFFFFFFFFFFFFFFFFFFFFFA8
:10086000FFFFFFFFFFFFFFFFFFFFDFFF8210518C45
:10087000DFFF96B59EF796B5B29434A534A59EF7E2
:1008800034A555AD59CEFFFFD7BD9AD6FFFFE73946
:10089000C3185DEFDFFFFFFF9EF7FFFFFFFFFFFFC6
:1008A000FFFFFFFFFFFFFFFFFFFFFFFFFFFFFFFF58
:1008B000FFFFFFFFFFFFFFFFFFFFDFFF242100001F
:1008C000C318A210A21082104529E3180421A21017
:1008D0000421E31804212000C31804214108410821
:1008E00096B5FFFFDFFFDFFFFFFFDFFFFFFFFFFF2B
:1008F000FFFFFFFFFFFFFFFFFFFFFFFFFFFFFFFF08
:10090000FFFFFFFFFFFFFFFFFFFFDFFFB2949294A7
:10091000308410849294718CCF7BB2943084EF7BBE
:10092000D39CCF7BCF7B929430841084518C59CE52
:10093000FFFFFFFFFFFFFFFFDFFFFFFFFFFFFFFFE7
:10094000FFFFFFFFFFFFFFFFFFFFFFFFFFFFFFFFB7
:10095000FFFFFFFFFFFFFFFFFFFFFFFFFFFFB6B53A
:1009600055ADDFFF55ADB6B5FFFFD39CF7BDBEF764
:10097000B29479CEFFFFD39CDBDE7DEF92943CE70F
:10098000DBDE8E737DEFBEF7DFFFFFFFFFFFFFFFB4
:10099000FFFFFFFFFFFFFFFFFFFFFFFFFFFFFFFF67
:1009A000FFFFFFFFFFFFFFFFFFFFFFFFB29400000D
:1009B00059CE929461089AD60C6304213CE7694AA7
:1009C000A6315DEF452908425DEF04212C639AD6DC
:1009D0008210518C38C634A5FFFFDFFFFFFFFFFFF9
:1009E000FFFFFFFFFFFFFFFFFFFFFFFFFFFFFFFF17
:1009F000FFFFFFFFFFFFFFFFFFFFDFFF284279CE72
:100A0000B29441081CE78E7365299EF78A52A6317D
:100A1000FFFFA631AA52FFFFE3186D6B9EF7A210ED
:100A2000718CBAD6610814A5FFFFDFFFFFFFFFFF3F
:100A3000FFFFFFFFFFFFFFFFFFFFFFFFFFFFFFFFC6
:100A4000FFFFFFFFFFFFFFFFFFFFDFFFBEF7718C20
:100A500061087DEFAE73C318DFFFAA52E739DFFFED
:100A6000A631694AFFFFE3188E737DEF8210308450
:100A7000DBDE410814A5D7BD8A52FFFFFFFFFFFF51
:100A8000FFFFFFFFFFFFFFFFFFFFFFFFFFFFFFFF76
:100A9000FFFFFFFFFFFFFFFFFFFFDFFF518C821013
:100AA0007DEF6D6BE318FFFF8A52A631FFFF8631A1
:100AB000694ADFFFC3186D6B9EF74108718CDBDE5E
:100AC000821055AD18C6000096B5FFFFFFFFFFFF6F
:100AD000FFFFFFFFFFFFFFFFFFFFFFFFFFFFFFFF26
:100AE000FFFFFFFFFFFFFFFFFFFFDFFF694AFBDEA6
:100AF0004D6B4529FFFF694A8631FFFFA631694AE0
:100B0000FFFFC3184D6BBEF761089294FBDE6108CE
:100B1000929438C6410859CE34A58E73FFFFFFFF6B
:100B2000FFFFFFFFFFFFFFFFFFFFFFFFFFFFFFFFD5
:100B3000FFFFFFFFFFFFFFFFFFFFDFFFFFFFAE73C2
:100B400024219EF78A52E739DFFF0842694ABEF73F
:100B500004216D6BBEF7410892941CE7410834A54F
:100B60009AD6200018C634A5000059CEFFFFFFFF1B
:100B7000FFFFFFFFFFFFFFFFFFFFFFFFFFFFFFFF85
:100B8000FFFFFFFFFFFFFFFFFFFFDFFF6D6BA21007
:100B9000FFFF8A52A631FFFFC739494ADFFF2421F0
:100BA0000C639EF76108518C1CE7000055AD18C618
:100BB000000038C655AD61089AD679CEFFFFFFFF19
:100BC000FFFFFFFFFFFFFFFFFFFFFFFFFFFFFFFF35
:100BD000FFFFFFFFFFFFFFFFFFFFDFFF6D6B5DEF1D
:100BE000694A0842DFFFE739494ADFFF04212C63E5
:100BF0009EF74108B294BAD6410896B518C6610866
:100C0000F7BD75AD20009AD6718C8631FFFFFFFFCE
:100C1000FFFFFFFFFFFFFFFFFFFFFFFFFFFFFFFFE4
:100C2000FFFFFFFFFFFFFFFFFFFFDFFFFFFF284288
:100C30000842DFFFA631694ABEF724214D6B5DEF04
:100C4000A210718CDBDE410834A5D7BD2000F7BDB2
:100C500075AD00009AD6F39C6108FBDEFFFFFFFF35
:100C6000FFFFFFFFFFFFFFFFFFFFFFFFFFFFFFFF94
:100C7000FFFFFFFFFFFFFFFFFFFFDFFFEB5A084211
:100C80009EF7A631CB5ABEF7E3184D6B7DEF82106D
:100C90003084DBDE8210F39C18C6610818C696B556
:100CA0002000BAD6718C8210DBDEFFFFFFFFFFFF52
:100CB000FFFFFFFFFFFFFFFFFFFFFFFFFFFFFFFF44
:100CC000FFFFFFFFFFFFFFFFFFFFDFFFCF7B7DEF9A
:100CD000E739AA529EF70421AE737DEF6108718C4B
:100CE000DBDE200014A559CE2000F7BD75AD41080C
:100CF000BAD69294C318DBDEB6B59EF7FFFFFFFFAE
:100D0000FFFFFFFFFFFFFFFFFFFFFFFFFFFFFFFFF3
:100D1000FFFFFFFFFFFFFFFFFFFFFFFFDFFFA6312A
:100D20008A527DEF04212C639EF78210518CDBDE0A
:100D3000610814A579CE0000B6B596B5410859CE24
:100D400092948210FBDE108475ADFFFFFFFFFFFF62
:100D5000FFFFFFFFFFFFFFFFFFFFFFFFFFFFFFFFA3
:100D6000FFFFFFFFFFFFFFFFFFFFFFFF494A8A5220
:100D70009EF72421CF7B7DEF6108518CFBDE41087B
:100D8000F39C38C6000059CEB6B5200079CE34A504
:100D90008210FBDE1084AE73DFFFBEF7FFFFFFFFA4
:100DA000FFFFFFFFFFFFFFFFFFFFFFFFFFFFFFFF53
:100DB000FFFFFFFFFFFFFFFFFFFFFFFF92945DEFCD
:100DC00004216D6B3CE7C318718CFBDE200034A559
:100DD00059CE000059CE34A541089AD6B2944108A4
:100DE00079CED39C718CFFFFFFFFFFFFFFFFFFFF5A
:100DF000FFFFFFFFFFFFFFFFFFFFFFFFFFFFFFFF03
:100E0000FFFFFFFFFFFFFFFFFFFFFFFF5DEF452934
:100E10004D6BDBDE8210308459CE2000F39CD7BDB1
:100E20002000D7BDF39C410859CE92944108FBDEC7
:100E30005DEF9AD6FFFF9EF7FFFFDFFFFFFFFFFF8B
:100E4000FFFFFFFFFFFFFFFFFFFFFFFFFFFFFFFFB2
:100E5000FFFFFFFFFFFFFFFFFFFFFFFFB294EF7BEE
:100E6000BEF7518C718CDFFFCF7B14A5FFFF2C6385
:100E7000B6B55DEFAE7318C65DEF30843CE7BEF7E4
:100E8000BEF7DFFFFFFFFFFFFFFFFFFFFFFFFFFFDB
:100E9000FFFFFFFFFFFFFFFFFFFFFFFFFFFFFFFF62
:100EA000FFFFFFFFFFFFFFFFFFFFFFFFFFFFBEF79B
:100EB000FFFFFFFFBEF7FFFFFFFFFFFFFFFFFFFF8B
:100EC000FFFFDFFFFFFFFFFFFFFFFFFFDFFFDFFF92
:100ED000FFFFFFFFFFFFFFFFDFFFFFFFFFFFFFFF42
:100EE000FFFFFFFFFFFFFFFFFFFFFFFFFFFFFFFF12
:100EF000FFFFFFFFFFFFFFFFFFFFFFFFFFFFFFFF02
:100F0000FFFFBEF7FFFFFFFFFFFFDFFFFFFFBEF7A3
:100F1000DFFFFFFFDFFFFFFFFFFFBEF7DFFFFFFF8A
:100F2000FFFFDFFFDFFFFFFFFFFFFFFFFFFFFFFF11
:100F3000FFFFFFFFFFFFFFFFFFFFFFFFFFFFFFFFC1
:100F4000FFFFFFFFFFFFFFFFFFFFFFFFFFFFFFFFB1
:100F5000FFFFFFFFBEF7FFFFFFFFFFFFFFFFFFFFEA
:100F6000FFFFDFFFFFFFDFFFFFFFFFFFFFFFFFFFD1
:100F7000FFFFFFFFFFFFFFFFFFFFFFFFFFFFFFFF81
:100F8000FFFFFFFFFFFFFFFFFFFFFFFFD1BCD1BC53
:100F9000D1BCD1BCD1BCD1BCD1BCD1BCD1BCD1BCE9
:100FA000D1BCD1BCD1BCD1BCD1BCD1BCD1BCD1BCD9
:100FB000D1BCD1BCD1BCD1BCD1BCD1BCD1BCD1BCC9
:100FC000D1BCD1BCD1BCD1BCD1BCD1BCD1BCFFFF48
:100FD000FFFFFFFFFFFFFFFFFFFFFFFFFFFFFFFF21
:100FE000FFFFFFFFFFFFFFFFFFFFD1BCD1BCD1BC64
:100FF000D1BCD1BCD1BCD1BCD1BCD1BCD1BCD1BC89
:10100000D1BCD1BCD1BCD1BCD1BCD1BCD1BCD1BC78
:10101000D1BCD1BCD1BCD1BCD1BCD1BCD1BCD1BC68
:10102000D1BCD1BCD1BCD1BCD1BCD1BCD1BCD1BC58
:10103000D1BCD1BCD1BCD1BCD1BCD1BCD1BCD1BC48
:10104000D1BCD1BCD1BCD1BCD1BCD1BCD1BCD1BC38
:10105000D1BCD1BCD1BCD1BCD1BCD1BCD1BCD1BC28
:10106000D1BCD1BCD1BCD1BCD1BCD1BCFFFFFFFF36
:10107000FFFFFFFFFFFFFFFFFFFFFFFFFFFFFFFF80
:10108000FFFFFFFFFFFFFFFFFFFFFFFFD1BCD1BC52
:10109000D1BCD1BCD1BCD1BCD1BCD1BCD1BCD1BCE8
:1010A000D1BCD1BCD1BCD1BCD1BCD1BCD1BCD1BCD8
:1010B000D1BCD1BCD1BCD1BCD1BCD1BCD1BCD1BCC8
:1010C000D1BCD1BCD1BCD1BCD1BCD1BCD1BCD1BCB8
:1010D000D1BCD1BCD1BCD1BCD1BCD1BCD1BCD1BCA8
:1010E000D1BCD1BCD1BCD1BCD1BCD1BCD1BCD1BC98
:1010F000D1BCD1BCD1BCD1BCD1BCD1BCD1BCD1BC88
:10110000D1BCD1BCD1BCD1BCD1BCD1BCFFFFFFFF95
:10111000FFFFFFFFFFFFFFFFFFFFFFFFFFFFFFFFDF
:10112000FFFFFFFFFFFFFFFFFFFFFFFFD1BCD1BCB1
:10113000D1BCD1BCD1BCD1BCD1BCD1BCD1BCD1BC47
:10114000D1BCD1BCD1BCD1BCD1BCD1BCD1BCD1BC37
:10115000D1BCD1BCD1BCD1BCD1BCD1BCD1BCD1BC27
:10116000D1BCD1BCD1BCD1BCD1BCD1BCD1BCD1BC17
:10117000D1BCD1BCD1BCD1BCD1BCD1BCD1BCD1BC07
:10118000D1BCD1BCD1BCD1BCD1BCD1BCD1BCD1BCF7
:10119000D1BCD1BCD1BCD1BCD1BCFFFFFFFFFFFF94
:1011A000FFFFFFFFFFFFFFFFFFFFFFFFFFFFFFFF4F
:1011B000FFFFFFFFFFFFFFFFFFFFFFFFFFFFFFFF3F
:1011C000FFFFFFFFFFFFFFFFFFFFFFFFFFFFFFFF2F
:1011D000FFFFFFFFFFFFFFFFFFFFFFFFFFFFD1BC90
:1011E000D1BCD1BCD1BCD1BCD1BCD1BCD1BCD1BC97
:1011F000D1BCD1BCD1BCD1BCD1BCD1BCD1BCD1BC87
:10120000D1BCD1BCD1BCD1BCD1BCD1BCD1BCD1BC76
:10121000D1BCD1BCD1BCD1BCD1BCD1BCD1BCD1BC66
:10122000D1BCD1BCD1BCD1BCD1BCD1BCD1BCD1BC56
:10123000D1BCD1BCD1BCFFFFDFFFFFFFFFFFFFFF31
:10124000FFFFFFFFFFFFFFFFFFFFFFFFFFFFFFFFAE
:10125000FFFFFFFFFFFFFFFFFFFFFFFFFFFFFFFF9E
:10126000FFFFFFFFFFFFFFFFFFFFFFFFFFFFFFFF8E
:10127000FFFFFFFFFFFFFFFFFFFFFFFFFFFFDFFF9E
:10128000FFFFD1BCD1BCD1BCD1BCD1BCD1BCD1BC85
:10129000D1BCD1BCD1BCD1BCD1BCD1BCD1BCD1BCE6
:1012A000D1BCD1BCD1BCD1BCD1BCD1BCD1BCD1BCD6
:1012B000D1BCD1BCD1BCD1BCD1BCD1BCD1BCD1BCC6
:1012C000D1BCD1BCD1BCD1BCD1BCD1BCD1BCD1BCB6
:1012D000D1BCD1BCDFFFFFFFFFFFFFFFFFFFFFFF20
:1012E000FFFFFFFFFFFFFFFFFFFFFFFFFFFFFFFF0E
:1012F000FFFFFFFFFFFFFFFFFFFFFFFFFFFFFFFFFE
:10130000FFFFFFFFFFFFFFFFFFFFFFFFFFFFFFFFED
:10131000FFFFFFFFFFFFFFFFFFFFFFFFFFFFFFFFDD
:10132000FFFFDFFFD1BCD1BCD1BCD1BCD1BCD1BC93
:10133000D1BCD1BCD1BCD1BCD1BCD1BCD1BCD1BC45
:10134000D1BCD1BCD1BCD1BCD1BCD1BCD1BCD1BC35
:10135000D1BCD1BCD1BCD1BCD1BCD1BCD1BCD1BC25
:10136000D1BCD1BCD1BCD1BCD1BCD1BCD1BCD1BC15
:10137000D1BCFFFFFFFFFFFFFFFFFFFFFFFFFFFFEE
:10138000FFFFFFFFFFFFFFFFFFFFFFFFFFFFFFFF6D
:10139000FFFFFFFFFFFFFFFFFFFFFFFFFFFFFFFF5D
:1013A000FFFFFFFFFFFFFFFFFFFFFFFFFFFFFFFF4D
:1013B000FFFFFFFFFFFFFFFFFFFFFFFFFFFFFFFF3D
:1013C000FFFFFFFFFFFFD1BCD1BCD1BCD1BCD1BC62
:1013D000D1BCD1BCD1BCD1BCD1BCD1BCD1BCD1BCA5
:1013E000D1BCD1BCD1BCD1BCD1BCD1BCD1BCD1BC95
:1013F000D1BCD1BCD1BCD1BCD1BCD1BCD1BCD1BC85
:10140000D1BCD1BCD1BCD1BCD1BCD1BCD1BCD1BC74
:10141000FFFFFFFFFFFFFFFFFFFFFFFFFFFFFFFFDC
:10142000FFFFFFFFFFFFFFFFFFFFFFFFFFFFFFFFCC
:10143000FFFFFFFFFFFFFFFFFFFFFFFFFFFFFFFFBC
:10144000FFFFFFFFFFFFFFFFFFFFFFFFFFFFFFFFAC
:10145000FFFFFFFFFFFFFFFFFFFFFFFFFFFFFFFF9C
:10146000FFFFFFFFFFFFFFFFD1BCD1BCD1BCD1BC50
:10147000D1BCD1BCD1BCD1BCD1BCD1BCD1BCD1BC04
:10148000D1BCD1BCD1BCD1BCD1BCD1BCD1BCD1BCF4
:10149000D1BCD1BCD1BCD1BCD1BCD1BCD1BCD1BCE4
:1014A000D1BCD1BCD1BCD1BCD1BCD1BCD1BCD1BCD4
:1014B000DFFFFFFFFFFFFFFFFFFFFFFFFFFFFFFF5C
:1014C000FFFFFFFFFFFFFFFFFFFFFFFFFFFFFFFF2C
:1014D000FFFFFFFFFFFFFFFFFFFFFFFFFFFFFFFF1C
:1014E000FFFFFFFFFFFFFFFFFFFFFFFFFFFFFFFF0C
:1014F000FFFFFFFFFFFFFFFFFFFFFFFFFFFFFFFFFC
:10150000FFFFFFFFFFFFDFFFD1BCD1BCD1BCD1BCCF
:10151000D1BCD1BCD1BCD1BCD1BCD1BCD1BCD1BC63
:10152000D1BCD1BCD1BCD1BCD1BCD1BCD1BCD1BC53
:10153000D1BCD1BCD1BCD1BCD1BCD1BCD1BCD1BC43
:10154000D1BCD1BCD1BCD1BCD1BCD1BCD1BCD1BC33
:10155000FFFFFFFFFFFFFFFFFFFFFFFFFFFFD1BC0C
:10156000D1BCD1BCD1BCD1BCD1BCD1BCD1BCD1BC13
:10157000D1BCD1BCD1BCD1BCD1BCD1BCD1BCD1BC03
:10158000D1BCD1BCD1BCD1BCD1BCD1BCD1BCD1BCF3
:10159000D1BCD1BCD1BCD1BCD1BCFFFFFFFFFFFF90
:1015A000FFFFFFFFFFFFFFFFD1BCD1BCD1BCD1BC0F
:1015B000D1BCD1BCD1BCD1BCD1BCD1BCD1BCD1BCC3
:1015C000D1BCD1BCD1BCD1BCD1BCD1BCD1BCD1BCB3
:1015D000D1BCD1BCD1BCD1BCD1BCD1BCD1BCD1BCA3
:1015E000D1BCD1BCD1BCD1BCD1BCD1BCD1BCD1BC93
:1015F000FFFFFFFFFFFFFFFFFFFFDFFFD1BCD1BCFD
:10160000D1BCD1BCD1BCD1BCD1BCD1BCD1BCD1BC72
:10161000D1BCD1BCD1BCD1BCD1BCD1BCD1BCD1BC62
:10162000D1BCD1BCD1BCD1BCD1BCD1BCD1BCD1BC52
:10163000D1BCD1BCD1BCD1BCD1BCD1BCFFFFFFFF60
:10164000FFFFFFFFFFFFFFFFD1BCD1BCD1BCD1BC6E
:10165000D1BCD1BCD1BCD1BCD1BCD1BCD1BCD1BC22
:10166000D1BCD1BCD1BCD1BCD1BCD1BCD1BCD1BC12
:10167000D1BCD1BCD1BCD1BCD1BCD1BCD1BCD1BC02
:10168000D1BCD1BCD1BCD1BCD1BCD1BCD1BCD1BCF2
:10169000FFFFFFFFFFFFFFFFFFFFD1BCD1BCD1BCAD
:1016A000D1BCD1BCD1BCD1BCD1BCD1BCD1BCD1BCD2
:1016B000D1BCD1BCD1BCD1BCD1BCD1BCD1BCD1BCC2
:1016C000D1BCD1BCD1BCD1BCD1BCD1BCD1BCD1BCB2
:1016D000D1BCD1BCD1BCD1BCD1BCD1BCD1BCFFFF31
:1016E000FFFFFFFFFFFFFFFFD1BCD1BCD1BCD1BCCE
:1016F000D1BCD1BCD1BCD1BCD1BCD1BCD1BCD1BC82
:10170000D1BCD1BCD1BCD1BCD1BCD1BCD1BCD1BC71
:10171000D1BCD1BCD1BCD1BCD1BCD1BCD1BCD1BC61
:10172000D1BCD1BCD1BCD1BCD1BCD1BCD1BCD1BC51
:10173000FFFFFFFFFFFFFFFFFFFFD1BCD1BCD1BC0C
:10174000D1BCD1BCD1BCD1BCD1BCD1BCD1BCD1BC31
:10175000D1BCD1BCD1BCD1BCD1BCD1BCD1BCD1BC21
:10176000D1BCD1BCD1BCD1BCD1BCD1BCD1BCD1BC11
:10177000D1BCD1BCD1BCD1BCD1BCD1BCD1BCFFFF90
:10178000FFFFFFFFFFFFFFFFD1BCD1BCD1BCD1BC2D
:10179000D1BCD1BCD1BCD1BCD1BCD1BCD1BCD1BCE1
:1017A000D1BCD1BCD1BCD1BCD1BCD1BCD1BCD1BCD1
:1017B000D1BCD1BCD1BCD1BCD1BCD1BCD1BCD1BCC1
:1017C000D1BCD1BCD1BCD1BCD1BCD1BCD1BCD1BCB1
:1017D000FFFFFFFFFFFFFFFFFFFFD1BCD1BCD1BC6C
:1017E000D1BCD1BCD1BCD1BCD1BCD1BCD1BCD1BC91
:1017F000D1BCD1BCD1BCD1BCD1BCD1BCD1BCD1BC81
:10180000D1BCD1BCD1BCD1BCD1BCD1BCD1BCD1BC70
:10181000D1BCD1BCD1BCD1BCD1BCD1BCD1BCFFFFEF
:10182000FFFFFFFFFFFFFFFFD1BCD1BCD1BCD1BC8C
:10183000D1BCD1BCD1BCD1BCD1BCD1BCD1BCD1BC40
:10184000D1BCD1BCD1BCD1BCD1BCD1BCD1BCD1BC30
:10185000D1BCD1BCD1BCD1BCD1BCD1BCD1BCD1BC20
:10186000D1BCD1BCD1BCD1BCD1BCD1BCD1BCD1BC10
:10187000FFFFFFFFFFFFFFFFFFFFD1BCD1BCD1BCCB
:10188000D1BCD1BCD1BCD1BCD1BCD1BCD1BCD1BCF0
:10189000D1BCD1BCD1BCD1BCD1BCD1BCD1BCD1BCE0
:1018A000D1BCD1BCD1BCD1BCD1BCD1BCD1BCD1BCD0
:1018B000D1BCD1BCD1BCD1BCD1BCD1BCD1BCFFFF4F
:1018C000FFFFFFFFFFFFFFFFD1BCD1BCD1BCD1BCEC
:1018D000D1BCD1BCD1BCD1BCD1BCD1BCD1BCD1BCA0
:1018E000D1BCD1BCD1BCD1BCD1BCD1BCD1BCD1BC90
:1018F000D1BCD1BCD1BCD1BCD1BCD1BCD1BCD1BC80
:10190000D1BCD1BCD1BCD1BCD1BCD1BCD1BCD1BC6F
:10191000FFFFFFFFFFFFFFFFFFFFD1BCD1BCD1BC2A
:10192000D1BCD1BCD1BCD1BCD1BCD1BCD1BCD1BC4F
:10193000D1BCD1BCD1BCD1BCD1BCD1BCD1BCD1BC3F
:10194000D1BCD1BCD1BCD1BCD1BCD1BCD1BCD1BC2F
:10195000D1BCD1BCD1BCD1BCD1BCD1BCD1BCFFFFAE
:10196000FFFFFFFFFFFFFFFFD1BCD1BCD1BCD1BC4B
:10197000D1BCD1BCD1BCD1BCD1BCD1BCD1BCD1BCFF
:10198000D1BCD1BCD1BCD1BCD1BCD1BCD1BCD1BCEF
:10199000D1BCD1BCD1BCD1BCD1BCD1BCD1BCD1BCDF
:1019A000D1BCD1BCD1BCD1BCD1BCD1BCD1BCD1BCCF
:1019B000FFFFFFFFFFFFFFFFFFFFD1BCD1BCD1BC8A
:1019C000D1BCD1BCD1BCD1BCD1BCD1BCD1BCD1BCAF
:1019D000D1BCD1BCD1BCD1BCD1BCD1BCD1BCD1BC9F
:1019E000D1BCD1BCD1BCD1BCD1BCD1BCD1BCD1BC8F
:1019F000D1BCD1BCD1BCD1BCD1BCD1BCD1BCFFFF0E
:101A0000FFFFFFFFFFFFFFFFD1BCD1BCD1BCD1BCAA
:101A1000D1BCD1BCD1BCD1BCD1BCD1BCD1BCD1BC5E
:101A2000D1BCD1BCD1BCD1BCD1BCD1BCD1BCD1BC4E
:101A3000D1BCD1BCD1BCD1BCD1BCD1BCD1BCD1BC3E
:101A4000D1BCD1BCD1BCD1BCD1BCD1BCD1BCD1BC2E
:101A5000FFFFFFFFFFFFFFFFFFFFD1BCD1BCD1BCE9
:101A6000D1BCD1BCD1BCD1BCD1BCD1BCD1BCD1BC0E
:101A7000D1BCD1BCD1BCD1BCD1BCD1BCD1BCD1BCFE
:101A8000D1BCD1BCD1BCD1BCD1BCD1BCD1BCD1BCEE
:101A9000D1BCD1BCD1BCD1BCD1BCD1BCD1BCFFFF6D
:101AA000FFFFFFFFFFFFFFFFD1BCD1BCD1BCD1BC0A
:101AB000D1BCD1BCD1BCD1BCD1BCD1BCD1BCD1BCBE
:101AC000D1BCD1BCD1BCD1BCD1BCD1BCD1BCD1BCAE
:101AD000D1BCD1BCD1BCD1BCD1BCD1BCD1BCD1BC9E
:101AE000D1BCD1BCD1BCD1BCD1BCD1BCD1BCD1BC8E
:101AF000FFFFFFFFFFFFFFFFFFFFD1BCD1BCD1BC49
:101B0000D1BCD1BCD1BCD1BCD1BCD1BCD1BCD1BC6D
:101B1000D1BCD1BCD1BCD1BCD1BCD1BCD1BCD1BC5D
:101B2000D1BCD1BCD1BCD1BCD1BCD1BCD1BCD1BC4D
:101B3000D1BCD1BCD1BCD1BCD1BCD1BCD1BCFFFFCC
:101B4000FFFFFFFFFFFFFFFFD1BCD1BCD1BCD1BC69
:101B5000D1BCD1BCD1BCD1BCD1BCD1BCD1BCD1BC1D
:101B6000D1BCD1BCD1BCD1BCD1BCD1BCD1BCD1BC0D
:101B7000D1BCD1BCD1BCD1BCD1BCD1BCD1BCD1BCFD
:101B8000D1BCD1BCD1BCD1BCD1BCD1BCD1BCD1BCED
:101B9000FFFFFFFFFFFFFFFFFFFFD1BCD1BCD1BCA8
:101BA000D1BCD1BCD1BCD1BCD1BCD1BCD1BCD1BCCD
:101BB000D1BCD1BCD1BCD1BCD1BCD1BCD1BCD1BCBD
:101BC000D1BCD1BCD1BCD1BCD1BCD1BCD1BCD1BCAD
:101BD000D1BCD1BCD1BCD1BCD1BCD1BCD1BCFFFF2C
:101BE000FFFFFFFFFFFFFFFFD1BCD1BCD1BCD1BCC9
:101BF000D1BCD1BCD1BCD1BCD1BCD1BCD1BCD1BC7D
:101C0000D1BCD1BCD1BCD1BCD1BCD1BCD1BCD1BC6C
:101C1000D1BCD1BCD1BCD1BCD1BCD1BCD1BCD1BC5C
:101C2000D1BCD1BCD1BCD1BCD1BCD1BCD1BCD1BC4C
:101C3000FFFFFFFFFFFFFFFFFFFFD1BCD1BCD1BC07
:101C4000D1BCD1BCD1BCD1BCD1BCD1BCD1BCD1BC2C
:101C5000D1BCD1BCD1BCD1BCD1BCD1BCD1BCD1BC1C
:101C6000D1BCD1BCD1BCD1BCD1BCD1BCD1BCD1BC0C
:101C7000D1BCD1BCD1BCD1BCD1BCD1BCD1BCFFFF8B
:101C8000FFFFFFFFFFFFFFFFD1BCD1BCD1BCD1BC28
:101C9000D1BCD1BCD1BCD1BCD1BCD1BCD1BCD1BCDC
:101CA000D1BCD1BCD1BCD1BCD1BCD1BCD1BCD1BCCC
:101CB000D1BCD1BCD1BCD1BCD1BCD1BCD1BCD1BCBC
:101CC000D1BCD1BCD1BCD1BCD1BCD1BCD1BCD1BCAC
:101CD000FFFFFFFFFFFFFFFFFFFFD1BCD1BCD1BC67
:101CE000D1BCD1BCD1BCD1BCD1BCD1BCD1BCD1BC8C
:101CF000D1BCD1BCD1BCD1BCD1BCD1BCD1BCD1BC7C
:101D0000D1BCD1BCD1BCD1BCD1BCD1BCD1BCD1BC6B
:101D1000D1BCD1BCD1BCD1BCD1BCD1BCD1BCFFFFEA
:101D2000FFFFFFFFFFFFFFFFD1BCD1BCD1BCD1BC87
:101D3000D1BCD1BCD1BCD1BCD1BCD1BCD1BCD1BC3B
:101D4000D1BCD1BCD1BCD1BCD1BCD1BCD1BCD1BC2B
:101D5000D1BCD1BCD1BCD1BCD1BCD1BCD1BCD1BC1B
:101D6000D1BCD1BCD1BCD1BCD1BCD1BCD1BCD1BC0B
:101D7000FFFFFFFFFFFFFFFFFFFFD1BCD1BCD1BCC6
:101D8000D1BCD1BCD1BCD1BCD1BCD1BCD1BCD1BCEB
:101D9000D1BCD1BCD1BCD1BCD1BCD1BCD1BCD1BCDB
:101DA000D1BCD1BCD1BCD1BCD1BCD1BCD1BCD1BCCB
:101DB000D1BCD1BCD1BCD1BCD1BCD1BCD1BCFFFF4A
:101DC000FFFFFFFFFFFFFFFFD1BCD1BCD1BCD1BCE7
:101DD000D1BCD1BCD1BCD1BCD1BCD1BCD1BCD1BC9B
:101DE000D1BCD1BCD1BCD1BCD1BCD1BCD1BCD1BC8B
:101DF000D1BCD1BCD1BCD1BCD1BCD1BCD1BCD1BC7B
:101E0000D1BCD1BCD1BCD1BCD1BCD1BCD1BCD1BC6A
:101E1000FFFFFFFFFFFFFFFFFFFFD1BCD1BCD1BC25
:101E2000D1BCD1BCD1BCD1BCD1BCD1BCD1BCD1BC4A
:101E3000D1BCD1BCD1BCD1BCD1BCD1BCD1BCD1BC3A
:101E4000D1BCD1BCD1BCD1BCD1BCD1BCD1BCD1BC2A
:101E5000D1BCD1BCD1BCD1BCD1BCD1BCD1BCFFFFA9
:101E6000FFFFFFFFFFFFFFFFD1BCD1BCD1BCD1BC46
:101E7000D1BCD1BCD1BCD1BCD1BCD1BCD1BCD1BCFA
:101E8000D1BCD1BCD1BCD1BCD1BCD1BCD1BCD1BCEA
:101E9000D1BCD1BCD1BCD1BCD1BCD1BCD1BCD1BCDA
:101EA000D1BCD1BCD1BCD1BCD1BCD1BCD1BCD1BCCA
:101EB000FFFFFFFFFFFFFFFFFFFFD1BCD1BCD1BC85
:101EC000D1BCD1BCD1BCD1BCD1BCD1BCD1BCD1BCAA
:101ED000D1BCD1BCD1BCD1BCD1BCD1BCD1BCD1BC9A
:101EE000D1BCD1BCD1BCD1BCD1BCD1BCD1BCD1BC8A
:101EF000D1BCD1BCD1BCD1BCD1BCD1BCD1BCFFFF09
:101F0000FFFFFFFFFFFFFFFFD1BCD1BCD1BCD1BCA5
:101F1000D1BCD1BCD1BCD1BCD1BCD1BCD1BCD1BC59
:101F2000D1BCD1BCD1BCD1BCD1BCD1BCD1BCD1BC49
:101F3000D1BCD1BCD1BCD1BCD1BCD1BCD1BCD1BC39
:101F4000D1BCD1BCD1BCD1BCD1BCD1BCD1BCD1BC29
:101F5000FFFFFFFFFFFFFFFFFFFFD1BCD1BCD1BCE4
:101F6000D1BCD1BCD1BCD1BCD1BCD1BCD1BCD1BC09
:101F7000D1BCD1BCD1BCD1BCD1BCD1BCD1BCD1BCF9
:101F8000D1BCD1BCD1BCD1BCD1BCD1BCD1BCD1BCE9
:101F9000D1BCD1BCD1BCD1BCD1BCD1BCD1BCFFFF68
:101FA000FFFFFFFFFFFFFFFFD1BCD1BCD1BCD1BC05
:101FB000D1BCD1BCD1BCD1BCD1BCD1BCD1BCD1BCB9
:101FC000D1BCD1BCD1BCD1BCD1BCD1BCD1BCD1BCA9
:101FD000D1BCD1BCD1BCD1BCD1BCD1BCD1BCD1BC99
:101FE000D1BCD1BCD1BCD1BCD1BCD1BCD1BCD1BC89
:101FF000FFFFFFFFFFFFFFFFFFFFD1BCD1BCD1BC44
:10200000D1BCD1BCD1BCD1BCD1BCD1BCD1BCD1BC68
:10201000D1BCD1BCD1BCD1BCD1BCD1BCD1BCD1BC58
:10202000D1BCD1BCD1BCD1BCD1BCD1BCD1BCD1BC48
:10203000D1BCD1BCD1BCD1BCD1BCD1BCD1BCFFFFC7
:10204000FFFFFFFFFFFFFFFFD1BCD1BCD1BCD1BC64
:10205000D1BCD1BCD1BCD1BCD1BCD1BCD1BCD1BC18
:10206000D1BCD1BCD1BCD1BCD1BCD1BCD1BCD1BC08
:10207000D1BCD1BCD1BCD1BCD1BCD1BCD1BCD1BCF8
:10208000D1BCD1BCD1BCD1BCD1BCD1BCD1BCD1BCE8
:10209000FFFFFFFFFFFFFFFFFFFFD1BCD1BCD1BCA3
:1020A000D1BCD1BCD1BCD1BCD1BCD1BCD1BCD1BCC8
:1020B000D1BCD1BCD1BCD1BCD1BCD1BCD1BCD1BCB8
:1020C000D1BCD1BCD1BCD1BCD1BCD1BCD1BCD1BCA8
:1020D000D1BCD1BCD1BCD1BCD1BCD1BCD1BCFFFF27
:1020E000FFFFFFFFFFFFFFFFD1BCD1BCD1BCD1BCC4
:1020F000D1BCD1BCD1BCD1BCD1BCD1BCD1BCD1BC78
:10210000D1BCD1BCD1BCD1BCD1BCD1BCD1BCD1BC67
:10211000D1BCD1BCD1BCD1BCD1BCD1BCD1BCD1BC57
:10212000D1BCD1BCD1BCD1BCD1BCD1BCD1BCD1BC47
:10213000FFFFFFFFFFFFFFFFFFFFD1BCD1BCD1BC02
:10214000D1BCD1BCD1BCD1BCD1BCD1BCD1BCD1BC27
:10215000D1BCD1BCD1BCD1BCD1BCD1BCD1BCD1BC17
:10216000D1BCD1BCD1BCD1BCD1BCD1BCD1BCD1BC07
:10217000D1BCD1BCD1BCD1BCD1BCD1BCD1BCFFFF86
:10218000FFFFFFFFFFFFFFFFD1BCD1BCD1BCD1BC23
:10219000D1BCD1BCD1BCD1BCD1BCD1BCD1BCD1BCD7
:1021A000D1BCD1BCD1BCD1BCD1BCD1BCD1BCD1BCC7
:1021B000D1BCD1BCD1BCD1BCD1BCD1BCD1BCD1BCB7
:1021C000D1BCD1BCD1BCD1BCD1BCD1BCD1BCD1BCA7
:1021D000FFFFFFFFFFFFFFFFFFFFD1BCD1BCD1BC62
:1021E000D1BCD1BCD1BCD1BCD1BCD1BCD1BCD1BC87
:1021F000D1BCD1BCD1BCD1BCD1BCD1BCD1BCD1BC77
:10220000D1BCD1BCD1BCD1BCD1BCD1BCD1BCD1BC66
:10221000D1BCD1BCD1BCD1BCD1BCD1BCD1BCFFFFE5
:10222000FFFFFFFFFFFFFFFFD1BCD1BCD1BCD1BC82
:10223000D1BCD1BCD1BCD1BCD1BCD1BCD1BCD1BC36
:10224000D1BCD1BCD1BCD1BCD1BCD1BCD1BCD1BC26
:10225000D1BCD1BCD1BCD1BCD1BCD1BCD1BCD1BC16
:10226000D1BCD1BCD1BCD1BCD1BCD1BCD1BCD1BC06
:10227000FFFFFFFFFFFFFFFFFFFFD1BCD1BCD1BCC1
:10228000D1BCD1BCD1BCD1BCD1BCD1BCD1BCD1BCE6
:10229000D1BCD1BCD1BCD1BCD1BCD1BCD1BCD1BCD6
:1022A000D1BCD1BCD1BCD1BCD1BCD1BCD1BCD1BCC6
:1022B000D1BCD1BCD1BCD1BCD1BCD1BCD1BCFFFF45
:1022C000FFFFFFFFFFFFFFFFD1BCD1BCD1BCD1BCE2
:1022D000D1BCD1BCD1BCD1BCD1BCD1BCD1BCD1BC96
:1022E000D1BCD1BCD1BCD1BCD1BCD1BCD1BCD1BC86
:1022F000D1BCD1BCD1BCD1BCD1BCD1BCD1BCD1BC76
:10230000D1BCD1BCD1BCD1BCD1BCD1BCD1BCD1BC65
:10231000FFFFFFFFFFFFFFFFFFFFD1BCD1BCD1BC20
:10232000D1BCD1BCD1BCD1BCD1BCD1BCD1BCD1BC45
:10233000D1BCD1BCD1BCD1BCD1BCD1BCD1BCD1BC35
:10234000D1BCD1BCD1BCD1BCD1BCD1BCD1BCD1BC25
:10235000D1BCD1BCD1BCD1BCD1BCD1BCD1BCFFFFA4
:10236000FFFFFFFFFFFFFFFFD1BCD1BCD1BCD1BC41
:10237000D1BCD1BCD1BCD1BCD1BCD1BCD1BCD1BCF5
:10238000D1BCD1BCD1BCD1BCD1BCD1BCD1BCD1BCE5
:10239000D1BCD1BCD1BCD1BCD1BCD1BCD1BCD1BCD5
:1023A000D1BCD1BCD1BCD1BCD1BCD1BCD1BCD1BCC5
:1023B000FFFFFFFFFFFFFFFFFFFFD1BCD1BCD1BC80
:1023C000D1BCD1BCD1BCD1BCD1BCD1BCD1BCD1BCA5
:1023D000D1BCD1BCD1BCD1BCD1BCD1BCD1BCD1BC95
:1023E000D1BCD1BCD1BCD1BCD1BCD1BCD1BCD1BC85
:1023F000D1BCD1BCD1BCD1BCD1BCD1BCD1BCFFFF04
:10240000FFFFFFFFFFFFFFFFD1BCD1BCD1BCD1BCA0
:10241000D1BCD1BCD1BCD1BCD1BCD1BCD1BCD1BC54
:10242000D1BCD1BCD1BCD1BCD1BCD1BCD1BCD1BC44
:10243000D1BCD1BCD1BCD1BCD1BCD1BCD1BCD1BC34
:10244000D1BCD1BCD1BCD1BCD1BCD1BCD1BCD1BC24
:10245000FFFFFFFFFFFFFFFFFFFFD1BCD1BCD1BCDF
:10246000D1BCD1BCD1BCD1BCD1BCD1BCD1BCD1BC04
:10247000D1BCD1BCD1BCD1BCD1BCD1BCD1BCD1BCF4
:10248000D1BCD1BCD1BCD1BCD1BCD1BCD1BCD1BCE4
:10249000D1BCD1BCD1BCD1BCD1BCD1BCD1BCFFFF63
:1024A000FFFFFFFFFFFFFFFFD1BCD1BCD1BCD1BC00
:1024B000D1BCD1BCD1BCD1BCD1BCD1BCD1BCD1BCB4
:1024C000D1BCD1BCD1BCD1BCD1BCD1BCD1BCD1BCA4
:1024D000D1BCD1BCD1BCD1BCD1BCD1BCD1BCD1BC94
:1024E000D1BCD1BCD1BCD1BCD1BCD1BCD1BCD1BC84
:1024F000FFFFFFFFFFFFFFFFFFFFD1BCD1BCD1BC3F
:10250000D1BCD1BCD1BCD1BCD1BCD1BCD1BCD1BC63
:10251000D1BCD1BCD1BCD1BCD1BCD1BCD1BCD1BC53
:10252000D1BCD1BCD1BCD1BCD1BCD1BCD1BCD1BC43
:10253000D1BCD1BCD1BCD1BCD1BCD1BCD1BCFFFFC2
:10254000FFFFFFFFFFFFFFFFD1BCD1BCD1BCD1BC5F
:10255000D1BCD1BCD1BCD1BCD1BCD1BCD1BCD1BC13
:10256000D1BCD1BCD1BCD1BCD1BCD1BCD1BCD1BC03
:10257000D1BCD1BCD1BCD1BCD1BCD1BCD1BCD1BCF3
:10258000D1BCD1BCD1BCD1BCD1BCD1BCD1BCD1BCE3
:10259000FFFFFFFFFFFFFFFFFFFFD1BCD1BCD1BC9E
:1025A000D1BCD1BCD1BCD1BCD1BCD1BCD1BCD1BCC3
:1025B000D1BCD1BCD1BCD1BCD1BCD1BCD1BCD1BCB3
:1025C000D1BCD1BCD1BCD1BCD1BCD1BCD1BCD1BCA3
:1025D000D1BCD1BCD1BCD1BCD1BCD1BCD1BCFFFF22
:1025E000FFFFFFFFFFFFFFFFD1BCD1BCD1BCD1BCBF
:1025F000D1BCD1BCD1BCD1BCD1BCD1BCD1BCD1BC73
:10260000D1BCD1BCD1BCD1BCD1BCD1BCD1BCD1BC62
:10261000D1BCD1BCD1BCD1BCD1BCD1BCD1BCD1BC52
:10262000D1BCD1BCD1BCD1BCD1BCD1BCD1BCD1BC42
:10263000FFFFFFFFFFFFFFFFFFFFD1BCD1BCD1BCFD
:10264000D1BCD1BCD1BCD1BCD1BCD1BCD1BCD1BC22
:10265000D1BCD1BCD1BCD1BCD1BCD1BCD1BCD1BC12
:10266000D1BCD1BCD1BCD1BCD1BCD1BCD1BCD1BC02
:10267000D1BCD1BCD1BCD1BCD1BCD1BCD1BCFFFF81
:10268000FFFFFFFFFFFFFFFFD1BCD1BCD1BCD1BC1E
:10269000D1BCD1BCD1BCD1BCD1BCD1BCD1BCD1BCD2
:1026A000D1BCD1BCD1BCD1BCD1BCD1BCD1BCD1BCC2
:1026B000D1BCD1BCD1BCD1BCD1BCD1BCD1BCD1BCB2
:1026C000D1BCD1BCD1BCD1BCD1BCD1BCD1BCD1BCA2
:1026D000FFFFFFFFFFFFFFFFFFFFD1BCD1BCD1BC5D
:1026E000D1BCD1BCD1BCD1BCD1BCD1BCD1BCD1BC82
:1026F000D1BCD1BCD1BCD1BCD1BCD1BCD1BCD1BC72
:10270000D1BCD1BCD1BCD1BCD1BCD1BCD1BCD1BC61
:10271000D1BCD1BCD1BCD1BCD1BCD1BCD1BCFFFFE0
:10272000FFFFFFFFFFFFFFFFD1BCD1BCD1BCD1BC7D
:10273000D1BCD1BCD1BCD1BCD1BCD1BCD1BCD1BC31
:10274000D1BCD1BCD1BCD1BCD1BCD1BCD1BCD1BC21
:10275000D1BCD1BCD1BCD1BCD1BCD1BCD1BCD1BC11
:10276000D1BCD1BCD1BCD1BCD1BCD1BCD1BCD1BC01
:10277000FFFFFFFFFFFFFFFFFFFFD1BCD1BCD1BCBC
:10278000D1BCD1BCD1BCD1BCD1BCD1BCD1BCD1BCE1
:10279000D1BCD1BCD1BCD1BCD1BCD1BCD1BCD1BCD1
:1027A000D1BCD1BCD1BCD1BCD1BCD1BCD1BCD1BCC1
:1027B000D1BCD1BCD1BCD1BCD1BCD1BCD1BCFFFF40
:1027C000FFFFFFFFFFFFFFFFD1BCD1BCD1BCD1BCDD
:1027D000D1BCD1BCD1BCD1BCD1BCD1BCD1BCD1BC91
:1027E000D1BCD1BCD1BCD1BCD1BCD1BCD1BCD1BC81
:1027F000D1BCD1BCD1BCD1BCD1BCD1BCD1BCD1BC71
:10280000D1BCD1BCD1BCD1BCD1BCD1BCD1BCD1BC60
:10281000FFFFFFFFFFFFFFFFFFFFD1BCD1BCD1BC1B
:10282000D1BCD1BCD1BCD1BCD1BCD1BCD1BCD1BC40
:10283000D1BCD1BCD1BCD1BCD1BCD1BCD1BCD1BC30
:10284000D1BCD1BCD1BCD1BCD1BCD1BCD1BCD1BC20
:10285000D1BCD1BCD1BCD1BCD1BCD1BCD1BCFFFF9F
:10286000FFFFFFFFFFFFFFFFD1BCD1BCD1BCD1BC3C
:10287000D1BCD1BCD1BCD1BCD1BCD1BCD1BCD1BCF0
:10288000D1BCD1BCD1BCD1BCD1BCD1BCD1BCD1BCE0
:10289000D1BCD1BCD1BCD1BCD1BCD1BCD1BCD1BCD0
:1028A000D1BCD1BCD1BCD1BCD1BCD1BCD1BCD1BCC0
:1028B000FFFFFFFFFFFFFFFFFFFFD1BCD1BCD1BC7B
:1028C000D1BCD1BCD1BCD1BCD1BCD1BCD1BCD1BCA0
:1028D000D1BCD1BCD1BCD1BCD1BCD1BCD1BCD1BC90
:1028E000D1BCD1BCD1BCD1BCD1BCD1BCD1BCD1BC80
:1028F000D1BCD1BCD1BCD1BCD1BCD1BCD1BCFFFFFF
:10290000FFFFFFFFFFFFFFFFD1BCD1BCD1BCD1BC9B
:10291000D1BCD1BCD1BCD1BCD1BCD1BCD1BCD1BC4F
:10292000D1BCD1BCD1BCD1BCD1BCD1BCD1BCD1BC3F
:10293000D1BCD1BCD1BCD1BCD1BCD1BCD1BCD1BC2F
:10294000D1BCD1BCD1BCD1BCD1BCD1BCD1BCD1BC1F
:10295000FFFFFFFFFFFFFFFFFFFFD1BCD1BCD1BCDA
:10296000D1BCD1BCD1BCD1BCD1BCD1BCD1BCD1BCFF
:10297000D1BCD1BCD1BCD1BCD1BCD1BCD1BCD1BCEF
:10298000D1BCD1BCD1BCD1BCD1BCD1BCD1BCD1BCDF
:10299000D1BCD1BCD1BCD1BCD1BCD1BCD1BCFFFF5E
:1029A000FFFFFFFFFFFFFFFFD1BCD1BCD1BCD1BCFB
:1029B000D1BCD1BCD1BCD1BCD1BCD1BCD1BCD1BCAF
:1029C000D1BCD1BCD1BCD1BCD1BCD1BCD1BCD1BC9F
:1029D000D1BCD1BCD1BCD1BCD1BCD1BCD1BCD1BC8F
:1029E000D1BCD1BCD1BCD1BCD1BCD1BCD1BCD1BC7F
:1029F000FFFFFFFFFFFFFFFFFFFFD1BCD1BCD1BC3A
:102A0000D1BCD1BCD1BCD1BCD1BCD1BCD1BCD1BC5E
:102A1000D1BCD1BCD1BCD1BCD1BCD1BCD1BCD1BC4E
:102A2000D1BCD1BCD1BCD1BCD1BCD1BCD1BCD1BC3E
:102A3000D1BCD1BCD1BCD1BCD1BCD1BCD1BCFFFFBD
:102A4000FFFFFFFFFFFFFFFFD1BCD1BCD1BCD1BC5A
:102A5000D1BCD1BCD1BCD1BCD1BCD1BCD1BCD1BC0E
:102A6000D1BCD1BCD1BCD1BCD1BCD1BCD1BCD1BCFE
:102A7000D1BCD1BCD1BCD1BCD1BCD1BCD1BCD1BCEE
:102A8000D1BCD1BCD1BCD1BCD1BCD1BCD1BCD1BCDE
:102A9000FFFFFFFFFFFFFFFFFFFFD1BCD1BCD1BC99
:102AA000D1BCD1BCD1BCD1BCD1BCD1BCD1BCD1BCBE
:102AB000D1BCD1BCD1BCD1BCD1BCD1BCD1BCD1BCAE
:102AC000D1BCD1BCD1BCD1BCD1BCD1BCD1BCD1BC9E
:102AD000D1BCD1BCD1BCD1BCD1BCD1BCD1BCFFFF1D
:102AE000FFFFFFFFFFFFFFFFD1BCD1BCD1BCD1BCBA
:102AF000D1BCD1BCD1BCD1BCD1BCD1BCD1BCD1BC6E
:102B0000D1BCD1BCD1BCD1BCD1BCD1BCD1BCD1BC5D
:102B1000D1BCD1BCD1BCD1BCD1BCD1BCD1BCD1BC4D
:102B2000D1BCD1BCD1BCD1BCD1BCD1BCD1BCD1BC3D
:102B3000FFFFFFFFFFFFFFFFFFFFD1BCD1BCD1BCF8
:102B4000D1BCD1BCD1BCD1BCD1BCD1BCD1BCD1BC1D
:102B5000D1BCD1BCD1BCD1BCD1BCD1BCD1BCD1BC0D
:102B6000D1BCD1BCD1BCD1BCD1BCD1BCD1BCD1BCFD
:102B7000D1BCD1BCD1BCD1BCD1BCD1BCD1BCFFFF7C
:102B8000FFFFFFFFFFFFFFFFD1BCD1BCD1BCD1BC19
:102B9000D1BCD1BCD1BCD1BCD1BCD1BCD1BCD1BCCD
:102BA000D1BCD1BCD1BCD1BCD1BCD1BCD1BCD1BCBD
:102BB000D1BCD1BCD1BCD1BCD1BCD1BCD1BCD1BCAD
:102BC000D1BCD1BCD1BCD1BCD1BCD1BCD1BCD1BC9D
:102BD000FFFFFFFFFFFFFFFFFFFFD1BCD1BCD1BC58
:102BE000D1BCD1BCD1BCD1BCD1BCD1BCD1BCD1BC7D
:102BF000D1BCD1BCD1BCD1BCD1BCD1BCD1BCD1BC6D
:102C0000D1BCD1BCD1BCD1BCD1BCD1BCD1BCD1BC5C
:102C1000D1BCD1BCD1BCD1BCD1BCD1BCD1BCFFFFDB
:102C2000FFFFFFFFFFFFFFFFD1BCD1BCD1BCD1BC78
:102C3000D1BCD1BCD1BCD1BCD1BCD1BCD1BCD1BC2C
:102C4000D1BCD1BCD1BCD1BCD1BCD1BCD1BCD1BC1C
:102C5000D1BCD1BCD1BCD1BCD1BCD1BCD1BCD1BC0C
:102C6000D1BCD1BCD1BCD1BCD1BCD1BCD1BCD1BCFC
:102C7000FFFFFFFFFFFFFFFFFFFFD1BCD1BCD1BCB7
:102C8000D1BCD1BCD1BCD1BCD1BCD1BCD1BCD1BCDC
:102C9000D1BCD1BCD1BCD1BCD1BCD1BCD1BCD1BCCC
:102CA000D1BCD1BCD1BCD1BCD1BCD1BCD1BCD1BCBC
:102CB000D1BCD1BCD1BCD1BCD1BCD1BCD1BCFFFF3B
:102CC000FFFFFFFFFFFFFFFFD1BCD1BCD1BCD1BCD8
:102CD000D1BCD1BCD1BCD1BCD1BCD1BCD1BCD1BC8C
:102CE000D1BCD1BCD1BCD1BCD1BCD1BCD1BCD1BC7C
:102CF000D1BCD1BCD1BCD1BCD1BCD1BCD1BCD1BC6C
:102D0000D1BCD1BCD1BCD1BCD1BCD1BCD1BCD1BC5B
:102D1000FFFFFFFFFFFFFFFFFFFFD1BCD1BCD1BC16
:102D2000D1BCD1BCD1BCD1BCD1BCD1BCD1BCD1BC3B
:102D3000D1BCD1BCD1BCD1BCD1BCD1BCD1BCD1BC2B
:102D4000D1BCD1BCD1BCD1BCD1BCD1BCD1BCD1BC1B
:102D5000D1BCD1BCD1BCD1BCD1BCD1BCD1BCFFFF9A
:102D6000FFFFFFFFFFFFFFFFD1BCD1BCD1BCD1BC37
:102D7000D1BCD1BCD1BCD1BCD1BCD1BCD1BCD1BCEB
:102D8000D1BCD1BCD1BCD1BCD1BCD1BCD1BCD1BCDB
:102D9000D1BCD1BCD1BCD1BCD1BCD1BCD1BCD1BCCB
:102DA000D1BCD1BCD1BCD1BCD1BCD1BCD1BCD1BCBB
:102DB000FFFFFFFFFFFFFFFFFFFFD1BCD1BCD1BC76
:102DC000D1BCD1BCD1BCD1BCD1BCD1BCD1BCD1BC9B
:102DD000D1BCD1BCD1BCD1BCD1BCD1BCD1BCD1BC8B
:102DE000D1BCD1BCD1BCD1BCD1BCD1BCD1BCD1BC7B
:102DF000D1BCD1BCD1BCD1BCD1BCD1BCD1BCFFFFFA
:102E0000FFFFFFFFFFFFFFFFD1BCD1BCD1BCD1BC96
:102E1000D1BCD1BCD1BCD1BCD1BCD1BCD1BCD1BC4A
:102E2000D1BCD1BCD1BCD1BCD1BCD1BCD1BCD1BC3A
:102E3000D1BCD1BCD1BCD1BCD1BCD1BCD1BCD1BC2A
:102E4000D1BCD1BCD1BCD1BCD1BCD1BCD1BCD1BC1A
:102E5000FFFFFFFFFFFFFFFFFFFFD1BCD1BCD1BCD5
:102E6000D1BCD1BCD1BCD1BCD1BCD1BCD1BCD1BCFA
:102E7000D1BCD1BCD1BCD1BCD1BCD1BCD1BCD1BCEA
:102E8000D1BCD1BCD1BCD1BCD1BCD1BCD1BCD1BCDA
:102E9000D1BCD1BCD1BCD1BCD1BCD1BCD1BCFFFF59
:102EA000FFFFFFFFFFFFFFFFD1BCD1BCD1BCD1BCF6
:102EB000D1BCD1BCD1BCD1BCD1BCD1BCD1BCD1BCAA
:102EC000D1BCD1BCD1BCD1BCD1BCD1BCD1BCD1BC9A
:102ED000D1BCD1BCD1BCD1BCD1BCD1BCD1BCD1BC8A
:102EE000D1BCD1BCD1BCD1BCD1BCD1BCD1BCD1BC7A
:102EF000FFFFFFFFFFFFFFFFFFFFD1BCD1BCD1BC35
:102F0000D1BCD1BCD1BCD1BCD1BCD1BCD1BCD1BC59
:102F1000D1BCD1BCD1BCD1BCD1BCD1BCD1BCD1BC49
:102F2000D1BCD1BCD1BCD1BCD1BCD1BCD1BCD1BC39
:102F3000D1BCD1BCD1BCD1BCD1BCD1BCD1BCFFFFB8
:102F4000FFFFFFFFFFFFFFFFD1BCD1BCD1BCD1BC55
:102F5000D1BCD1BCD1BCD1BCD1BCD1BCD1BCD1BC09
:102F6000D1BCD1BCD1BCD1BCD1BCD1BCD1BCD1BCF9
:102F7000D1BCD1BCD1BCD1BCD1BCD1BCD1BCD1BCE9
:102F8000D1BCD1BCD1BCD1BCD1BCD1BCD1BCD1BCD9
:102F9000FFFFFFFFFFFFFFFFFFFFD1BCD1BCD1BC94
:102FA000D1BCD1BCD1BCD1BCD1BCD1BCD1BCD1BCB9
:102FB000D1BCD1BCD1BCD1BCD1BCD1BCD1BCD1BCA9
:102FC000D1BCD1BCD1BCD1BCD1BCD1BCD1BCD1BC99
:102FD000D1BCD1BCD1BCD1BCD1BCD1BCD1BCFFFF18
:102FE000FFFFFFFFFFFFFFFFD1BCD1BCD1BCD1BCB5
:102FF000D1BCD1BCD1BCD1BCD1BCD1BCD1BCD1BC69
:10300000D1BCD1BCD1BCD1BCD1BCD1BCD1BCD1BC58
:10301000D1BCD1BCD1BCD1BCD1BCD1BCD1BCD1BC48
:10302000D1BCD1BCD1BCD1BCD1BCD1BCD1BCD1BC38
:10303000FFFFFFFFFFFFFFFFFFFFD1BCD1BCD1BCF3
:10304000D1BCD1BCD1BCD1BCD1BCD1BCD1BCD1BC18
:10305000D1BCD1BCD1BCD1BCD1BCD1BCD1BCD1BC08
:10306000D1BCD1BCD1BCD1BCD1BCD1BCD1BCD1BCF8
:10307000D1BCD1BCD1BCD1BCD1BCD1BCD1BCFFFF77
:10308000FFFFFFFFFFFFFFFFD1BCD1BCD1BCD1BC14
:10309000D1BCD1BCD1BCD1BCD1BCD1BCD1BCD1BCC8
:1030A000D1BCD1BCD1BCD1BCD1BCD1BCD1BCD1BCB8
:1030B000D1BCD1BCD1BCD1BCD1BCD1BCD1BCD1BCA8
:1030C000D1BCD1BCD1BCD1BCD1BCD1BCD1BCD1BC98
:1030D000FFFFFFFFFFFFFFFFFFFFD1BCD1BCD1BC53
:1030E000D1BCD1BCD1BCD1BCD1BCD1BCD1BCD1BC78
:1030F000D1BCD1BCD1BCD1BCD1BCD1BCD1BCD1BC68
:10310000D1BCD1BCD1BCD1BCD1BCD1BCD1BCD1BC57
:10311000D1BCD1BCD1BCD1BCD1BCD1BCD1BCFFFFD6
:10312000FFFFFFFFFFFFFFFFD1BCD1BCD1BCD1BC73
:10313000D1BCD1BCD1BCD1BCD1BCD1BCD1BCD1BC27
:10314000D1BCD1BCD1BCD1BCD1BCD1BCD1BCD1BC17
:10315000D1BCD1BCD1BCD1BCD1BCD1BCD1BCD1BC07
:10316000D1BCD1BCD1BCD1BCD1BCD1BCD1BCD1BCF7
:10317000FFFFFFFFFFFFFFFFFFFFD1BCD1BCD1BCB2
:10318000D1BCD1BCD1BCD1BCD1BCD1BCD1BCD1BCD7
:10319000D1BCD1BCD1BCD1BCD1BCD1BCD1BCD1BCC7
:1031A000D1BCD1BCD1BCD1BCD1BCD1BCD1BCD1BCB7
:1031B000D1BCD1BCD1BCD1BCD1BCD1BCD1BCFFFF36
:1031C000FFFFFFFFFFFFFFFFD1BCD1BCD1BCD1BCD3
:1031D000D1BCD1BCD1BCD1BCD1BCD1BCD1BCD1BC87
:1031E000D1BCD1BCD1BCD1BCD1BCD1BCD1BCD1BC77
:1031F000D1BCD1BCD1BCD1BCD1BCD1BCD1BCD1BC67
:10320000D1BCD1BCD1BCD1BCD1BCD1BCD1BCD1BC56
:10321000FFFFFFFFFFFFFFFFFFFFD1BCD1BCD1BC11
:10322000D1BCD1BCD1BCD1BCD1BCD1BCD1BCD1BC36
:10323000D1BCD1BCD1BCD1BCD1BCD1BCD1BCD1BC26
:10324000D1BCD1BCD1BCD1BCD1BCD1BCD1BCD1BC16
:10325000D1BCD1BCD1BCD1BCD1BCD1BCD1BCFFFF95
:10326000FFFFFFFFFFFFFFFFD1BCD1BCD1BCD1BC32
:10327000D1BCD1BCD1BCD1BCD1BCD1BCD1BCD1BCE6
:10328000D1BCD1BCD1BCD1BCD1BCD1BCD1BCD1BCD6
:10329000D1BCD1BCD1BCD1BCD1BCD1BCD1BCD1BCC6
:1032A000D1BCD1BCD1BCD1BCD1BCD1BCD1BCD1BCB6
:1032B000FFFFFFFFFFFFFFFFFFFFD1BCD1BCD1BC71
:1032C000D1BCD1BCD1BCD1BCD1BCD1BCD1BCD1BC96
:1032D000D1BCD1BCD1BCD1BCD1BCD1BCD1BCD1BC86
:1032E000D1BCD1BCD1BCD1BCD1BCD1BCD1BCD1BC76
:1032F000D1BCD1BCD1BCD1BCD1BCD1BCD1BCFFFFF5
:10330000FFFFFFFFFFFFFFFFD1BCD1BCD1BCD1BC91
:10331000D1BCD1BCD1BCD1BCD1BCD1BCD1BCD1BC45
:10332000D1BCD1BCD1BCD1BCD1BCD1BCD1BCD1BC35
:10333000D1BCD1BCD1BCD1BCD1BCD1BCD1BCD1BC25
:10334000D1BCD1BCD1BCD1BCD1BCD1BCD1BCD1BC15
:10335000FFFFFFFFFFFFFFFFFFFFD1BCD1BCD1BCD0
:10336000D1BCD1BCD1BCD1BCD1BCD1BCD1BCD1BCF5
:10337000D1BCD1BCD1BCD1BCD1BCD1BCD1BCD1BCE5
:10338000D1BCD1BCD1BCD1BCD1BCD1BCD1BCD1BCD5
:10339000D1BCD1BCD1BCD1BCD1BCD1BCD1BCFFFF54
:1033A000FFFFFFFFFFFFFFFFD1BCD1BCD1BCD1BCF1
:1033B000D1BCD1BCD1BCD1BCD1BCD1BCD1BCD1BCA5
:1033C000D1BCD1BCD1BCD1BCD1BCD1BCD1BCD1BC95
:1033D000D1BCD1BCD1BCD1BCD1BCD1BCD1BCD1BC85
:1033E000D1BCD1BCD1BCD1BCD1BCD1BCD1BCD1BC75
:1033F000FFFFFFFFFFFFFFFFFFFFD1BCD1BCD1BC30
:10340000D1BCD1BCD1BCD1BCD1BCD1BCD1BCD1BC54
:10341000D1BCD1BCD1BCD1BCD1BCD1BCD1BCD1BC44
:10342000D1BCD1BCD1BCD1BCD1BCD1BCD1BCD1BC34
:10343000D1BCD1BCD1BCD1BCD1BCD1BCD1BCFFFFB3
:10344000FFFFFFFFFFFFFFFFD1BCD1BCD1BCD1BC50
:10345000D1BCD1BCD1BCD1BCD1BCD1BCD1BCD1BC04
:10346000D1BCD1BCD1BCD1BCD1BCD1BCD1BCD1BCF4
:10347000D1BCD1BCD1BCD1BCD1BCD1BCD1BCD1BCE4
:10348000D1BCD1BCD1BCD1BCD1BCD1BCD1BCD1BCD4
:10349000FFFFFFFFFFFFFFFFFFFFD1BCD1BCD1BC8F
:1034A000D1BCD1BCD1BCD1BCD1BCD1BCD1BCD1BCB4
:1034B000D1BCD1BCD1BCD1BCD1BCD1BCD1BCD1BCA4
:1034C000D1BCD1BCD1BCD1BCD1BCD1BCD1BCD1BC94
:1034D000D1BCD1BCD1BCD1BCD1BCD1BCD1BCFFFF13
:1034E000FFFFFFFFFFFFFFFFD1BCD1BCD1BCD1BCB0
:1034F000D1BCD1BCD1BCD1BCD1BCD1BCD1BCD1BC64
:10350000D1BCD1BCD1BCD1BCD1BCD1BCD1BCD1BC53
:10351000D1BCD1BCD1BCD1BCD1BCD1BCD1BCD1BC43
:10352000D1BCD1BCD1BCD1BCD1BCD1BCD1BCD1BC33
:10353000FFFFFFFFFFFFFFFFFFFFD1BCD1BCD1BCEE
:10354000D1BCD1BCD1BCD1BCD1BCD1BCD1BCD1BC13
:10355000D1BCD1BCD1BCD1BCD1BCD1BCD1BCD1BC03
:10356000D1BCD1BCD1BCD1BCD1BCD1BCD1BCD1BCF3
:10357000D1BCD1BCD1BCD1BCD1BCD1BCD1BCFFFF72
:10358000FFFFFFFFFFFFFFFFD1BCD1BCD1BCD1BC0F
:10359000D1BCD1BCD1BCD1BCD1BCD1BCD1BCD1BCC3
:1035A000D1BCD1BCD1BCD1BCD1BCD1BCD1BCD1BCB3
:1035B000D1BCD1BCD1BCD1BCD1BCD1BCD1BCD1BCA3
:1035C000D1BCD1BCD1BCD1BCD1BCD1BCD1BCD1BC93
:1035D000FFFFFFFFFFFFFFFFFFFFD1BCD1BCD1BC4E
:1035E000D1BCD1BCD1BCD1BCD1BCD1BCD1BCD1BC73
:1035F000D1BCD1BCD1BCD1BCD1BCD1BCD1BCD1BC63
:10360000D1BCD1BCD1BCD1BCD1BCD1BCD1BCD1BC52
:10361000D1BCD1BCD1BCD1BCD1BCD1BCD1BCFFFFD1
:10362000FFFFFFFFFFFFFFFFD1BCD1BCD1BCD1BC6E
:10363000D1BCD1BCD1BCD1BCD1BCD1BCD1BCD1BC22
:10364000D1BCD1BCD1BCD1BCD1BCD1BCD1BCD1BC12
:10365000D1BCD1BCD1BCD1BCD1BCD1BCD1BCD1BC02
:10366000D1BCD1BCD1BCD1BCD1BCD1BCD1BCD1BCF2
:10367000FFFFFFFFFFFFFFFFFFFFD1BCD1BCD1BCAD
:10368000D1BCD1BCD1BCD1BCD1BCD1BCD1BCD1BCD2
:10369000D1BCD1BCD1BCD1BCD1BCD1BCD1BCD1BCC2
:1036A000D1BCD1BCD1BCD1BCD1BCD1BCD1BCD1BCB2
:1036B000D1BCD1BCD1BCD1BCD1BCD1BCD1BCFFFF31
:1036C000FFFFFFFFFFFFFFFFD1BCD1BCD1BCD1BCCE
:1036D000D1BCD1BCD1BCD1BCD1BCD1BCD1BCD1BC82
:1036E000D1BCD1BCD1BCD1BCD1BCD1BCD1BCD1BC72
:1036F000D1BCD1BCD1BCD1BCD1BCD1BCD1BCD1BC62
:10370000D1BCD1BCD1BCD1BCD1BCD1BCD1BCD1BC51
:10371000FFFFFFFFFFFFFFFFFFFFD1BCD1BCD1BC0C
:10372000D1BCD1BCD1BCD1BCD1BCD1BCD1BCD1BC31
:10373000D1BCD1BCD1BCD1BCD1BCD1BCD1BCD1BC21
:10374000D1BCD1BCD1BCD1BCD1BCD1BCD1BCD1BC11
:10375000D1BCD1BCD1BCD1BCD1BCD1BCD1BCFFFF90
:10376000FFFFFFFFFFFFFFFFD1BCD1BCD1BCD1BC2D
:10377000D1BCD1BCD1BCD1BCD1BCD1BCD1BCD1BCE1
:10378000D1BCD1BCD1BCD1BCD1BCD1BCD1BCD1BCD1
:10379000D1BCD1BCD1BCD1BCD1BCD1BCD1BCD1BCC1
:1037A000D1BCD1BCD1BCD1BCD1BCD1BCD1BCD1BCB1
:1037B000FFFFFFFFFFFFFFFFFFFFD1BCD1BCD1BC6C
:1037C000D1BCD1BCD1BCD1BCD1BCD1BCD1BCD1BC91
:1037D000D1BCD1BCD1BCD1BCD1BCD1BCD1BCD1BC81
:1037E000D1BCD1BCD1BCD1BCD1BCD1BCD1BCD1BC71
:1037F000D1BCD1BCD1BCD1BCD1BCD1BCD1BCFFFFF0
:10380000FFFFFFFFFFFFFFFFD1BCD1BCD1BCD1BC8C
:10381000D1BCD1BCD1BCD1BCD1BCD1BCD1BCD1BC40
:10382000D1BCD1BCD1BCD1BCD1BCD1BCD1BCD1BC30
:10383000D1BCD1BCD1BCD1BCD1BCD1BCD1BCD1BC20
:10384000D1BCD1BCD1BCD1BCD1BCD1BCD1BCD1BC10
:10385000FFFFFFFFFFFFFFFFFFFFD1BCD1BCD1BCCB
:10386000D1BCD1BCD1BCD1BCD1BCD1BCD1BCD1BCF0
:10387000D1BCD1BCD1BCD1BCD1BCD1BCD1BCD1BCE0
:10388000D1BCD1BCD1BCD1BCD1BCD1BCD1BCD1BCD0
:10389000D1BCD1BCD1BCD1BCD1BCD1BCD1BCFFFF4F
:1038A000FFFFFFFFFFFFFFFFD1BCD1BCD1BCD1BCEC
:1038B000D1BCD1BCD1BCD1BCD1BCD1BCD1BCD1BCA0
:1038C000D1BCD1BCD1BCD1BCD1BCD1BCD1BCD1BC90
:1038D000D1BCD1BCD1BCD1BCD1BCD1BCD1BCD1BC80
:1038E000D1BCD1BCD1BCD1BCD1BCD1BCD1BCD1BC70
:1038F000FFFFFFFFFFFFFFFFFFFFD1BCD1BCD1BC2B
:10390000D1BCD1BCD1BCD1BCD1BCD1BCD1BCD1BC4F
:10391000D1BCD1BCD1BCD1BCD1BCD1BCD1BCD1BC3F
:10392000D1BCD1BCD1BCD1BCD1BCD1BCD1BCD1BC2F
:10393000D1BCD1BCD1BCD1BCD1BCD1BCD1BCFFFFAE
:10394000FFFFFFFFFFFFFFFFD1BCD1BCD1BCD1BC4B
:10395000D1BCD1BCD1BCD1BCD1BCD1BCD1BCD1BCFF
:10396000D1BCD1BCD1BCD1BCD1BCD1BCD1BCD1BCEF
:10397000D1BCD1BCD1BCD1BCD1BCD1BCD1BCD1BCDF
:10398000D1BCD1BCD1BCD1BCD1BCD1BCD1BCD1BCCF
:10399000FFFFFFFFFFFFFFFFFFFFD1BCD1BCD1BC8A
:1039A000D1BCD1BCD1BCD1BCD1BCD1BCD1BCD1BCAF
:1039B000D1BCD1BCD1BCD1BCD1BCD1BCD1BCD1BC9F
:1039C000D1BCD1BCD1BCD1BCD1BCD1BCD1BCD1BC8F
:1039D000D1BCD1BCD1BCD1BCD1BCD1BCD1BCFFFF0E
:1039E000FFFFFFFFFFFFFFFFD1BCD1BCD1BCD1BCAB
:1039F000D1BCD1BCD1BCD1BCD1BCD1BCD1BCD1BC5F
:103A0000D1BCD1BCD1BCD1BCD1BCD1BCD1BCD1BC4E
:103A1000D1BCD1BCD1BCD1BCD1BCD1BCD1BCD1BC3E
:103A2000D1BCD1BCD1BCD1BCD1BCD1BCD1BCD1BC2E
:103A3000FFFFFFFFFFFFFFFFFFFFD1BCD1BCD1BCE9
:103A4000D1BCD1BCD1BCD1BCD1BCD1BCD1BCD1BC0E
:103A5000D1BCD1BCD1BCD1BCD1BCD1BCD1BCD1BCFE
:103A6000D1BCD1BCD1BCD1BCD1BCD1BCD1BCD1BCEE
:103A7000D1BCD1BCD1BCD1BCD1BCD1BCD1BCFFFF6D
:103A8000FFFFFFFFFFFFFFFFD1BCD1BCD1BCD1BC0A
:103A9000D1BCD1BCD1BCD1BCD1BCD1BCD1BCD1BCBE
:103AA000D1BCD1BCD1BCD1BCD1BCD1BCD1BCD1BCAE
:103AB000D1BCD1BCD1BCD1BCD1BCD1BCD1BCD1BC9E
:103AC000D1BCD1BCD1BCD1BCD1BCD1BCD1BCD1BC8E
:103AD000FFFFFFFFFFFFFFFFFFFFD1BCD1BCD1BC49
:103AE000D1BCD1BCD1BCD1BCD1BCD1BCD1BCD1BC6E
:103AF000D1BCD1BCD1BCD1BCD1BCD1BCD1BCD1BC5E
:103B0000D1BCD1BCD1BCD1BCD1BCD1BCD1BCD1BC4D
:103B1000D1BCD1BCD1BCD1BCD1BCD1BCD1BCFFFFCC
:103B2000FFFFFFFFFFFFFFFFD1BCD1BCD1BCD1BC69
:103B3000D1BCD1BCD1BCD1BCD1BCD1BCD1BCD1BC1D
:103B4000D1BCD1BCD1BCD1BCD1BCD1BCD1BCD1BC0D
:103B5000D1BCD1BCD1BCD1BCD1BCD1BCD1BCD1BCFD
:103B6000D1BCD1BCD1BCD1BCD1BCD1BCD1BCD1BCED
:103B7000FFFFFFFFFFFFFFFFFFFFD1BCD1BCD1BCA8
:103B8000D1BCD1BCD1BCD1BCD1BCD1BCD1BCD1BCCD
:103B9000D1BCD1BCD1BCD1BCD1BCD1BCD1BCD1BCBD
:103BA000D1BCD1BCD1BCD1BCD1BCD1BCD1BCD1BCAD
:103BB000D1BCD1BCD1BCD1BCD1BCD1BCD1BCFFFF2C
:103BC000FFFFFFFFFFFFFFFFD1BCD1BCD1BCD1BCC9
:103BD000D1BCD1BCD1BCD1BCD1BCD1BCD1BCD1BC7D
:103BE000D1BCD1BCD1BCD1BCD1BCD1BCD1BCD1BC6D
:103BF000D1BCD1BCD1BCD1BCD1BCD1BCD1BCD1BC5D
:103C0000D1BCD1BCD1BCD1BCD1BCD1BCD1BCD1BC4C
:103C1000FFFFFFFFFFFFFFFFFFFFD1BCD1BCD1BC07
:103C2000D1BCD1BCD1BCD1BCD1BCD1BCD1BCD1BC2C
:103C3000D1BCD1BCD1BCD1BCD1BCD1BCD1BCD1BC1C
:103C4000D1BCD1BCD1BCD1BCD1BCD1BCD1BCD1BC0C
:103C5000D1BCD1BCD1BCD1BCD1BCD1BCD1BCFFFF8B
:103C6000FFFFFFFFFFFFFFFFD1BCD1BCD1BCD1BC28
:103C7000D1BCD1BCD1BCD1BCD1BCD1BCD1BCD1BCDC
:103C8000D1BCD1BCD1BCD1BCD1BCD1BCD1BCD1BCCC
:103C9000D1BCD1BCD1BCD1BCD1BCD1BCD1BCD1BCBC
:103CA000D1BCD1BCD1BCD1BCD1BCD1BCD1BCD1BCAC
:103CB000FFFFFFFFFFFFFFFFFFFFD1BCD1BCD1BC67
:103CC000D1BCD1BCD1BCD1BCD1BCD1BCD1BCD1BC8C
:103CD000D1BCD1BCD1BCD1BCD1BCD1BCD1BCD1BC7C
:103CE000D1BCD1BCD1BCD1BCD1BCD1BCD1BCD1BC6C
:103CF000D1BCD1BCD1BCD1BCD1BCD1BCD1BCFFFFEB
:103D0000FFFFFFFFFFFFFFFFD1BCD1BCD1BCD1BC87
:103D1000D1BCD1BCD1BCD1BCD1BCD1BCD1BCD1BC3B
:103D2000D1BCD1BCD1BCD1BCD1BCD1BCD1BCD1BC2B
:103D3000D1BCD1BCD1BCD1BCD1BCD1BCD1BCD1BC1B
:103D4000D1BCD1BCD1BCD1BCD1BCD1BCD1BCD1BC0B
:103D5000FFFFFFFFFFFFFFFFFFFFFFFFD1BCD1BC55
:103D6000D1BCD1BCD1BCD1BCD1BCD1BCD1BCD1BCEB
:103D7000D1BCD1BCD1BCD1BCD1BCD1BCD1BCD1BCDB
:103D8000D1BCD1BCD1BCD1BCD1BCD1BCD1BCD1BCCB
:103D9000D1BCD1BCD1BCD1BCD1BCD1BCFFFFFFFFD9
:103DA000FFFFFFFFFFFFFFFFD1BCD1BCD1BCD1BCE7
:103DB000D1BCD1BCD1BCD1BCD1BCD1BCD1BCD1BC9B
:103DC000D1BCD1BCD1BCD1BCD1BCD1BCD1BCD1BC8B
:103DD000D1BCD1BCD1BCD1BCD1BCD1BCD1BCD1BC7B
:103DE000D1BCD1BCD1BCD1BCD1BCD1BCD1BCD1BC6B
:103DF000FFFFFFFFFFFFFFFFFFFFFFFFFFFFD1BC44
:103E0000D1BCD1BCD1BCD1BCD1BCD1BCD1BCD1BC4A
:103E1000D1BCD1BCD1BCD1BCD1BCD1BCD1BCD1BC3A
:103E2000D1BCD1BCD1BCD1BCD1BCD1BCD1BCD1BC2A
:103E3000D1BCD1BCD1BCD1BCD1BCFFFFFFFFFFFFC7
:103E4000FFFFFFFFFFFFFFFFD1BCD1BCD1BCD1BC46
:103E5000D1BCD1BCD1BCD1BCD1BCD1BCD1BCD1BCFA
:103E6000D1BCD1BCD1BCD1BCD1BCD1BCD1BCD1BCEA
:103E7000D1BCD1BCD1BCD1BCD1BCD1BCD1BCD1BCDA
:103E8000D1BCD1BCD1BCD1BCD1BCD1BCD1BCD1BCCA
:103E9000DFFFFFFFFFFFFFFFFFFFFFFFFFFFFFFF52
:103EA000FFFFFFFFFFFFFFFFFFFFFFFFFFFFFFFF22
:103EB000FFFFFFFFFFFFFFFFFFFFFFFFFFFFFFFF12
:103EC000FFFFFFFFFFFFFFFFFFFFFFFFFFFFFFFF02
:103ED000FFFFFFFFFFFFFFFFFFFFFFFFFFFFFFFFF2
:103EE000FFFFFFFFFFFFFFFFD1BCD1BCD1BCD1BCA6
:103EF000D1BCD1BCD1BCD1BCD1BCD1BCD1BCD1BC5A
:103F0000D1BCD1BCD1BCD1BCD1BCD1BCD1BCD1BC49
:103F1000D1BCD1BCD1BCD1BCD1BCD1BCD1BCD1BC39
:103F2000D1BCD1BCD1BCD1BCD1BCD1BCD1BCD1BC29
:103F3000FFFFFFFFFFFFFFFFFFFFFFFFFFFFFFFF91
:103F4000FFFFFFFFFFFFFFFFFFFFFFFFFFFFFFFF81
:103F5000FFFFFFFFFFFFFFFFFFFFFFFFFFFFFFFF71
:103F6000FFFFFFFFFFFFFFFFFFFFFFFFFFFFFFFF61
:103F7000FFFFFFFFFFFFFFFFFFFFFFFFFFFFFFFF51
:103F8000FFFFFFFFFFFFFFFFD1BCD1BCD1BCD1BC05
:103F9000D1BCD1BCD1BCD1BCD1BCD1BCD1BCD1BCB9
:103FA000D1BCD1BCD1BCD1BCD1BCD1BCD1BCD1BCA9
:103FB000D1BCD1BCD1BCD1BCD1BCD1BCD1BCD1BC99
:103FC000D1BCD1BCD1BCD1BCD1BCD1BCD1BCD1BC89
:103FD000D1BCFFFFFFFFFFFFFFFFFFFFFFFFFFFF62
:103FE000FFFFFFFFFFFFFFFFFFFFFFFFFFFFFFFFE1
:103FF000FFFFFFFFFFFFFFFFFFFFFFFFFFFFFFFFD1
:10400000FFFFFFFFFFFFFFFFFFFFFFFFFFFFFFFFC0
:10401000FFFFFFFFFFFFFFFFFFFFFFFFFFFFFFFFB0
:10402000FFFFFFFFFFFFD1BCD1BCD1BCD1BCD1BCD5
:10403000D1BCD1BCD1BCD1BCD1BCD1BCD1BCD1BC18
:10404000D1BCD1BCD1BCD1BCD1BCD1BCD1BCD1BC08
:10405000D1BCD1BCD1BCD1BCD1BCD1BCD1BCD1BCF8
:10406000D1BCD1BCD1BCD1BCD1BCD1BCD1BCD1BCE8
:10407000D1BCD1BCFFFFFFFFFFFFFFFFFFFFFFFF32
:10408000FFFFFFFFFFFFFFFFFFFFFFFFFFFFFFFF40
:10409000FFFFFFFFFFFFFFFFFFFFFFFFFFFFFFFF30
:1040A000FFFFFFFFFFFFFFFFFFFFFFFFFFFFFFFF20
:1040B000FFFFFFFFFFFFFFFFFFFFFFFFFFFFFFFF10
:1040C000FFFFFFFFD1BCD1BCD1BCD1BCD1BCD1BCA6
:1040D000D1BCD1BCD1BCD1BCD1BCD1BCD1BCD1BC78
:1040E000D1BCD1BCD1BCD1BCD1BCD1BCD1BCD1BC68
:1040F000D1BCD1BCD1BCD1BCD1BCD1BCD1BCD1BC58
:10410000D1BCD1BCD1BCD1BCD1BCD1BCD1BCD1BC47
:10411000D1BCD1BCD1BCFFFFDFFFFFFFFFFFFFFF22
:10412000FFFFFFFFFFFFFFFFFFFFFFFFFFFFFFFF9F
:10413000FFFFFFFFFFFFFFFFFFFFFFFFFFFFFFFF8F
:10414000FFFFFFFFFFFFFFFFFFFFFFFFFFFFFFFF7F
:10415000FFFFFFFFFFFFFFFFFFFFFFFFFFFFFFFF6F
:10416000FFFFD1BCD1BCD1BCD1BCD1BCD1BCD1BC76
:10417000D1BCD1BCD1BCD1BCD1BCD1BCD1BCD1BCD7
:10418000D1BCD1BCD1BCD1BCD1BCD1BC00000000E1
:104190000000005F00000003000300143E143E1402
:1041A000242A7F2A1243330866613649552250007B
:1041B00005030000001C2241000041221C001408DD
:1041C0003E081408083E080800503000000808089F
:1041D0000808006060000020100804023E514945B4
:1041E0003E0004027F00426151494622414949365E
:1041F0001814127F1027454545393E494949320177
:10420000017109073649494936264949493E003670
:104210003600000056360000081422410014141421
:104220001414004122140802015109063E41595557
:104230005E7E0909097E7F494949363E4141412256
:104240007F4141413E7F494949417F090909013E7A
:104250004141493A7F0808087F00417F41003040D2
:1042600040403F7F081422417F404040407F020C85
:10427000027F7F0204087F3E4141413E7F090909D8
:10428000061E2121215E7F09090976264949493206
:1042900001017F01013F4040403F1F2040201F7F20
:1042A0002010207F41221C2241070870080761511D
:1042B000494543007F4100000204081020000041EE
:1042C0007F0004020102044040404040000102041B
:1042D0000020545454787F4444443838444444447F
:1042E000384444447F385454541804047E05050867
:1042F0005454543C7F0804047800447D400020401E
:10430000443D007F1028440000417F40007C047839
:1043100004787C0804047838444444387C14141429
:1043200008081414147C007C0804044854545420D5
:1043300004043F44443C4040207C1C2040201C3C62
:104340004030403C44281028440C5050503C4464B9
:10435000544C44000836414100007F000041413682
:104360000800020102040200407A10F35A00A07211
:104370004E18090010A5D4E80000E87648170000A0
:10438000E40B54020000CA9A3B000000E1F505006E
:104390000080969800000040420F000000A08601B7
:1043A000000000102700000000E803000000006487
:1043B00000000000000A00000000000100000000F2
:1043C000002C76D888DC674F0823DFC1DFAE59E1C7
:1043D000B1B796E5E3E453C63AE651997696E8E636
:1043E000C28426EB898C9B62ED407C6FFCEFBC9C09
:1043F0009F40F2BAA56FA5F490055A2AF75C936B1B
:104400006CF9676DC11BFCE0E40D47FEF520E6B5D5
:1044100000D0ED902E0300943577050080841E08AF
:104420000000204E0A000000C80C333333330F98CD
:104430006E12831141EF8D2114893BE65516CFFE94
:10444000E6DB18D1844B381BF77C1D901DA4BBE420
:1044500024203284725E228100C9F124ECA1E53D62
:10446000270011241FBECFEFD0E1DEBFCDBF11E08A
:10447000A0E0B1E0ECE0FAE502C005900D92AA35AB
:10448000B107D9F70E94D9220C94042D0C94000096
:1044900014982AE228B91398139A149A98B9139881
:1044A000139A88B91398139A14988BE288B91398C1
:1044B000139A149A78B91398139A68B91398139A9F
:1044C00014988CE288B91398139A149A58B91398CF
:1044D000139A48B91398139A08950895AF92BF920A
:1044E000CF92DF92EF92FF920F931F93CF93DF93C0
:1044F0000E94292680E090E00E94A0230E940925C6
:104500002091110130911201409113015091140139
:104510006091150170911601809117019091180119
:104520000FEF1FEF0E942424CC24DD2434C0F701B8
:10453000A590B490C8016BE170E00E940A2B9C0129
:104540002C0F3D1FC8016BE170E00E940A2B6C0D1F
:104550007D1DC901A5010E9448220F5F1F4F82E007
:1045600090E0E80EF91E91E00434190701F76B960C
:10457000C33FD10539F084E8E82E80E0F82E00E052
:1045800010E0D5CFECE0F0E0CE0EDF1EF4E4CF1665
:10459000F1E0DF0619F0C0E0D0E0EDCFDF91CF9180
:1045A0001F910F91FF90EF90DF90CF90BF90AF9051
:1045B00008950E946E2220E030E04CE251E009C0F4
:1045C00088EE93E0FA013197F1F70197D9F72F5F61
:1045D0003F4F25363105A0F380E197E2FA0131978C
:1045E000F1F70197D9F720E030E0F3CF7093200185
:1045F00060931F0150932201409321010E941626CF
:104600000895CF92DF92EF92FF920F931F93DF9363
:10461000CF93CDB7DEB72A970FB6F894DEBF0FBEA3
:10462000CDBF7A0169012DB73EB7285030400FB693
:10463000F8943EBF0FBE2DBFEDB7FEB731968E0189
:104640000F5F1F4FADB7BEB712961C930E93119715
:1046500020E031E0338322836483758386839783EC
:104660000E94822CF0922001E0921F01D092220140
:10467000C09221012DB73EB7285F3F4F0FB6F89487
:104680003EBF0FBE2DBFC8010E9416262A960FB648
:10469000F894DEBF0FBECDBFCF91DF911F910F9178
:1046A000FF90EF90DF90CF900895CF92DF92EF923E
:1046B000FF920F931F93DF93CF93CDB7DEB72A9767
:1046C0000FB6F894DEBF0FBECDBF7B016A0100D0EC
:1046D00000D000D0EDB7FEB731968E010F5F1F4FAF
:1046E000ADB7BEB712961C930E93119726E031E03A
:1046F00033832283958384830E94822CF09220014D
:10470000E0921F01D0922201C09221018DB79EB785
:1047100006960FB6F8949EBF0FBE8DBFC8010E94CB
:1047200016262A960FB6F894DEBF0FBECDBFCF91E6
:10473000DF911F910F91FF90EF90DF90CF90089540
:104740009C0190931E0180931D01149886E388B903
:104750001398139A149A2115310571F480EF90E0A3
:1047600090931A018093190180E491E090931C01C9
:1047700080931B0188E432C02130310571F480E45C
:1047800091E090931A018093190180EF90E090934B
:104790001C0180931B0188EE21C02230310571F489
:1047A00080EF90E090931A018093190180E491E0EA
:1047B00090931C0180931B0188E810C023303105C1
:1047C00081F480E491E090931A018093190180EFC5
:1047D00090E090931C0180931B0188E288B91398A4
:1047E000139A14988AE288B91398139A149A18B8ED
:1047F0001398139A18B81398139A809119019091ED
:104800001A01019798B901961398139A815088B9A3
:104810001398139A14988BE288B91398139A149AE0
:1048200018B81398139A18B81398139A80911B010B
:1048300090911C01019798B901961398139A815091
:1048400088B91398139A0895EF92FF920F931F93CC
:10485000DF93CF93CDB7DEB728970FB6F894DEBFBE
:104860000FBECDBFF22F2983E32F3A834B835C83A6
:10487000362F6D83272F7E838F8398877801AB81B6
:10488000BC81062F172F6F81788514988AE288B92A
:104890001398139A149AE8B91398139AF8B91398BD
:1048A000139AB8B91398139AA8B91398139A14982D
:1048B0008BE288B91398139A149A28B91398139A0B
:1048C00038B91398139A78B91398139A68B913984A
:1048D000139A14988CE288B91398139A149A2F2F6C
:1048E0003E2FC901AC010DC0F8B81398139AE8B86F
:1048F0001398139A2F5F3F4F62177307A8F74F5F04
:104900005F4FA417B50710F09801F6CF28960FB6A1
:10491000F894DEBF0FBECDBFCF91DF911F910F91F5
:10492000FF90EF900895EF92FF920F931F93DF9304
:10493000CF93CDB7DEB728970FB6F894DEBF0FBE82
:10494000CDBFF22F2983E32F3A834B835C83362F2D
:104950006D83272F7E838F839887D8010B811C81DD
:10496000E62EF72E6F81788514988AE288B913981D
:10497000139A149AE8B91398139AF8B91398139ADA
:1049800018B91398139A08B91398139A14988BE2CC
:1049900088B91398139A149A28B91398139A38B9A6
:1049A0001398139A78B91398139A68B91398139AAD
:1049B00014988CE288B91398139A149A2F2F3E2FCB
:1049C000C901AC0114C011968C91119788B9139844
:1049D000139A12968C91129788B914961398139A79
:1049E0002F5F3F4F6217730770F74F5F5F4F0417DA
:1049F000150710F09701F6CF28960FB6F894DEBF92
:104A00000FBECDBFCF91DF911F910F91FF90EF901F
:104A100008950F931F93DF93CF93CDB7DEB72897F9
:104A20000FB6F894DEBF0FBECDBF109220011092DA
:104A30001F01109222011092210120911901309141
:104A40001A012150304080911B0190911C01019767
:104A50001A821982422F3C832B831E821D829887E3
:104A60008F83009125011091260129813A815C8173
:104A70006D817E8198850E94242428960FB6F89433
:104A8000DEBF0FBECDBFCF91DF911F910F91089573
:104A90006F927F928F929F92AF92BF92CF92DF924E
:104AA000EF92FF920F931F93CF93DF93982F009174
:104AB0001F011091200124E0E22EF12CE00EF11EE6
:104AC000609021017090220180528F3508F09FC0C4
:104AD000E301279685E098029001112424513F4B71
:104AE00014988BE288B91398139A149A78B813988B
:104AF000139A68B81398139AD8B91398139AC8B927
:104B00001398139AC0902301D0902401A0902501FE
:104B1000B0902601A8019AE2892E8CE2982E36C028
:104B2000149888B81398139A149A58B91398139A2A
:104B300048B91398139A58B91398139A48B9139807
:104B4000139A149898B81398139A149AF901B49177
:104B5000B30191E014C0A92FAB2311F48B2D01C038
:104B60008D2D88B91398139AAA2311F48A2D01C0A8
:104B70008C2D88B91398139A6F5F7F4F990FC617C2
:104B8000D70748F72F5F3F4F4F5F5F4FE416F5069B
:104B900038F614988AE288B91398139A149A58B977
:104BA0001398139A48B91398139A58B91398139AEB
:104BB00048B91398139A14988CE288B91398139AE9
:104BC000149AC30107C0B8B81398139AA8B81398D9
:104BD000139A0196C817D907B0F798012A5F3F4F7B
:104BE0003093200120931F018091190190911A01A7
:104BF0002817390760F01092200110921F0188E0F9
:104C000090E0680E791E7092220160922101DF917E
:104C1000CF911F910F91FF90EF90DF90CF90BF90B9
:104C2000AF909F908F907F906F9008951F93CF9338
:104C3000DF93EC0110E003C00E9448251F5FFE01D6
:104C4000E10FF11D80818823B9F7DF91CF911F918A
:104C5000089585B7806885BF85B7806885BF8FE771
:104C600081B98FEF87B90E9436260895129888EE91
:104C700093E02CE231E0F9013197F1F70197D9F790
:104C8000129A88EE93E02CE231E0F9013197F1F7C6
:104C90000197D9F7149A139A159A10981198169AA1
:104CA000149888E288B91398139A149A149881E199
:104CB00088B91398139A149A88E592E02CE231E0AF
:104CC000F9013197F1F70197D9F714988BEC88B96E
:104CD0001398139A149A81E088B91398139A149828
:104CE00080EC88B91398139A149A86E288B91398BD
:104CF000139A88E088B91398139A149881EC88B9AC
:104D00001398139A149A80E188B91398139A1498F7
:104D100085EC88B91398139A149A85E388B9139887
:104D2000139A8EE388B91398139A149886E388B976
:104D30001398139A149A88E488B91398139A1498BC
:104D400080EB88B91398139A149A8AE488B9139857
:104D5000139A149881EB88B91398139A149A18B877
:104D60001398139A8BE188B91398139A149886EBC9
:104D700088B91398139A149AE5E5F1E0819188B9FE
:104D80001398139A41E0E935F407C1F7149887ECBA
:104D900088B91398139A149A85EB88B91398139AC3
:104DA000149886EF88B91398139A149AE1E5F1E004
:104DB000819188B91398139A81E0E435F807C1F717
:104DC000149882EF88B91398139A149A18B8139804
:104DD000139A149886E288B91398139A149A81E06A
:104DE00088B91398139A14988AE388B91398139A78
:104DF000149A85E588B91398139A149880EE88B9A7
:104E00001398139A149AE1E4F1E0819188B9139808
:104E1000139A41E0E035F407C1F7149881EE88B9A0
:104E20001398139A149AE1E3F1E0819188B91398E9
:104E3000139A81E0E034F807C1F714988AE288B940
:104E40001398139A149AECE2F1E0819188B91398BF
:104E5000139A41E0E033F407C1F714988BE288B964
:104E60001398139A149AE7E2F1E0819188B91398A4
:104E7000139A81E0EB32F807C1F7149884E388B9FC
:104E80001398139A149A149884EB88B91398139A68
:104E9000149A18B81398139A149887EB88B9139832
:104EA000139A149A87E088B91398139A14988CE28D
:104EB00088B91398139A149A20E030E010C018B8FB
:104EC0001398139A18B81398139A019641E08034F6
:104ED0009407A9F72F5F3F4F203F310519F080E07D
:104EE00090E0EDCF149889E288B91398139A149A38
:104EF00084EF91E02CE231E0F9013197F1F701976D
:104F0000D9F7119A0895A1E1B0E0E9E8F7E20C942D
:104F10001D2B3C017F876E876A01FC011782168278
:104F2000838181FD03C06FEF7FEF6FC39E012F5F11
:104F30003F4F398B288BF3012381EE85FF8523FDBD
:104F4000859123FF8191FF87EE87882309F45AC357
:104F5000853251F4EE85FF8523FD859123FF8191F4
:104F6000FF87EE87853229F490E0B3010E94562C2A
:104F7000E2CF982F10E0882499241032B0F49B32AD
:104F800069F09C3228F4903251F0933271F40BC0E6
:104F90009D3239F0903349F4116028C012601460DA
:104FA00025C0186023C0106121C017FD2AC0892FB9
:104FB00080538A3078F416FF06C0FAE09F9E902C4A
:104FC0001124980E13C03AE0839E802C1124880E81
:104FD00010620CC09E3221F416FD14C3106406C08A
:104FE0009C3611F4106802C0983659F4EE85FF859E
:104FF00023FD959123FF9191FF87EE87992309F077
:10500000BCCF892F8554833020F4812F8061905E3E
:1050100007C0892F8556833008F09FC1812F8F7E6E
:1050200086FD02C076E0972E6FE3F62EF8229536C5
:1050300019F4F0E4FF2A07C0963619F420E8F22AA2
:1050400002C091109A94F7FE0AC03BE3391518F498
:105050005CE3B52E02C0B92CB39427E009C047E049
:10506000491520F4BB2447E0942EF7CF292DBB240B
:10507000C60104969D878C87F601608171818281CB
:105080009381AE014F5F5F4F0B2D0E94682B6C0127
:105090000981202E332400FF04C003FD02C01DE25D
:1050A00009C0F1FE02C01BE205C0F2FC02C010E024
:1050B00001C010E2C1018C709070892BB9F11123ED
:1050C00011F483E001C084E0881510F088240AC040
:1050D000881AF3FC07C080E290E0B3010E94562CCE
:1050E0008A94C9F7112329F0812F90E0B3010E941F
:1050F000562C23FE03C00CE710E00EC000E810E0C1
:105100000BC0E114F10409F0805290E0B3010E9459
:10511000562C0F5F1F4F05C0EF2CFF24F0E1EF224C
:10512000FF24F8018491882361F714C1F7FE12C0AF
:10513000BC0C24FE04C08A81813309F4BA941B1488
:105140001CF0BB24B3942DC0F8E0FB1550F538E0FB
:10515000B32E27C0F6FC25C0892D90E08C159D0547
:105160004CF02CEFC2162FEFD20624F030E8F32AD1
:1051700001C09A94992049F0E2E0F0E0EC0FFD1FA5
:10518000E90DF11D80818033A1F3F7FE0AC0B92C2F
:10519000B394892D90E0C816D90614F0992401C063
:1051A0009C18F7FC03C025E030E009C01C141D0466
:1051B0001CF021E030E003C096012F5F3F4F112328
:1051C00011F02F5F3F4F992029F0892D90E0019633
:1051D000280F391F882D90E02817390714F08824EC
:1051E00001C0821A4F2C5524C20189709070892BFE
:1051F00039F008C080E290E0B3010E94562C8A94F6
:105200008820C1F7112329F0812F90E0B3010E947B
:10521000562C43FE07C008C080E390E0B3010E9413
:10522000562C8A948820C1F7F7FE46C08601D7FE27
:1052300002C000E010E076010894E11CF11CE01AC5
:10524000F10A41E050E04C0F5D1FE40EF51E26010F
:105250004B185108892D90E0AA24BB24A81AB90A3A
:105260005FEF0F3F150729F48EE290E0B3010E9433
:10527000562CC016D10634F0401651061CF4F70126
:10528000808101C080E3015010400894E11CF11CB2
:105290000A151B052CF090E0B3010E94562CE0CFBC
:1052A0000C151D0539F49A81963318F4953311F4D1
:1052B00024FE81E390E04BC08A81813309F00F7EA8
:1052C00090E0B3010E94562C9920A1F08EE290E06C
:1052D000B3010E94562C12E0E1E0F0E0EC0FFD1F5C
:1052E000E10FF11D1F5F808190E0B3010E94562CF9
:1052F0009A9491F744FC03C085E690E002C085E4EF
:1053000090E0B3010E94562CD7FC05C0C114D10413
:1053100041F404FF06C0D094C194D108D3948DE227
:1053200001C08BE290E0B3010E94562C80E305C0DF
:105330008F5F26EF3FEFC20ED31E3AE0C316D104B3
:10534000BCF790E0B3010E94562CC601C096B30191
:105350000E94562CCC84DD8452C1933631F09337B1
:1053600099F0933509F059C023C0F60180818983F3
:105370005E010894A11CB11C22E030E0C20ED31ED5
:1053800021E0E22EF12C12C0F601A080B18016FDC2
:1053900003C06FEF7FEF02C0692D70E022E030E0C4
:1053A000C20ED31EC5010E944B2C7C011F7713C077
:1053B000F601A080B18016FD03C06FEF7FEF02C041
:1053C000692D70E022E030E0C20ED31EC5010E94BC
:1053D000402C7C01106813FF07C01BC080E290E0E6
:1053E000B3010E94562C8A94882D90E0E816F906A5
:1053F000A8F30FC0F50117FD859117FF81915F019B
:1054000090E0B3010E94562C81108A940894E10820
:10541000F108E114F10471F7F2C0943611F09936F5
:1054200089F517FF08C0F60120813181428153813F
:1054300084E090E00AC0F601808191819C014427BC
:1054400037FD4095542F82E090E0C80ED91E9FE6AC
:10545000F92EF12257FF09C05095409530952195BE
:105460003F4F4F4F5F4F90E8F92ACA01B901AE0193
:105470004F5F5F4F2AE030E00E94A62CE82EE889BB
:10548000EE1A41C0953721F41F7E2AE030E01CC09F
:10549000197F9F3661F0903720F4983509F0B2C03B
:1054A0000FC0903739F0983709F0ACC004C028E03D
:1054B00030E00AC0106114FD146020E130E004C047
:1054C00014FD166020E132E017FF08C0F60160818C
:1054D00071818281938144E050E008C0F6018081AF
:1054E0009181BC0180E090E042E050E0C40ED51E06
:1054F000AE014F5F5F4F0E94A62CE82E5889E51A37
:105500008FE7F82EF122F6FE0BC08EEFF822E91499
:1055100038F4F4FE07C0F2FC05C09FEEF92202C089
:105520001E2D01C0192DF4FE0DC0FE01EE0DF11D62
:105530008081803319F4E9EEFE2208C01F5FF2FE7D
:1055400005C003C08F2D867809F01F5F0F2DF3FC77
:1055500014C0F0FE0FC0181510F09E2C0BC09E2C2E
:10556000980C911A182D06C080E290E0B3010E94B9
:10557000562C1F5F1815C0F304C0181510F4811ABB
:1055800001C0882404FF0FC080E390E0B3010E94B3
:10559000562C02FF1DC001FD03C088E790E00EC03D
:1055A00088E590E00BC0802F867891F001FF02C063
:1055B0008BE201C080E2F7FC8DE290E0B3010E9433
:1055C000562C06C080E390E0B3010E94562C9A94BA
:1055D000E914C0F3EA94E1E0F0E0EC0FFD1FEE0DFA
:1055E000F11D808190E0B3010E94562CEE2091F7CE
:1055F00006C080E290E0B3010E94562C8A94882075
:10560000C1F799CCF30166817781CB016196E2E124
:105610000C94392B97FB092E07260AD077FD04D06E
:1056200043D006D000201AF4709561957F4F0895FD
:10563000F6F7909581959F4F08952F923F924F9244
:105640005F926F927F928F929F92AF92BF92CF9212
:10565000DF92EF92FF920F931F93CF93DF93CDB71B
:10566000DEB7CA1BDB0B0FB6F894DEBF0FBECDBF93
:1056700009942A88398848885F846E847D848C8464
:105680009B84AA84B984C884DF80EE80FD800C816D
:105690001B81AA81B981CE0FD11D0FB6F894DEBF50
:1056A0000FBECDBFED010895AA1BBB1B51E107C082
:1056B000AA1FBB1FA617B70710F0A61BB70B881FA2
:1056C000991F5A95A9F780959095BC01CD01089531
:1056D000283008F027E03327DA01990F311D87FDC4
:1056E000916000966105710539F432602E5F3D933B
:1056F00030E32A95E1F708959F3F30F08038710537
:10570000610509F03C5F3C5F3D93913008F0806893
:10571000911DDF93CF931F930F93FF92EF92192F59
:10572000987F9695E92F96959695E90FFF27EF5369
:10573000FC4B99273327EE24FF24A701E7010590AE
:105740000894079428F4360FE71EF81E491F511DD0
:10575000660F771F881F991F0694A1F7059007947D
:1057600028F4E70EF81E491F561FC11D770F881F2A
:10577000991F661F0694A1F70590079428F4F80E68
:10578000491F561FC71FD11D880F991F661F771FFE
:105790000694A1F70590079420F4490F561FC71FE0
:1057A000D81F990F661F771F881F0694A9F7849149
:1057B0001095177041F0D695C79557954795F79472
:1057C000E7941A95C1F7E7E6F3E46894159015910C
:1057D00035916591959105907FE27395E118F10AF5
:1057E000430B560BC90BD009C0F7E10CF11E431F48
:1057F000561FC91FD01D7EF4703311F48A95E6CF71
:10580000E894015030F0080F0AF40027021708F45A
:10581000202F2395022F7A3328F079E37D932A9560
:10582000E9F710C07D932A9589F6069497956795B8
:10583000379517951794E118F10A430B560BC90BCE
:10584000D00998F023957E9173957A3308F070E330
:105850007C932013B8F77E9170617D9330F083952F
:1058600071E37D9370E32A95E1F71124EF90FF90A7
:105870000F911F91CF91DF91992787FD9095089502
:10588000FC010590615070400110D8F7809590950B
:105890008E0F9F1F0895FC01615070400190011010
:1058A000D8F7809590958E0F9F1F08950F931F93A3
:1058B000CF93DF938C01EB018B8181FF1BC082FFB3
:1058C0000DC02E813F818C819D812817390764F49A
:1058D000E881F9810193F983E88306C0E885F985B9
:1058E000802F0995892B31F48E819F8101969F83AA
:1058F0008E8302C00FEF1FEFC801DF91CF911F9180
:105900000F910895AEE0B0E0E8E8FCE20C942B2B98
:105910000D891E8986E08C831A8309838FEF9FE7A8
:105920009E838D839E01275E3F4FCE0101966F8936
:10593000788DA9010E9483272F813885020F131FBC
:10594000F80110822E96E4E00C94472BFA01AA2766
:10595000283051F1203181F1E8946F936E7F6E5FB2
:105960007F4F8F4F9F4FAF4FB1E03ED0B4E03CD060
:10597000670F781F891F9A1FA11D680F791F8A1F43
:10598000911DA11D6A0F711D811D911DA11D20D0AA
:1059900009F468943F912AE0269F11243019305D64
:1059A0003193DEF6CF010895462F4770405D419355
:1059B000B3E00FD0C9F7F6CF462F4F70405D4A33A2
:1059C00018F0495D31FD4052419302D0A9F7EACF6A
:1059D000B4E0A6959795879577956795BA95C9F799
:1059E00000976105710508959B01AC010A2E06948C
:1059F0005795479537952795BA95C9F7620F731F45
:0C5A0000841F951FA01D0895F894FFCF8F
:105A0C0025352E326600256400A629B1042C135CC2
:105A1C00D70000EF0000003F01F000400100000043
:105A2C00000000FFFF00000000013F00000000EF3D
:105A3C00000025270510093A784D05180D383A1F36
:105A4C00001F1A180A0F064587320A0702070500BD
:0A5A5C0000010000000A822700008C
:00000001FF
